:020000040800F2
:100000000000032049920008718F0008738F0008D8
:10001000758F0008778F0008798F000800000000B6
:1000200000000000000000000000000011B90008FE
:100030007B8F000800000000B1B900087DB5000802
:1000400099920008999200089992000899920008E4
:1000500099920008999200089992000899920008D4
:100060009992000899920008999200087D8F0008E3
:1000700099920008999200089992000899920008B4
:10008000999200088D8F00089992000899920008B3
:100090009D8F000899920008999200089992000893
:1000A00099920008AD8F0008999200089992000873
:1000B0009992000899920008999200089992000874
:1000C0009992000899920008999200089992000864
:1000D0009992000899920008999200089992000854
:1000E0009992000899920008999200089992000844
:1000F0009992000899920008999200089992000834
:100100009992000899920008999200089992000823
:100110009992000899920008999200089992000813
:100120009992000899920008999200089992000803
:1001300099920008999200089992000899920008F3
:1001400099920008999200089992000899920008E3
:1001500099920008999200089992000899920008D3
:1001600099920008999200089992000899920008C3
:1001700099920008999200089992000800000000E6
:10018000999200089992000899920008BD8F000882
:100190009992000899920008999200089992000893
:0C01A00000000000000000009992000820
:1001C0000348044B834202D0034B03B118477047E6
:1001D000C0090020C00900200000000005480649B1
:1001E0000B1AD90F01EBA301491002D0034B03B145
:1001F00018477047C0090020C00900200000000017
:1002000010B5064C237843B9FFF7DAFF044B13B15E
:100210000448AFF300800123237010BDC009002003
:100220000000000050D8000808B5044B1BB1044979
:100230000448AFF30080BDE80840CFE700000000AD
:10024000C409002050D8000881F0004102E000BF3E
:1002500083F0004330B54FEA41044FEA430594EA86
:10026000050F08BF90EA020F1FBF54EA000C55EAC1
:10027000020C7FEA645C7FEA655C00F0E2804FEA92
:100280005454D4EB5555B8BF6D420CDD2C4480EA74
:10029000020281EA030382EA000083EA010180EAA4
:1002A000020281EA0303362D88BF30BD11F0004FF2
:1002B0004FEA01314FF4801C4CEA113102D0404228
:1002C00061EB410113F0004F4FEA03334CEA133363
:1002D00002D0524263EB430394EA050F00F0A7807B
:1002E000A4F10104D5F1200E0DDB02FA0EFC22FA76
:1002F00005F2801841F1000103FA0EF2801843FA6A
:1003000005F359410EE0A5F120050EF1200E012A5A
:1003100003FA0EFC28BF4CF0020C43FA05F3C01898
:1003200051EBE37101F0004507D54FF0000EDCF111
:10033000000C7EEB00006EEB0101B1F5801F1BD3BA
:10034000B1F5001F0CD349085FEA30004FEA3C0CBE
:1003500004F101044FEA445212F5800F80F09A80B4
:10036000BCF1004F08BF5FEA500C50F1000041EBB8
:10037000045141EA050130BD5FEA4C0C404141EBBC
:100380000101013C28BFB1F5801FE9D291F0000FB7
:1003900004BF01460020B1FA81F308BF2033A3F166
:1003A0000B03B3F120020CDA0C3208DD02F1140C5D
:1003B000C2F10C0201FA0CF021FA02F10CE002F198
:1003C0001402D8BFC2F1200C01FA02F120FA0CFC91
:1003D000DCBF41EA0C019040E41AA2BF01EB0451DA
:1003E000294330BD6FEA04041F3C1CDA0C340EDCD8
:1003F00004F11404C4F1200220FA04F001FA02F31B
:1004000040EA030021FA04F345EA030130BDC4F1D8
:100410000C04C4F1200220FA02F001FA04F340EACD
:100420000300294630BD21FA04F0294630BD94F07E
:10043000000F83F4801306BF81F480110134013D65
:100440004EE77FEA645C18BF7FEA655C29D094EAD6
:10045000050F08BF90EA020F05D054EA000C04BF54
:100460001946104630BD91EA030F1EBF002100203F
:1004700030BD5FEA545C05D14000494128BF41F0DE
:10048000004130BD14F580043CBF01F5801130BD42
:1004900001F0004545F0FE4141F470014FF00000CD
:1004A00030BD7FEA645C1ABF194610467FEA655C7E
:1004B0001CBF0B46024650EA013406BF52EA033520
:1004C00091EA030F41F4002130BD00BF90F0000F0E
:1004D00004BF0021704730B54FF4806404F132044A
:1004E0004FF000054FF0000150E700BF90F0000F03
:1004F00004BF0021704730B54FF4806404F132042A
:1005000010F0004548BF40424FF000013EE700BFF9
:1005100042004FEAE2014FEA31014FEA02701FBF89
:1005200012F07F4393F07F4F81F06051704732F0BB
:100530007F4208BF704793F07F4F04BF41F4002112
:10054000704730B54FF4607401F0004521F0004170
:100550001CE700BF50EA010208BF704730B54FF0FA
:1005600000050AE050EA010208BF704730B511F0FB
:10057000004502D5404261EB41014FF4806404F133
:1005800032045FEA915C3FF4D8AE4FF003025FEAB9
:10059000DC0C18BF03325FEADC0C18BF033202EB3D
:1005A000DC02C2F1200300FA03FC20FA02F001FA97
:1005B00003FE40EA0E0021FA02F11444BDE600BF3A
:1005C0004FEA4102B2F1E04324BFB3F5001CDCF175
:1005D000FE5C0DD901F0004C4FEAC0024CEA5070AD
:1005E000B2F1004F40EB830008BF20F001007047DC
:1005F00011F0804F21D113F13872BCBF01F00040DF
:10060000704741F480114FEA5252C2F11802C2F110
:10061000200C10FA0CF320FA02F018BF40F0010091
:100620004FEAC1234FEAD32303FA0CFC40EA0C0043
:1006300023FA02F34FEA4303CCE77FEA625307D180
:1006400050EA01331EBF4FF0FE4040F440007047B7
:1006500001F0004040F0FE4040F40000704700BF51
:1006600053B94AB9002908BF00281CBF4FF0FF3119
:100670004FF0FF3000F06EB9ADF1080C6DE904CE1B
:1006800000F006F8DDF804E0DDE9022304B070476D
:100690002DE9F047089D04468C46002B40F08380EE
:1006A0008A42174647D9B2FA82F242B1C2F120001B
:1006B00024FA00F09140974040EA010C94404FEA40
:1006C0001748230CBCFBF8F61FFA87FE08FB16C17F
:1006D00043EA014306FB0EF1994209D9FB1806F1E2
:1006E000FF3080F01981994240F21681023E3B446E
:1006F0005B1AA4B2B3FBF8F008FB103344EA0344DE
:1007000000FB0EFEA64509D93C1900F1FF3380F02D
:100710000581A64540F2028102383C4440EA064089
:10072000A4EB0E0400261DB1D4400023C5E900430C
:100730003146BDE8F08702B9FFDEB2FA82F2002A44
:1007400050D1CB1B4FEA174E1FFA87F80126B3FB97
:10075000FEFC210C0EFB1C3341EA034108FB0CF3A9
:100760008B4207D979180CF1FF3002D28B4200F28C
:10077000E9808446C91AA3B2B1FBFEF00EFB10114A
:1007800043EA014408FB00F8A04507D93C1900F1F1
:10079000FF3302D2A04500F2D9801846A4EB08042A
:1007A00040EA0C40BFE78B4209D9002D00F0B18030
:1007B0000026C5E9000130463146BDE8F087B3FAAE
:1007C00083F6002E4AD18B4202D3824200F2B880D7
:1007D000841A61EB030101208C46002DA8D0C5E9E5
:1007E000004CA5E7C2F1200320FA03F6974001FA76
:1007F00002F04FEA174ED9403043030CB1FBFEF62E
:100800001FFA87F80EFB161143EA014306FB08F1B5
:10081000994204FA02F409D9FB1806F1FF3C80F072
:100820008D80994240F28A80023E3B445B1A81B23D
:10083000B3FBFEF00EFB103341EA034100FB08F36B
:100840008B4207D9791800F1FF3C73D28B4271D9E2
:1008500002383944CB1A40EA064678E7C6F1200C44
:1008600003FA06F422FA0CF31C4320FA0CF701FAFF
:1008700006F34FEA144E21FA0CF11F433B0CB1FB77
:10088000FEF91FFA84F80EFB191143EA014109FB36
:1008900008FA8A4502FA06F200FA06F308D9611846
:1008A00009F1FF3048D28A4546D9A9F1020921440D
:1008B000A1EB0A01BFB2B1FBFEF00EFB101147EA3B
:1008C000014700FB08F8B84507D9E71900F1FF31E7
:1008D0002ED2B8452CD90238274440EA0940A7EB6C
:1008E0000807A0FB02894F45C64649461AD317D0D0
:1008F0005DB1B3EB0E0267EB010707FA0CFCF240A7
:100900004CEA0202F740C5E9002700263146BDE85F
:10091000F0872E4628460BE70646E9E61846FDE630
:100920004345E5D2B8EB020E69EB04010138DFE77D
:100930000846D2E760468DE78146B9E7664675E727
:1009400030464AE7ACF1020C394413E702383C4424
:1009500024E700BF704700BF002301461A4618462F
:1009600002F00EBD002101F01DB900BF014B186857
:10097000704700BF0000002038B50A4C0A4D641BC8
:10098000A4100AD004F18043013B05EB8305013C30
:1009900055F804399847002CF9D1BDE838400CF0DF
:1009A0005DBF00BF7CDE000878DE000870B50D4E2C
:1009B0000D4D761BB61006D00024013455F8043BCB
:1009C0009847A642F9D1094E094D761B0CF040FF1D
:1009D000B61006D00024013455F8043B9847A642CF
:1009E000F9D170BD70DE000870DE000878DE000806
:1009F00070DE0008844641EA000313F003036DD162
:100A0000403A41D351F8043B40F8043B51F8043BD1
:100A100040F8043B51F8043B40F8043B51F8043BD8
:100A200040F8043B51F8043B40F8043B51F8043BC8
:100A300040F8043B51F8043B40F8043B51F8043BB8
:100A400040F8043B51F8043B40F8043B51F8043BA8
:100A500040F8043B51F8043B40F8043B51F8043B98
:100A600040F8043B51F8043B40F8043B51F8043B88
:100A700040F8043B51F8043B40F8043B51F8043B78
:100A800040F8043B403ABDD2303211D351F8043B18
:100A900040F8043B51F8043B40F8043B51F8043B58
:100AA00040F8043B51F8043B40F8043B103AEDD2C7
:100AB0000C3205D351F8043B40F8043B043AF9D218
:100AC000043208D0D2071CBF11F8013B00F8013BEB
:100AD00001D30B8803806046704700BF082A13D3F8
:100AE0008B078DD010F003038AD0C3F10403D21A10
:100AF000DB071CBF11F8013B00F8013B80D331F844
:100B0000023B20F8023B7BE7043AD9D3013A11F8C3
:100B1000013B00F8013BF9D20B7803704B7843702E
:100B20008B78837060467047F0B4860746D0541EB9
:100B3000002A3CD0CAB2034602E014F1FF3436D397
:100B400003F8012B9D07F8D1032C29D9CDB245EA32
:100B500005250F2C45EA054533D9A4F110063609C1
:100B600003F1200707EB061703F1100242E90455D1
:100B700042E902551032BA42F8D1721C14F00C0F3F
:100B800003EB021204F00F0613D0331F23F003030C
:100B90000433134442F8045B9342FBD106F0030490
:100BA0002CB1C9B21C4403F8011B9C42FBD1F0BC20
:100BB000704734461346002CF3D1F8E71446034639
:100BC000C2E71A462646E0E70EB400B582B003AB92
:100BD000816853F8042B019301F0AAF802B05DF884
:100BE00004EB03B0704700BF0FB400B5074983B0F2
:100BF00004AB086853F8042B8168019301F098F85E
:100C000003B05DF804EB04B0704700BF00000020A3
:100C100070B504460D4645EC104B164605F032FA09
:100C200051EC100B7EB1C5F30A53C3F16B03002BDB
:100C300009DD1B0503F17F55002405F5401522460B
:100C40002B4607F0C5FB70BD2DE9F04F734CA3B0E8
:100C50002468079488468146002120461D460024CA
:100C60000023CDE9043406921E9105F089FDCDF8EC
:100C70007480834643469A4613F8014B2D2C00F2AC
:100C8000B380DFE804F01EB1B1B1B1B1B1B1B1AF21
:100C9000AFAFAFAFB1B1B1B1B1B1B1B1B1B1B1B14C
:100CA000B1B1B1B1B1B1AFB1B1B1B1B1B1B1B1B136
:100CB000B1ACB12C002D40F0B6800B9B034340F04B
:100CC000B180069B13B1069BC3F800804FF0000A69
:100CD0004FF0000B4BEC10AB23B0BDE8F08F0123BD
:100CE0000A930AF101031D939AF80140002CE8D001
:100CF000302C9A467CD000230B93A4F13003DAB257
:100D0000092A00F29D8400263746354650460130B8
:100D10001D90082D047807EB8702CABF06EB8606F4
:100D200003EB420703EB4606A4F13003DAB2092ACB
:100D300005F10105EBD907995A4605F08FFD00280A
:100D400000F02C810020652C8346844608956AD0EB
:100D5000452CAFD000230C93002D00F0B080089BF1
:100D60001A46002B08BF2A4638460892FFF7AEFB0A
:100D70000C9B102DA3EB0B032C46A8BF1024092DB0
:100D8000CDE904010B9313DD254B03EBC40353E9B9
:100D9000122307F01DFBCDE904013046FFF796FB57
:100DA00002460B46DDE90401FFF754FACDE90401E0
:100DB0000F2D00F306810B9B002B00F082840B9B10
:100DC00040F38783162B40F37A850B9AC5F12503F0
:100DD000934280F28A850B9B2C1B1C44F7E0002376
:100DE0000A937EE71D9346E70023302C0A9382D1B5
:100DF0009AF80130582B00F06784782B18BF5346BF
:100E000000F0628401331D931C78302CFAD09A468E
:100E1000002C00F0AF8001230B936EE7E0D90008AF
:100E200000DA00080025DDF8748008F101031D9345
:100E300098F801402B2C00F0E1822D2C00F07382F9
:100E40004FF0000EA4F13003092B00F27482302C15
:100E500005D11D9B01331D931C78302CFAD0A4F1D1
:100E60003103082B3FF676AF1D9907914A1C1D925E
:100E7000A4F130034C78A4F13001092900F2768402
:100E800001321D9203EB830304EB43031478A4F1B6
:100E900030010929A3F13003F2D90799521A082A1F
:100EA00040F3648444F61F630C93BEF1000F3FF4DB
:100EB00053AF0C9B5B420C93002D7FF450AF0B9B08
:100EC000034357D1BCF1000F7FF4FBAE493C252C06
:100ED0003FF6F7AE01A353F824F000BF1B1500083E
:100EE000C30C0008C30C0008C30C0008C30C0008A6
:100EF000F7140008C30C0008C30C0008C30C00085A
:100F0000C30C0008C30C0008C30C0008C30C000885
:100F1000C30C0008C30C0008C30C0008C30C000875
:100F2000C30C0008C30C0008C30C0008C30C000865
:100F3000C30C0008C30C0008C30C0008C30C000855
:100F4000C30C0008C30C0008C30C0008C30C000845
:100F5000C30C0008C30C0008C30C00081B150008D4
:100F6000C30C0008C30C0008C30C0008C30C000825
:100F7000F71400084FF0000A4FF0000B069A0AB170
:100F80001D9B13600A9B002B3FF4A4AE0BF10043A2
:100F90009B464BEC10AB23B0BDE8F08F1D9B089532
:100FA00003EB0B021D9213F80B408346A4F13002B1
:100FB000092A40F2B183652C4FF0010C7FF4C8AED2
:100FC00031E70B9B2C1B1C44002C40F3E58214F0F2
:100FD0000F030AD0BA4901EBC301D1E90001DDE9F1
:100FE000042307F0F5F9CDE9040134F00F0440F0D3
:100FF00059820023079300972B46089A514648468A
:1010000004F07CFD1390002800F004840B9A0C9BE4
:101010000021002AABEB0303A8BF0B460E9322EA84
:10102000E2730F4612938B46139C4846616804F0A6
:10103000E3FC8046002800F0588122699DED047B86
:101040000232920004F10C010C308DED087BFFF7A9
:10105000D1FC9DED080B20AA1FA9484605F096F883
:101060001E90002800F01A810121484604F0ECFD92
:101070000746002800F039811F9B002BC0F2118128
:101080000E9A129D9E180799209C8E4A5B1A234443
:10109000013B9342C4F1360480F2C580D21A1F2A64
:1010A000A4EB020400F33781012393400C93002347
:1010B00010932544079B3444A6421D443346A8BFE1
:1010C0002346AB42A8BF2B46002B02DDE41AED1AE3
:1010D000F61A0E9B002B00F3BF80002C00F3D58086
:1010E0000B9B002B00F3F880002D00F30A81002EEB
:1010F00008DD39463246484604F0AEFE0746002871
:1011000000F0F38042461E99484604F027FF8346CC
:10111000002800F0EA800023C268C36039460F92BD
:1011200004F000FF0028C0F25E84059E00F0F48306
:101130003946584605F094F855EC104B00224FF014
:10114000804310EE100A294607F0BEFB00286FD03E
:101150000F9B002B00F0F9809FED557B5A4C00232C
:10116000CDE90C348DED107B584D594B06EA050442
:101170009C4200F00F81079B53B3B4F1D46F27D882
:10118000DDE910564CA3D3E900232846314607F089
:101190009BFBC0B12846314607F0F2FB002800F067
:1011A000F282FFF793F9CDE910010F9B002B40F07D
:1011B000E582DDE9101202F1004316911793DDE993
:1011C0001623CDE90C230D9B03F1D6631B1B0D9356
:1011D0009DED080BDDE90C5604F054FF284653EC56
:1011E000102B314607F0F4F8DDE90823FFF732F859
:1011F000CDE904010D46079B23B9344B2B409C429B
:1012000000F0FF801E99484604F01CFC4146484609
:1012100004F018FC3946484604F014FC5946484688
:1012200004F010FC00E70023109301230C9340E727
:10123000284B20462946002207F0CAF80F9BCDE92B
:101240001001002B7CD101F1004314901593DDE9CE
:101250001434CDE90C3487E739461A46484604F081
:10126000AFFD0746002840D001461E9A484604F0CC
:1012700001FD002839D00F901E99484604F0E2FB8A
:101280000F9B1E93002C7FF72BAF22461E994846DA
:1012900004F0E2FD1E9000287FF422AF5E46044673
:1012A00025E0129A0E9ED51AEDE600BFAFF300803E
:1012B000000000000000F03F0000C0FFFFFFDF4122
:1012C00000DA000802FCFFFF0000F03F0000F07FA2
:1012D0000000E07F0000E03F4146129A484604F0DB
:1012E0006FFD804600287FF4FFAE5E461E9C9E4B3D
:1012F0000593002222230492DDE904ABC9F80030F3
:10130000A8E041462A46484604F0A6FD804600284B
:101310007FF4EDAEE9E7954AD31A012202FA03F30E
:1013200010930C92C5E64FF0010E08F102031D93D5
:1013300098F8024086E50023CDF874800C930BE505
:101340009DED107B8DED147B81E7049B002B40F01D
:101350009680C6F31303002B40F097800022844B45
:101360002046294607F0A6FA002840F0B582002260
:10137000804B2046294607F02BF80A460146CDE966
:10138000101202F100431A901B93DDE91A34CDE9E3
:101390000C34E9E6A6F1547305939DED047BDDE979
:1013A0000C01B0EE470AF0EE670ACDE90C0104F03B
:1013B00069FEDDE90C0153EC102B07F009F8DDE9BB
:1013C0000423FEF747FF05EA010C0B46CDE90401B3
:1013D000DDE90801684A05460E469445CDE91856F0
:1013E0005CD9664B994203D1B0F1FF3F3FF47DAF2A
:1013F00062494FF0FF33CDE9043103E74FF0000EAF
:1014000093E7DDE9100107F0DBFAFFF7ABF80246DE
:101410000B46DDE91001FEF71BFF0F9B049AC5F395
:10142000130513432B43CDE9080149D046A3D3E963
:10143000002307F03FFA48B9DDE9080144A3D3E9E6
:10144000002307F055FA00283FF4DCAE5E46DDE9E4
:1014500004AB1E9C2146484604F0F4FA4146484637
:1014600004F0F0FA3946484604F0ECFA139948467D
:1014700004F0E8FA3146484604F0E4FA7EE5049BBD
:10148000012B02D1002E00F040839FED337B3C4CBA
:101490000023CDE90C348DED107B65E603F1547526
:1014A0000595A8E6B4F59A7F40F372812E4B05931B
:1014B000002222230492DDE904ABC9F800305DE587
:1014C00027A3D3E9002307F0F5F900283FF49AAEEB
:1014D000BCE71633FFF675AD0C9A2A4BABEB020B4B
:1014E00003EBCB03DDE90401D3E9002307F09AF80D
:1014F00082468B4642E51DA8234903F0BBFD002828
:101500003FF4DFAB1D9B1B78282B00F097821F4810
:1015100004F046FF5BEC10AB30E51DA81C4903F05E
:10152000A9FD00283FF4CDAB1D9B1A49013B1DA826
:101530001D9303F09FFD10B91D9B01331D930A4BB2
:101540000593DDE904AB19E59535A094FFFFDF3F76
:1015500035E5AF350000E03F000000000000F03F3F
:101560009535A094FFFFCF3F0000F07FE2FBFFFF27
:101570000000F03F0000E03FFFFF9F7CFFFFEF7F98
:101580000000F0BF00DA000808DD000834DE0008C3
:10159000FCDC000800DD00083FF42BAD644214F0D1
:1015A0000F020AD0BA4B03EBC203DDE90401D3E911
:1015B000002307F037F8CDE9040124113FF419ADF9
:1015C0001F2C35DC14F01003DDE9040118BF6A2379
:1015D000B04E07930023E20704D5D6E9002306F0B6
:1015E000F7FE0123641006F10806F4D10BB1CDE932
:1015F0000401079B9BB1DDE90412C2F30A53C3F156
:101600006B03002B11460ADD1F2B40F36B82002277
:10161000342B049240F371824FF05C7305930022E7
:101620000023DDE9040107F03BF900283FF4E3ACB7
:101630002223C9F800304FF0000A4FF0000B9DE460
:1016400007995A46504605F009F90890002840F0DD
:1016500072821D9A02EB0B031D9312F80B40302C83
:1016600008BFC3F1010240F0E080981801331D93D8
:101670001C78302CF9D0A4F13103082B12D8DDF8F6
:1016800074A00027A4F1300E00F1010B54463E4631
:10169000012507EB87070EEB47070020631C1D930E
:1016A000647883E4652C2FD0452C2DD04FF0010CAD
:1016B00005E4794B0593240742BF059B43F00043A3
:1016C0000593DDE904AB59E40A9A02951EABCDE916
:1016D00000321DA91FAB714A484603F01BFA10F0F7
:1016E000070504463FF446AC062D40F0A080069A5C
:1016F0000AF10103002A3FF4E9AA13604FF0000A3F
:101700004FF0000BFFF7E6BA4FF0000B5E465F4666
:101710004FF0010CFFF7D1BA013096461D9C002A0C
:10172000BCD00128834405F1010100F00182284466
:1017300000F1FF3C03E04F0063451D460BD0082D30
:1017400005F1010307EB8701F5DD102BDCBF06EB8C
:1017500086067600F0E70546082B9ADD102DDCBFE3
:1017600006EB860602EB4606002097E744F61F626A
:101770009342A8BF13460C93FFF797BB9DED107BD8
:101780008DED167B1BE59FED407B8DED107B0CE511
:101790002411012C424B40F36581DDE904011E4612
:1017A00007930023984614F0010F08F101084FEA4F
:1017B000640404D0D6E9002306F00AFE0123012CBC
:1017C00006F10806EFD10BB1CDE90401059B324CBF
:1017D000344EA3F154730593079B03EBC808D8E973
:1017E0000001DDE9042306F0F3FD01EA0403B3423E
:1017F0000A46CDE9040100F2D4802B498B4240F225
:10180000C9802A4B0593002307934FF0FF330493BD
:10181000FFF7F1BB204B0593139B04932223DDE9D3
:1018200004ABC9F80030FFF7A9BB089823E71E9A5C
:101830003AB1352120A804F063FD48461E9904F012
:1018400001F9013D042D3FF636AF01A353F825F011
:101850006F18000865180008B3160008B1180008D2
:101860006F180008209B0493219B059323E7DDE973
:1018700020131F9A049102F2334223F4801343EAA7
:101880000253059317E700BF000000000000F03F7F
:1018900000DA000898D800080000F07F70D800082F
:1018A000F0DA00080000A07C0000907CFFFFEF7FD2
:1018B0004FF0FF336FF00045CDE90435FBE6AA4950
:1018C00001EBC301D1E90001DDE9042306F080FD4D
:1018D00082468B46FFF752BB9FED9F7B8DED1A7BB7
:1018E0009FED9F7B8DED107B4FE59F4CC5F10F0564
:1018F00004EBC501DDE90423D1E9000106F068FD30
:101900000B9B5D1B04EBC504D4E9002306F060FDCE
:1019100082468B46FFF732BB0F990B963346934AAC
:101920005E46C3F31303DDE908AB002943D09342BD
:1019300000F0B680109B002B7BD00B9A134210D086
:101940000F9B079ADDE90401002B00F08F80FFF761
:101950005FF902460B4650465946FEF77BFC82462D
:101960008B46079B1E9C002B3FF474AD804A0023DE
:10197000CDE918325046DDE91823594606F028FD16
:1019800003460B4308BF222382468B4608BFC9F893
:1019900000305FE502F15473059300230793FFF7CE
:1019A0002ABB0023049305942223DDE904ABC9F884
:1019B0000030FFF7E3BA049A1343BBD1079B002B17
:1019C00040F0A5806B4B0B9A1A401346A3F5801389
:1019D0006FEA13536FEA035305934FF0FF330493F9
:1019E000DDE904ABBDE7DDE904450F9B23435A461F
:1019F0005E46DDE908ABB4D1C5F313030B95002BAC
:101A0000AFD125F000431B0D1B05B3F1D66FA8D94C
:101A1000536913B91369012BA3DD314601224846EE
:101A200004F01AFA3946064604F07CFA002898DDDC
:101A3000C4E70C9B049A134293D081E71DA820AA07
:101A40004D4903F02FFB05287FF461AD219B43F046
:101A5000FF4343F4E0030593209B0493DDE904ABCB
:101A6000FFF78CBA07934FF00008AFE6FFF7D0F806
:101A700002460B4650465946FEF7EAFB0022002379
:101A800082468B4606F00CFF00283FF46AAF222303
:101A9000C9F800301E9C4FF0000A4FF0000BD9E44B
:101AA000079B049933B3334B0B9A1340B3F1D46FB4
:101AB00020D81B0DC3F16B034FF0FF3202FA03F382
:101AC00099427FF437AF2D4B0B9A9A422CD0294B79
:101AD0000B9A1A4002F58013059300230493DDE965
:101AE00004AB3EE74FF0FF3202FA03F3049A1A40C8
:101AF000049294E54FF0FF33E2E7203B4FF0FF32D2
:101B000002FA03F30B40059389E55E46BFE7194BE4
:101B10000B9A1A40B2F1D66F13463FF757AFB2F1A6
:101B20005C7FB4DD1E9C21E70131D0D1FFF7DEBB25
:101B30002B460D4610E60023652C08931E461F46D3
:101B400018469B4603D01D469C46FFF701B99C46AC
:101B5000FFF7B3B8AFF30080000000000000E0BF63
:101B6000000000000000E03F00DA0008FFFF0F0067
:101B7000000050390000F07F84D80008FFFFEF7F9D
:101B8000014BFFF761B800BF3404002010B4044CCF
:101B900013460A46014620685DF8044BFFF754B827
:101BA0000000002010B4044C044B0A460146206893
:101BB0005DF8044BFFF748B8000000203404002013
:101BC0002DE9F041DFF8A88013462DED028B0A467F
:101BD0000146D8F80000FFF737F855EC104B10EE2F
:101BE000102A2B4610EE100A294606F08BFE50BB39
:101BF00020462946FEF7E4FC08EE100ADFED197ACC
:101C0000B0EEC87AB4EE677AF1EE10FA15DD25F081
:101C10000047204639464FF0FF32134B06F072FE64
:101C200038B9204639464FF0FF320F4B06F04CFED4
:101C300018B1D8F8003022221A60B0EE480ABDEC84
:101C4000028BBDE8F081002D084804DA04F0C2FBE5
:101C5000B1EE408AF1E7BDEC028BBDE8F04104F043
:101C6000B9BB00BFFFFF7F7FFFFFEF7F34DE0008BF
:101C7000000000202DE9F041DFF8AC80264B0A4639
:101C80002DED028B0146D8F80000FEF7DDFF55EC84
:101C9000104B10EE102A2B4610EE100A294606F0C3
:101CA00031FE50BB20462946FEF78AFC08EE100A9A
:101CB000DFED1A7AB0EEC87AB4EE677AF1EE10FA78
:101CC00015DD25F00047204639464FF0FF32144B12
:101CD00006F018FE38B9204639464FF0FF32104B57
:101CE00006F0F2FD18B1D8F8003022221A60B0EEEA
:101CF000480ABDEC028BBDE8F081002D094804DAEA
:101D000004F068FBB1EE408AF1E7BDEC028BBDE860
:101D1000F04104F05FBB00BF34040020FFFF7F7F71
:101D2000FFFFEF7F34DE000800000020000000000D
:101D30002DE9F04FBFB01C4604919146054608902E
:101D400003F0AEFA03681193184604F019FD0994E4
:101D50000F901DB1AB6B002B00F067830499B1F9B4
:101D60000C2093B29E04084607D4496E42F40053F7
:101D700021F40051838141669BB21D0740F1D08060
:101D8000049A1269002A00F0CB8003F01A030A2B90
:101D900000F0D4809FED9A7B00238DED0C7B0E9399
:101DA000CDE922331093129305932EAB21939A46DB
:101DB00099F80030002B00F0DD80252B00F0BE8666
:101DC0004D4603E0252B00F0C78025466B786C1C40
:101DD000002BF7D1B4EB090600F0CC80DDE922320C
:101DE00001333244072BCAF80090CAF80460CDE9E9
:101DF000223200F3B6800AF1080A059A6B78324461
:101E00000592002B00F0B680002367788DF86730CC
:101E10001A46194606939B4604F101094FF0FF3616
:101E200009F10109A7F12003582B00F20283DFE832
:101E300013F0DA0200030003E202000300030003D0
:101E40000003000300032902BC020003B702C10221
:101E50000003C000B100B100B100B100B100B10099
:101E6000B100B100B1000003000300030003000350
:101E7000000300030003000300039D02510200035E
:101E8000510200030003000300034C02000300039F
:101E9000680000030003000300030003590000036F
:101EA00000033402000300030003000300030003E7
:101EB0000003000300030003AE017401510251024C
:101EC00051026F01740100030003620100034C0121
:101ED0006A001C0117010003ED0000035B00000312
:101EE0000003C5004BF0100B1BF0200F00F0928296
:101EF000099C073424F00703F3E802450993012302
:101F0000C3E04BF0100B1BF0200300F07982099C1A
:101F1000073424F00703F3E8024509930023B4E0F3
:101F20000499089801F0C4F9002841F01381049B3A
:101F30009B8903F01A030A2B7FF42CAF049BB3F99F
:101F40000E30002BFFF626AF23464A460499089828
:101F500001F078F9059019E0B4EB09063FF454AFAD
:101F60003CE721AA0499089804F006FD48B90DF150
:101F7000B80A42E7239B23B10898049921AA04F0E8
:101F8000FBFC049B9B895A0601F1E48005983FB055
:101F9000BDE8F08FA7F13003002019F8017B00EBBA
:101FA000800003EB4000A7F13003092BF5D9069020
:101FB00038E74BF0800B99F8007031E7002A41F0C8
:101FC000B180114B10931BF0200F00F06F81099C22
:101FD000073424F00703F3E8024509931BF0010FCF
:101FE00000F0388254EA050300F0348230238DF883
:101FF00068308DF869704BF0020B022345E000BF9A
:10200000000000000000000030DD0008099C54F8CA
:10201000043B0A9300258DF86750002B00F07F8663
:10202000711C00F05387324629460A9803F090FC51
:10203000002801F059800A9BC31A07932E4623EA11
:10204000E3739DF867800994CDF808B003930B966D
:10205000B8F1000F00F0AD80039B01330393A8E0BB
:102060004BF0200B99F80070DAE6099C54F8043B19
:10207000099447F630021C46B74B1093ADF8682020
:102080004BF0020B0025022378274FF000088DF853
:102090006780721C00F0E2812BF08002029254EA09
:1020A000050240F0D981002E40F01284002B40F050
:1020B000DC841BF00103079300F0498530238DF881
:1020C000B7300DF1B7030A9359E0002A41F032808E
:1020D000099A1BF0200F52F8043B099240F03B850F
:1020E0001BF0100F40F054861BF0400F00F050869C
:1020F000059A1A805CE699F800706C2F03BF99F876
:1021000001704BF0200B09F101094BF0100B87E631
:102110004BF0400B99F8007082E6002A41F01280E3
:102120001BF0200F00F02B81099C073424F00703DB
:102130001946F1E80223099114461D46002A73F15D
:102140000003C0F2F184731C9DF8678008D02BF067
:102150008003029354EA050300F08484DDF808B09C
:10216000002D08BF0A2C80F05484012330340793DB
:102170000DF1B7038DF8B740CDF808B00A93079B6F
:10218000B342B8BF3346039300230B9360E7099C27
:10219000002354F8042B8DF890208DF8673001222D
:1021A00024AB0392099407920A930026CDF808B055
:1021B0000B96029B13F0020302D0039A02320392A1
:1021C000029A239C12F0840B05D1069A0399551AA2
:1021D000002D00F3E8829DF8672072B1229A013247
:1021E00001340DF167000121072ACDE92224CAE953
:1021F000000100F31A830AF1080A6BB1229B013334
:1022000002341AA90222072BCDE92234CAE90012AE
:1022100000F319830AF1080ABBF1800F00F0A881CE
:10222000079BF61A002E00F3EC81029BDB0500F100
:102230004281229B0A9ACAF80020079ACAF8042011
:1022400001331444072B2394229300F34E820AF1A6
:10225000080A029B590705D5069B039A9D1A002D73
:1022600000F3FD82DDE9053203998A42ACBF9B1879
:102270005B180593002C40F0FE81002322930DF1A2
:10228000B80A95E5099B99F8007053F8040B06907D
:102290000028C0F216850993C2E5002A40F056874F
:1022A0002E4B10931BF0200F7FF491AE099B1BF077
:1022B000100F53F8044B099340F02B841BF0400F90
:1022C00000F02784A4B2002588E64BF0080B99F8AB
:1022D0000070A5E5002A40F02987099C073424F006
:1022E0000703B3EC027B55EC174B099325F0004331
:1022F00015938DED147ADDE914014FF0FF32184B80
:102300008DED0C7B06F0FEFA002840F02B844FF098
:10231000FF32134BDDE9140106F0D6FA002840F035
:102320002184002200232046294606F0C3FA002813
:1023300040F03E869DF867800A4A0B4B0321002639
:102340002BF08000472FC8BF1A46039102900A92D3
:1023500007910B967CE600BF30DD00081CDD00080D
:10236000FFFFEF7F0CDD000810DD0008002A40F0C1
:10237000E5864BF0100B1BF0200F7FF4D5AE099BC8
:102380001BF0100F53F8044B099340F0C5831BF06A
:10239000400F00F0C18324B2E51722462B46CDE65C
:1023A00099F800704BF0040B3AE599F8007001229F
:1023B0002B2135E5484610F8017B2A2F00F02387B2
:1023C000A7F13003092B81464FF000063FF62AADF6
:1023D00019F8017B06EB860603EB4606A7F13003EE
:1023E000092BF5D91EE599F8007000297FF418AD86
:1023F0000122202114E54BF0010B99F800700FE544
:10240000099A52F8044B09921BF0100200F0518413
:1024100000253AE6099B1BF0100F53F8044B099373
:1024200000F03F84002501232FE6089802F068F9A8
:1024300094E4002A40F0D685002F3FF49BAD0023A2
:1024400001228DF8673024AB03928DF890700792CB
:102450000A93AAE6022318E6DDF808B0012B3FF440
:102460007FAE022B00F03C822EA900E01146E2086C
:1024700042EA4572E80804F0070305461446303383
:1024800054EA050001F8013C01F1FF32EED11BF0E6
:10249000010F0A9200F0DF82302B00F04B840A9A81
:1024A000CDF808B03023023902F8013C2EAB5B1A9C
:1024B00007930A9163E6652F40F3238100220023EE
:1024C000DDE90C0106F0ECF9002800F02282229BE5
:1024D000BC4ACAF80020013301340122072BCDE9A0
:1024E0002234CAF8042000F39D840AF1080A1B9BD9
:1024F0000E9A239C934280F22483229B119ACAF85D
:1025000000200F9ACAF8042001331444072BCDE9A8
:10251000223400F3F7830AF1080A0E9B5D1E002D9A
:102520007FF797AE102D229ADFF89CB240F37084AB
:102530001026089FDDF8108005E00AF1080A103D1A
:10254000102D40F3658401321034072ACDE922248E
:10255000CAE900B6F1DD21AA4146384604F00CFA7A
:1025600000287FF40EADDDE922240DF1B80AE6E77C
:10257000069B039A9D1A002D7FF752AE102D229ACA
:10258000DFF844B22DDD584653462146CA46BB46C5
:10259000B1464FF01008089C049E074604E0103D29
:1025A000102D03F1080315DD01321031072ACDE9A2
:1025B0002221C3E90078F2DD21AA3146204604F049
:1025C000DBF900287FF4DDAC103D102DDDE9222180
:1025D0002EABE9DC4E46D1469A463B460C465F465A
:1025E0009B4601322C44072ACDE92224CAE900B5D2
:1025F00000F32484079BF61A002E0AF1080A7FF7DD
:1026000014AE102E229ADFF8C0B128DD59462346B9
:10261000BB461025DDF82080049C0F4604E0103EE8
:10262000102E0AF1080A16DD01321033072ACDE90F
:102630002223CAE90075F2DD21AA2146404604F0B2
:102640009BF900287FF49DAC103E102EDDE922237B
:102650000DF1B80AE8DC1C463B465F469B4601325A
:102660003444072ACDE92224CAE900B600F34482A3
:102670000AF1080AD9E521AA0499089804F07CF91E
:1026800000283FF4FAAD7CE421AA0499089804F0EC
:1026900073F900287FF475AC1B9B239C0DF1B80ADD
:1026A000002B40F0D883029B0E9A03F001031343E2
:1026B0003FF4CFAD229A119BCAF800300F9BCAF8A5
:1026C000043001321C44072A2394229200F39E8492
:1026D0000AF1080A0E9B0A9901321C44072ACDE927
:1026E0002224CAE900137FF7B2AD21AA0499089801
:1026F00004F042F900287FF444AC239C0DF1B80AA1
:10270000A7E50E9A229B012A04F1010403F10105B9
:102710000AF1080640F3AF8101230A9ACAF80020A3
:10272000072DCDE92254CAF8043000F345830F9BEE
:10273000119A01351C44072DCDE92254C6E9002326
:1027400000F32E8308366B1C1F46B8460E9F079376
:1027500000220023DDE90C0106F1080A013F06F022
:102760009FF8002840F09B810A9B776001333C442E
:10277000B8F1070F33602394CDF8888000F3B2825C
:1027800006F1100305F1020856469A46129A726045
:1027900014441DABB8F1070F2394CDF88880336043
:1027A0007FF757ADA1E7102D229A31DD5146204623
:1027B000CA464FF01008B14613932E46089C049D5C
:1027C00009E000BF4CDD0008D0D80008103E102EF4
:1027D00001F1080116DD0132C54B1030072ACDE9A1
:1027E0002220C1E90038F1DD21AA2946204604F063
:1027F000C3F800287FF4C5AB103E102EDDE922207F
:102800002EA9E8DC139B354604464E46D1468A463F
:102810000132B7492C44072ACDE92224CAE9001520
:1028200000F3D6820AF1080AD5E421AA049908988F
:10283000139304F0A1F800287FF4A3AB239C139B0F
:102840000DF1B80AD9E421AA0499089804F094F883
:1028500000287FF496AB239C0DF1B80ADCE4102D20
:10286000229B21DD1026089FDDF8108004E0103D3A
:10287000102D0AF1080A17DD01339D4A1034072B89
:10288000CDE92234CAE90026F1DD21AA41463846C5
:1028900004F072F800287FF474AB103D102DDDE9D0
:1028A00022340DF1B80AE7DC0133914A2C44072B9E
:1028B000CDE92234CAE900257FF7D4AC21AA0499D6
:1028C000089804F059F800287FF45BAB239CC9E416
:1028D000012B00F0B583022BDDF808B07FF4C4AD06
:1028E000DDF840C02EAA230904F00F0043EA057367
:1028F00029091C460D461CF8003002F8013D54EA37
:102900000503F0D12EAB9B1A0A92CDF808B00793BD
:1029100035E41B9B002B40F36A820E9B0B9A93427B
:10292000A8BF1346002B1D460EDD229B0A9ACAF84B
:10293000002001332C44072B2394CAF8045022931F
:1029400000F3B5830AF1080A0B9B002DA8BF5B1B9F
:10295000002B1D4600F3F6811B9A0E9B9A4280F2D3
:10296000B581229B1199CAF800100F99CAF804107A
:1029700001330C44072B2394229300F326830AF19E
:10298000080A0B990E9B9142A3EB020380F204828A
:102990001D46002D10DD229ACAF80450DDE90A1008
:1029A000013201442C44072ACAF80010CDE9222440
:1029B00000F38B830AF1080A002DACBF5D1B1D4696
:1029C000002D7FF746AC102D229ADFF828B140F396
:1029D0001F821026089FDDF8108005E00AF1080A22
:1029E000103D102D40F3148201321034072ACDE936
:1029F0002224CAE900B6F1DD21AA4146384603F097
:102A0000BBFF00287FF4BDAADDE922240DF1B80A3E
:102A1000E6E72EABCDF80890C146B0461E4601E071
:102A200004460D460A22002320462946FDF718FEDB
:102A3000303206F8012D00230A2220462946FDF7F0
:102A40000FFE002D08BF0A2CEAD232460A964646EF
:102A5000C846DDF80890CDF808B02EAB9B1A079356
:102A6000FFF78DBB002E40F0EB8200262EAB0796C1
:102A70000A93FFF784BB029AD0073FF54DAE0122BF
:102A80000A99CAF80010072DCDE92254CAF804208B
:102A900000F3288103F102080AF1100A76E6002FFC
:102AA0007FF774AE102FDFF84CB040F3AA832346B3
:102AB0004FF01008DDF820A0049C079D05E00836C3
:102AC000103F102F40F30A8201351033072DCDE956
:102AD0002253C6E900B8F2DD21AA2146504603F090
:102AE0004BFF00287FF44DAADDE922532EAEE7E725
:102AF000C0D80008D0D8000821AA0499089803F08B
:102B00003BFF00287FF43DAA239C0DF1B80AFFF794
:102B10008CBB0025FFF762BAE51722462B46002A38
:102B200073F10003BFF60FAB4FF02D08644265EB65
:102B300045058DF867800123FFF7ABBA4C46FFF7D8
:102B400063B9029BDE073FF5D8ACFFF782BB2EAB23
:102B50000A93FFF714BB059A1046D117C3E9000189
:102B6000FFF726B9DDE90C0102460B4605F0CAFE67
:102B7000002840F02C83741C27F0200500F0A3826D
:102B8000472D00F03F82DDE90C014BF480720029F3
:102B90000292C0F213829DED0C7B8DED167B00231B
:102BA0001393662F00F0B881462F00F0B581452DB4
:102BB00000F04A821FAA1CABCDE9003202211BABF8
:102BC00032469DED160B089800F0A0FC672F0A9086
:102BD000344640F047821BF0010F40F046821B9ABA
:102BE0001F9B0B920A9A472DA3EB02030E9306D16B
:102BF0000B9BD81C02DB9E4280F24B82023F0B9B58
:102C00008DF874705A1E002A1B92B6BFC3F10102E0
:102C10002B232D23092A8DF8753040F3B8820DF14E
:102C200083042046B84D01E008461A4685FB023170
:102C3000D317C3EBA10303EB8301A2EB41013031B6
:102C4000632A00F8011C00F1FF31EDDC3033821EF5
:102C5000DBB2944201F8013C40F2E0820DF17602D1
:102C600001E011F8013B02F8013B8C42F9D10DF172
:102C700085030DF176021B1A13441DAA9B1A1293A9
:102C80000E9A129B012A1344079340F39282079BEA
:102C90000F9A1344079323EAE373039300230B93E0
:102CA00072E11BF0400F18BFA4B200250123FFF70B
:102CB000ECB91BF040031CBF1346A4B20025FFF77C
:102CC000E4B9404206900993FFF76CBB029BDD0715
:102CD0003FF547AE0B990E9B8A42A3EB02035BDDE7
:102CE0001D4669E621AA0499089803F045FE0028CC
:102CF0007FF447A9DDE922340DF1C00A03F1010890
:102D00002EAE43E521AA0499089803F035FE002869
:102D10007FF437A9239C0DF1B80AFFF7FEBB062EFE
:102D2000334628BF062307930393784B09940A93ED
:102D3000FFF73BBA0A9ACDF808B02EAB9B1A07935F
:102D4000FFF71DBA102B229ADFF8C8B140F3258196
:102D50001026089FDDF8108005E00AF1080A103DF2
:102D6000102D40F31A8101321034072ACDE92224B4
:102D7000CAE900B6F1DD21AA4146384603F0FCFD60
:102D800000287FF4FEA8DDE922240DF1B80AE6E769
:102D9000059A1A60FFF70CB80E9A0B99551AF8E5C8
:102DA00021AA0499089803F0E7FD00287FF4E9A818
:102DB000DDE922542EAEC6E421AA0499089803F056
:102DC000DBFD00287FF4DDA8DDE922542EAEAEE461
:102DD00021AA04990898139303F0CEFD00287FF4EC
:102DE000D0A8239C139B0DF1B80AFFF7F4B9229ADF
:102DF0004749CAF80010013201340121072ACDE900
:102E00002224CAF804103FF73FAC0AF1080A47E44D
:102E100001322C44072ACDE92224CAE900B57FF704
:102E200016AA62E421AA0499089803F0A5FD0028D7
:102E30007FF4A7A80DF1B80AFFF759BB21AA04999E
:102E4000089803F099FD00287FF49BA8239C0DF1BE
:102E5000B80AFFF7E5B9229A1199CAF800100F993C
:102E6000CAF8041001320C44072A2394229200F37A
:102E7000CD800AF1080A002BBFF62CAC5D4210335E
:102E8000DFF890B080F26C815F461026DDF810808C
:102E9000DDF820B005E00AF1080A103D102D40F3DE
:102EA0005E8101321034072ACDE92224CAE9007676
:102EB000F1DD21AA4146584603F05EFD00287FF46B
:102EC00060A8DDE922240DF1B80AE6E70A9803F0CC
:102ED00057FC2E4603460790FFF7B1B81C4605F194
:102EE000010806F108023C44B8F1070F2394C6E933
:102EF00000B7CDF888803FF7F5AE08F1010802F180
:102F0000080A164642E400BF6766666644DD0008AC
:102F10004CDD0008D0D800081FAA1CABCDE9003258
:102F200003211BAB32469DED160B089800F0EEFA1C
:102F30000A900A9B1B78302B00EB060456D01B9B93
:102F40001C4400220023DDE9160105F0A9FC00283D
:102F500000F08E8023460A9A9B1A0E93472D1B9BE6
:102F60000B933FF445AE662F7FF449AE0B9A0BF0FE
:102F70000103002A43EA060340F33681002B40F0A8
:102F800021810B9B03930793139B002B7CD02D2354
:102F90008DF867300026FFF75FB801322C44072A0E
:102FA000CDE92224CAE900B53EDC0AF1080AD3E4DF
:102FB0004FF02D088DF86780FFF7BEB901F100438F
:102FC00017932D2316901393EBE521AA04990898E3
:102FD00003F0D2FC00287EF4D4AF1B9A239C0DF1A1
:102FE000B80ACEE48DF86710FFF726BA0022002356
:102FF000DDE9160105F054FC0028A0D1C6F101035B
:103000001B939DE7002E08BF0126BCE521AA049969
:10301000089803F0B1FC00287EF4B3AF1B9BDDE9F8
:1030200022240DF1B80A26E721AA0499089803F092
:10303000A3FC00287EF4A5AF239C0DF1B80A8BE415
:10304000DDF808B0FFF791B81FA91CAB741CCDE9DF
:10305000003122461BAB02219DED160B089800F0B3
:1030600055FA0A90472F3FF4B6AD0A9B1C4468E717
:103070001F9BA342BFF46FAF30215A1C1F921970DF
:103080001F9B9C42F9D866E79DF86780139EFEF768
:10309000DFBF0E9B19460B9B994230DC1BF0010FE2
:1030A0007ED123EAE3720392079367276CE721AA94
:1030B0000499089803F060FC00287EF462AF239C1A
:1030C0000DF1B80A40E406265DE521AA04990898A6
:1030D00003F052FC00287EF454AF1B9B0E9A239CF5
:1030E000D31A0DF1B80A67E40396079609940646C9
:1030F000CDF808B00B909DF86780FEF7A9BFDDE919
:103100000E3213440B9A0793002A06DC0B9B079A96
:10311000C3F101031A441346079223EAE3730393AE
:10312000672731E78DF86710FEF74BBF8DF8671002
:10313000FFF7D3B88DF86710FEF7CABF8DF8671098
:10314000FFF717B98DF86710FEF7EABF8DF8671023
:10315000FFF7A6B84FF0FF330593FEF717BFBB4646
:1031600001322C44072ACDE92224CAE900B57FF7B1
:10317000AFAA21AA0499089803F0FEFB00287EF468
:1031800000AFDDE922240DF1B80AFFF7A3BA30231E
:1031900030328DF8763004238DF8772012936FE566
:1031A0000B9B0F9A1344079323EAE3730393672758
:1031B000EAE61BF001020B927FF469AD23EAE373A8
:1031C0000393E1E60F9BD31833440793F6E70D9B77
:1031D000144A002BB6BF4FF02D089DF867808DF87C
:1031E0006780114BFFF7AAB81BB90123039307931C
:1031F000CAE60F9B01333344079323EAE373039337
:10320000C2E652466FE6099B99F8017053F8046BC9
:103210000993814646EAE676FEF702BE0223129340
:103220002EE500BF14DD000818DD000810B4044CC2
:1032300013460A46014620685DF8044BFEF778BD48
:1032400000000020F0B50C46ADF26C4D8989666E29
:10325000E589199621F00201666AADF80E50002545
:10326000E769ADF80C10099606951AAE4FF4806523
:103270006946009604960295059507970646FEF75F
:1032800057FD051E07DB3046694601F033F900287B
:1032900018BF4FF0FF35BDF80C305B0603D5A3898E
:1032A00043F04003A38128460DF26C4DF0BD00BFF2
:1032B00038B5324B1B6805460C460BB19A6B12B3FE
:1032C000B4F90C2093B2180725D5206900282DD019
:1032D00013F0010207D0636900225B42A361A26080
:1032E00038B1002038BD990758BF6269A260002834
:1032F000F7D1B4F90C301A06F4D543F04003A3819A
:103300004FF0FF3038BD184601F0FAF9B4F90C203F
:1033100093B21807D9D4D90628D5580712D42069F2
:1033200042F00803A3819BB20028D1D103F420729C
:10333000B2F5007FCCD02846214601F0E7FFA389F3
:103340002069C5E7216B51B104F14003994204D0D3
:10335000284601F045FAB4F90C200023236300232A
:103360002069636022F024022060D9E742F0400225
:1033700009232B604FF0FF30A28138BD00000020F0
:10338000F0B4184C2568D5F8484114B365681F2D72
:1033900024DC38B9AB1C0135656044F823100020EB
:1033A000F0BC704704EB85060127C6F8882007FAB1
:1033B00005F2D4F88871022847EA0207C4F8887138
:1033C000C6F80831E6D1D4F88C311A43C4F88C2100
:1033D000E0E705F5A674C5F84841D7E74FF0FF30A0
:1033E000DEE700BF68D800082DE9F04F03690F69D8
:1033F000BB4283B0C0F28680013F01F1140600F1A8
:10340000140A56F827305AF82720BC0001330094DC
:1034100006EB04099A425444B2FBF3F801943AD300
:1034200000252A46B646D4465EF8044BDCF8003048
:103430001FFA84FB08FB0B554FEA154B240C08FBC5
:1034400004B4ADB2551BA2B2C2EB134215FA83F31A
:1034500002EB23429BB243EA0243F1454FEA144593
:103460004CF8043B4FEA2242DED2009B5AF803306C
:103470008BB9019A131F9A450CD252F8043C4BB9F0
:10348000A2F1080302E01A68043B1AB99A4507F151
:10349000FF37F8D30761044602F044FD00282DDB16
:1034A00008F101085046002356F8041B05688AB24B
:1034B0009A1A0B0C12FA85F2C3EB154303EB224365
:1034C00092B242EA0342B14540F8042B4FEA23434B
:1034D000EAD25AF827200AEB87037AB91A1F9245D5
:1034E0000BD253F8042C42B9083B02E01A68043BA3
:1034F0001AB99A4507F1FF37F8D32761404603B060
:10350000BDE8F08F002003B0BDE8F08F2DE9F04F4B
:1035100057EC106B97B0056C209C039182460A9281
:103520000793CDE9006755B1426C6A60012393406F
:10353000AB60294602F086FA0023CAF840303E1EEE
:10354000B4BF012300232360754BBCBF26F00046A7
:103550000196B34300F0AE809DED007B0022002376
:1035600051EC170B8DED047B05F09AF9054678B107
:10357000079A01231360219B002B00F01083694BF5
:10358000219A1360013B0293029817B0BDE8F08FB7
:10359000DDE9047814AA15A948EC107B504602F026
:1035A000F5FD340D834640F09B80DDE914542C4436
:1035B00004F23243202B40F3BA83C3F140039E4010
:1035C000009B04F2124023FA00F03043FCF77EFF28
:1035D000A1F1F87301210246013C0E9110461946F3
:1035E0000022514BFCF734FE47A3D3E9002304F03B
:1035F000EFFE47A3D3E90023FCF72CFE0646204646
:103600000F46FCF773FF44A3D3E9002304F0E0FE68
:1036100002460B4630463946FCF71CFE06460F466E
:1036200005F086F90022814600233046394605F030
:1036300041F9002840F0A6822C1BB9F1160F04F1C5
:10364000FF3800F29382394B03EBC903D3E900231F
:10365000DDE9040105F02EF900286DD00023B8F152
:10366000000F09F1FF390D93C0F286820023099300
:10367000B9F1000F66DA099BCDF81890A3EB0903A6
:103680000993C9F100030C93039B092B4FF0000928
:1036900060D8052B40F34983043B03930024039B2C
:1036A000023B032B00F25186DFE813F06804650447
:1036B0003E045804079A42F20F731360009BC6F34E
:1036C0001306334318D1219B002B00F03586184B8D
:1036D00002930833219A0298136017B0BDE8F08F67
:1036E000C8F3130141F07F530E953A46A4F2FF341C
:1036F00043F44013149D71E7219B002B40F0038499
:103700000C4B029340E700BF61436F63A787D23F32
:10371000B3C8608B288AC63FFB799F501344D33FC0
:103720000000F07F4DDD00080000F83F00DA0008DF
:1037300054DD000850DD0008B8F1000FC0F2BE846F
:103740000D90099000230C93039BCDF81890092B42
:10375000C8449ED9002301240393CDE90A344FF0D5
:10376000FF3308930021089BCAF844100F9350467A
:1037700002F042F90290002800F0F085029BCAF89E
:103780004030089B0E2B00F20A81002C00F00781CC
:103790000699002940F36884B14B01F00F0203EB56
:1037A000C20393ED007B0C11E2068DED107B40F11E
:1037B0000884AC4BDDE90401D3E9082304F032FFAF
:1037C000CDE9000104F00F0403267CB1DDE910010E
:1037D000A44DE30704D5D5E9002304F0F9FD013633
:1037E000641005F10805F4D1CDE91001DDE900010F
:1037F000DDE9102304F016FFCDE900010D9B53B164
:10380000DDE900450022984B2046294605F052F894
:10381000002840F027853046FCF768FEDDE90023EC
:1038200004F0D6FD914B0022FCF714FD089B0446E2
:10383000A1F15075002B00F0FB83069B1293089BAF
:103840001093DDE900673946304605F071F80090C5
:10385000FCF74CFE02460B4630463946FCF7F8FCB6
:103860007F4B009A0F461099064603EBC1030B9855
:1038700002993032CDE90045D5B24C1C53E9022300
:10388000002800F097840020794904F0CBFEDDE9A0
:103890000023FCF7DDFC029B32461D703B46CDE960
:1038A000000105F025F8002840F0D48432463B465C
:1038B00000206D49FCF7CCFC02460B46DDE9000117
:1038C00005F016F8002840F03285109B012B62D0DD
:1038D000029ACDF840901344CDF84C80DDE9008980
:1038E000CDF800B0D3469A460EE032463B46002063
:1038F0005D49FCF7ADFC42464B4604F0DBFF002877
:1039000040F0EE8454453FD0404649460022594B92
:1039100004F05EFD0022574B80468946304639460A
:1039200004F056FD0F46064605F002F80546FCF782
:10393000DDFD02460B4630463946FCF789FC303542
:10394000EDB204F8015B42464B4606460F4604F0D2
:10395000B1FF0028C9D0129BDA460133DDF800B070
:1039600006935946504602F06DF800232370079BDA
:103970001A46069B1360219B002B3FF405AE02986C
:103980001C6017B0BDE8F08FDA46DDF84090DDF836
:103990004C80DDF800B0DDE90434CDE90034159B3E
:1039A000002BC0F2C680069A0E2A00F3C2802C4B70
:1039B00003EBC203D3E900890A9B002B17DA089FA7
:1039C000002F14DC40F04D8300222B4B404649462B
:1039D00004F0FEFCDDE9002304F080FF002800F085
:1039E000C483089F3D460A9B029CDB435FE2DDE9FE
:1039F000004542464B462046294604F013FE04F09B
:103A000097FF06460090FCF771FD42464B4604F0D6
:103A1000DFFC02460B4620462946029C35463035DF
:103A2000FCF716FC069E04F8015B089D0136012D8B
:103A300002460B46069652D000220E4B04F0C8FCFC
:103A40000022002306460F4604F02AFF002888D1F2
:103A5000CDF800B00125DDF820B0CDF80CA01AE0BB
:103A600000DA0008F0DA00080000F03F00001C4017
:103A70000000E03F00002440000014400022B94B49
:103A800004F0A6FC0022002306460F4604F008FFBF
:103A9000002840F0608342464B463046394604F0E9
:103AA000C1FD04F045FF8246FCF720FD42464B462F
:103AB00004F08EFC02460B4630463946FCF7C8FB44
:103AC00001350AF13006AB4502460B4604F8016B9E
:103AD000D4D1DDF800B0CDF800A0DDF80CA0104680
:103AE0001946FCF7B7FB42464B4606460F4604F024
:103AF000FFFE60B942464B463046394604F0D0FEE0
:103B000000283FF42EAF009BD9077FF52AAF14F8A9
:103B1000015C029A631E04E09A4200F0C98313F824
:103B2000015D392D03F10104F6D06A1CD2B21A707E
:103B300017E70B9A002A38D0039A012A40F35682DD
:103B4000089B5E1E0C9BB342C0F235829E1B089BF5
:103B5000002BC0F20583099A14461A44984409922E
:103B60000121504602F070F8054621E00123B8F12A
:103B7000000F0D93BFF67AADC4F1010309934FF026
:103B8000000875E54846FCF7B1FC32463B4604F0B8
:103B900087FE00287FF450AD09F1FF394CE5724BE8
:103BA0000293029817B0BDE8F08F0C9E099C0B9D04
:103BB000002C0CDDB8F1000F09DD4445099A2346BD
:103BC000A8BF4346D21A0992E41AA8EB03080C9B3B
:103BD000D3B10B9B002B00F08F81002E10DD294606
:103BE0003246504602F0ECF85A4601460546504629
:103BF00002F040F859460746504601F023FFBB4605
:103C00000C9B9A1B40F079810121504602F01CF870
:103C1000B9F1000F074600F39080039B012B40F39E
:103C2000778100260120B9F1000F40F091804044D7
:103C300010F01F0077D0C0F12003042B40F38083E5
:103C4000C0F11C00099B0344099304448044099B70
:103C5000002B05DD59461A46504602F0FDF8834612
:103C6000B8F1000F05DD39464246504602F0F4F83F
:103C700007460D9B002B40F02481089B002B40F34E
:103C8000FB800B9B002B7FD1069B01330693029C8C
:103C9000DDF82080012607E0594600230A2250461D
:103CA00001F0DAFE0136834639465846FFF79CFBA1
:103CB000B04500F1300004F8010BEDDC03464FF095
:103CC0000009594601225046009302F0C5F83946D2
:103CD000834602F027F9002814F8012C40F378817C
:103CE000631E029904E0994200F08D8113F8012DC2
:103CF000392A03F10104F6D001321A7039465046D0
:103D000001F0A0FE002D3FF42CAEB9F1000F05D05C
:103D1000A94503D04946504601F094FE2946504635
:103D200001F090FE1DE61C208CE70124B7E4C3F1EE
:103D30002006009B03FA06F048E401464A46504636
:103D400002F03EF8039B012B074640F3B9810026A1
:103D50003B6907EB8303186901F026FFC0F12000DF
:103D600065E700BF000024404CDD00082946002321
:103D70000A22504601F070FE0F9B002B054640F3CF
:103D8000CE82CDF818800893002C00F30D81002E10
:103D900040F0CA81A846009B0399029E03F00102ED
:103DA0000B920A430A92089A731E1A4409923946E2
:103DB0005846FFF719FB29460090584602F0B2F822
:103DC000424681463946504602F0C8F8009BC26818
:103DD00004463033002A41D101465846089302F088
:103DE000A1F821460490504601F02CFE049A089B4D
:103DF0001AB90A99002900F07A82B9F1000F06F188
:103E00000104C0F27481039941EA09090B9951EA4E
:103E1000090100F06C81002A00F3A981099A33702E
:103E2000B24200F0B081594600230A22504601F008
:103E300013FE4545834629464FF000034FF00A0222
:103E4000504613D001F008FE4146054600230A22E1
:103E5000504601F001FE26468046A8E7014650463E
:103E6000049301F0EFFD0122049BC6E701F0F4FD8D
:103E70002646054680469AE7039B022B40F3818045
:103E8000089B002B7FF4AFAD39460522504601F068
:103E9000E3FD01460746584602F044F800287FF744
:103EA000A2AD029C069B312204F8012B01330133A1
:103EB00039465046069301F0C5FD002D7FF42EAF24
:103EC0004FE53946584602F02DF80028BFF6D5AE2A
:103ED000594600230A22504601F0BEFD069B03F11D
:103EE000FF380B9B8346002B7FF440AF0F9B002BCA
:103EF00040F30A820893CAE60C9A5946504601F0EC
:103F00005FFF834680E6A54B02930333FFF7E2BBD6
:103F1000DDE9001200297FF484AEC2F31303002B05
:103F200000F0D980009E7DE601230B930A9D002DB1
:103F300049DD0F9508950021172DCAF844107FF729
:103F400016AC012204235B0003F11400A8421146C1
:103F500002F10102F7D9CAF8441008E401230B93D7
:103F60000A9B069A13440F930133012B1D460893B5
:103F7000B8BF0125DFE700230B93F1E700230B9384
:103F8000D4E70B9B002B7FF4FFAE39465846FFF772
:103F90002BFA069A029C00F130030132069204F8D3
:103FA000013B4FF000098CE629462246504601F0BD
:103FB00053FF0546EBE60C9B0C96F31A994400263A
:103FC000C5E5022601E401230A930893FFF7CABB63
:103FD00003D1009BDB073FF583AE631E01E013F8BE
:103FE000012D302A03F10104F9D087E60E9A002A48
:103FF00000F0CF8003F23343099A0C9E14461A4412
:1040000098440992ACE5069A01320692029A31234D
:10401000137073E63046FCF769FADDE9002304F01B
:10402000D7F900225E4BFCF715F90446A1F1507553
:1040300000225C4BDDE90001FCF70AF922462B4621
:1040400006460F4604F054FC002840F08D802246BE
:1040500005F100433046394604F02CFC00283FF4BB
:104060009AAC00273D46BEE400F0F980069B5C4216
:104070004D4B04F00F0203EBC203D3E90023DDE94B
:10408000040104F0A5F92411CDE9000100F0E78056
:10409000464D00230226E70705D5D5E9002304F0A5
:1040A00097F901360123641005F10805F3D1002BBF
:1040B0003FF4A4ABCDE90001FFF7A0BB0D905BE599
:1040C000009B002B7FF443AEDDE90012C2F3130323
:1040D000002B7FF43CAE364E1640002E3FF4A2ADCE
:1040E000099B0133099308F1010801269AE5069915
:1040F000002A01F10101069112DD594601225046C4
:10410000039301F0A9FE3946834601F00BFF002816
:10411000039B40F3DF80392B00F0D180009B3133CB
:10412000A94633704546E9E56968504601F064FCEC
:104130000446002800F019812B6902339A0005F12A
:104140000C010C30FCF756FC21460122504601F0D0
:1041500083FE80461FE6DDF800B0DDF80CA000E429
:10416000DDE908239C1AFBE400273D4699E6069A00
:10417000392B02F10102069200F0A1800133A94619
:1041800033704546BAE5069A0132A946069245467D
:1041900097E5149BC3F136032EE700BF50DD0008FE
:1041A00000001C400000144000DA0008F0DA0008AB
:1041B0000000F07FDDE9000104F00AF9029B1D70A8
:1041C000109B012BCDE9000123D0109B029ACDF862
:1041D00040901344C146984600226D4B3046394604
:1041E00004F0F6F80F46064604F0A2FB0546FCF77D
:1041F0007DF9303502460B4630463946FCF728F843
:1042000004F8015B444506460F46E5D1C846DDF893
:104210004090604B0022DDE90001FCF71BF83246BC
:104220003B4604F047FB00284ED1DDE90023002087
:104230005849FCF70DF832463B4604F059FB00287C
:104240003FF4A9AB00E0144614F8013C302B04F114
:10425000FF32F8D0129B01330693FFF782BB022690
:10426000FFF7CCBA089B002B3FF4D4AE0F9F002F72
:104270007FF791AB0022464B2046294604F0A8F870
:1042800004460D46701CCDE90045FCF72FF9224687
:104290002B4604F09DF8404B0022FBF7DBFF069B0A
:1042A0001097013B0446A1F150751293FFF7C9BA6C
:1042B000069A0132069231221A70FFF752BB392258
:1042C000A946327045460BE5129B0133069314F85C
:1042D000015C1EE47FF424AFDA077FF521AF1AE713
:1042E000129B0133DA460693DDF800B011E4069A1A
:1042F000392B02F10102069206F10104DFD0B9F177
:10430000000F3FF70BAF0BE7039B022B02DCCDF84E
:1043100018803AE60F9B0893CDF81880B0E5039B10
:10432000022BF7DC0F9BCDF8188008932CE5129B2D
:1043300001330693FFF7EDBB184B0293FFF724B947
:104340003FF485ACC0F13C007CE40024CAF8444052
:104350002146504601F050FB029068B9104B1148BD
:1043600000224FF4D57103F079F902460C4B0D4849
:1043700040F2EA2103F072F94FF0FF330893029AFA
:104380000F930123CAF840200A940B93FFF707BB51
:10439000000024400000E03F00001C4054DD000805
:1043A00060DD000874DD0008B1F90C309AB22DE927
:1043B000F0410C461107804648D4626843F400631C
:1043C000002AA3815DDDA56A002D57D000229BB293
:1043D000D8F80060E169C8F8002013F4805254D185
:1043E00001234046A847431C66D0A389A56AE1691A
:1043F0005F0705D56268236B801A0BB1E36BC01AA7
:10440000024600234046A847451C48D1D8F8002062
:10441000B4F90C30002A5CD01D2A01D0162A64D1D0
:1044200022690021C4E9002123F40063A381216BE8
:10443000C8F8006011B304F14003994202D040462D
:1044400000F0CEF900202063BDE8F0812669AEB10E
:104450002568266091070CBF63690023AD1BA3602C
:104460000AE02B463246676AE1694046B8470028B1
:10447000A5EB000506440ADD002DF2DC0020BDE8B6
:10448000F081E26B002A9EDCF8E7206DB0E7A3899B
:1044900043F04003A3814FF0FF30BDE8F081B4F951
:1044A0000C302269226023F4006300226260DA0487
:1044B000A381BCD52065BAE7D8F80030002B94D092
:1044C0001D2B0FD0162B0DD0A38943F04003A381E1
:1044D000D5E723F400632169A381DB04C4E900125A
:1044E000A5D5E7E7C8F80060C8E743F04003A3811B
:1044F000C5E700BF10B5044682B008B1836B23B195
:10450000B1F90C0048B902B010BD019100F0F8F803
:104510000199B1F90C000028F5D0204602B0BDE8A1
:104520001040FFF741BF00BF20B1054B014618689E
:10453000FFF7E0BF034B0449186800F071BA00BFF1
:104540000000002068D80008F544000800207047EB
:10455000014900F065BA00BF297700082DE9F84F3E
:1045600045682C4BC3630024074600F53B720423C7
:104570000321C0E9B912C0F8E0422146EB6005F121
:104580005C006C66C5E90044AC60C5E90444AC61FC
:104590000822FCF7C9FADFF888B0BE68DFF884A00B
:1045A000DFF88490DFF884801B4BC5F82C80C5E9C8
:1045B000075BC5E909A92146F360082206F15C0002
:1045C0007466C6E90044B460C6E90444B461FCF70B
:1045D000ABFAFD68114BC6F82C80C6E9076BC6E93B
:1045E00009A92146EB606C66C5E90044AC60C5E9E9
:1045F0000444AC6105F15C000822FCF795FA012344
:10460000C5E9075BC5E909A9C5F82C80BB63BDE80E
:10461000F88F00BF51450008090001001200020098
:10462000E16300080964000849640008696400083F
:104630000020704770B54A1E682505FB02F50E463E
:1046400005F1740100F0ACFE044640B100210C30CD
:10465000666005F168022160A060FCF765FA2046FB
:1046600070BD00BF1F4B70B51D68AB6B06464BB3EA
:1046700005F53875D5E90134013B05D51EE0013B50
:104680005A1C04F1680419D0B4F90C20002AF6D1A0
:104690000025154B6566C4E90055A560C4E90455BD
:1046A000A5612946E360082204F15C00FCF73CFAAE
:1046B000C4E90C55C4E91155204670BD2C682CB1D5
:1046C0002546D7E72846FFF749FFD1E704213046C2
:1046D000FFF7B0FF044628600028F1D10C233360B7
:1046E000EAE700BF68D800080100FFFF024B03495A
:1046F000186800F095B900BF68D80008297700084D
:10470000836B03B1704729E7704700BF704700BF54
:10471000704700BF704700BF024B0349186800F0A4
:1047200059B900BF000000204D450008024B034965
:10473000186800F04FB900BF0000002031460008A3
:10474000F8B5244F0C46064601F052F9BB685D6887
:10475000C4F57E610F3125F00305294421F47F6102
:1047600021F00F01A1F58054B4F5805F07DB002133
:10477000304601F01DFEBB682B44984204D0304601
:1047800001F038F90020F8BD6142304601F010FE1A
:1047900001300DD0104BBA6819682D1B45F001058A
:1047A0003046091B5560196001F024F90120F8BD5D
:1047B0000021304601F0FCFDBA68831A0F2BDEDDC4
:1047C000064C0549246843F00103001B5360086050
:1047D000D5E700BFA0050020E0090020A8090020BF
:1047E00000295ED0F8B50F46064601F001F957F8EA
:1047F00004CC754D2CF00103A7F10800C218A9687C
:104800005468914224F0030400F084801CF0010FEE
:10481000546002EB040133D157F808EC4968A0EB6F
:104820000E0005F1080C87686745734401F001012B
:1048300060D0D0F80CE0C7F80CE0CEF80870002982
:1048400000F08D8043F0010141601360B3F5007FFB
:1048500030D2DB08591C6C689A1001239340234323
:1048600005EBC10255F831406B60083AC0E90242DD
:1048700045F83100E0603046BDE8F84001F0BAB8D4
:104880004968C9070ED4234405F1080C91686145B5
:1048900043F001046BD0D268CA6091604460C35099
:1048A000D4E7704743F00101B3F5007F47F8041CDB
:1048B0001360CED35A0A042A46D89A0902F139075E
:1048C000FF0002F13801EC19EA59083C944255D036
:1048D000516821F00301994202D992689442F7D1BC
:1048E000D468C0E90224A060D0603046BDE8F8403A
:1048F00001F080B8002962D1D2E90221234443F0BB
:104900000104D1608A604460C3503046BDE8F8407D
:1049100001F070B81CF0010F234407D157F8082CA0
:10492000801A1344D0E90212CA609160274A1268C3
:1049300043F001019A424160A8609CD8244B304664
:104940001968FFF7FDFE96E7142A0AD9542A1DD8E4
:104950001A0B02F16F07FF0002F16E01B3E7234467
:1049600094E702F15C07FF0002F15B01ABE7C5E9E8
:104970000400C0E902CC4460C3507CE76B68891036
:10498000012707FA01F119436960AAE7B2F5AA7F86
:1049900006D8DA0B02F17807FF0002F1770192E7FF
:1049A00040F254518A4206D89A0C02F17D07FF006A
:1049B00002F17C0187E74FF47E777E2183E743F0A5
:1049C00001014160136056E7A0050020AC090020FA
:1049D000DC0900202DE9F04110F538771BD088461E
:1049E0000026D7E90154013D0FD4A389012B05F11D
:1049F000FF3506D9B4F90E300133204601D0C04747
:104A000006436B1C04F16804EFD13F68002FE8D126
:104A10003046BDE8F0813E463046BDE8F08100BF3B
:104A20002DE9F84310F538771FD0884606464FF039
:104A30000009D7E90154013D11D4A389012B05F1E7
:104A4000FF3508D9B4F90E3001332146304602D083
:104A5000C04749EA00096B1C04F16804EDD13F68C6
:104A6000002FE6D14846BDE8F883B9464846BDE880
:104A7000F88300BF2DE9F04106694D11AE422EDDED
:104A800000F1140711F01F0107EB860C07EB8503FB
:104A90002BD057F8252004339C4522FA01F4C1F1AC
:104AA000200818D9BE461A6802FA08F222434EF8C6
:104AB000042B53F8044B9C4524FA01F4F3D8731BE0
:104AC0009B00053B9B08013307EB830547F8234018
:104AD000CCB1043517E044613D46002CF9D10023E8
:104AE000036100234361BDE8F0819C4588BF00F16C
:104AF0001002F4D953F8041B42F8041F9C45F9D85E
:104B0000751B07EB8505EB1B9B10BD420361E8D0CD
:104B1000BDE8F0812DE9F04FBC4C8DB024680890C1
:104B20008946204605920A93069401F029FED9F899
:104B30000030049021189A7811F8011C0191302A54
:104B400040F0E5816FF00101C91A033301EB030A5C
:104B50001C4613F8012B302AF8D0AD4FBB5C002B5C
:104B600000F0F98023784FF00008FB5C45462646AC
:104B700023B116F8013FFB5C002BFAD1049A069989
:104B8000304601F06BFE0290002800F099803378E7
:104B9000002D40F098810295502B00F09B80702BE7
:104BA00000F098803546C9F80060B8F1000F40F079
:104BB000C0802B1B013B072B414604DD5B10072BFC
:104BC00001F10101FADC089800F016FF03900028BB
:104BD00000F03F82039BAC4203F11403099380F081
:104BE000C5819B46049B0026C3F10103B146079390
:104BF0000FE0202E00F0A6803246043615F8013C66
:104C0000FB5C554603F00F039340A54249EA0309B4
:104C100018D915F8013C019A934205F1FF3A0BF1BE
:104C20000408E6D1079B5344A342E2D31846049AF2
:104C300006990B9301F012FE0B9B0028D9D11D465B
:104C4000A542E6D8099B039ACBF80090A8EB03088D
:104C50004FEAA803136148464FEA431800F0A4FF47
:104C6000059B1C68A8EB0000A04200F3AE80C0F2D8
:104C70002E810026059B029A9B689342C0F26B81AD
:104C80000598029A4368934240F382809D1AAC4291
:104C900000F3C080C268022A00F09D81032A00F060
:104CA0009581012A00F079810898039900F0CAFEE5
:104CB0005025169A0023284613600DB0BDE8F08FEA
:104CC000002D00F01381AD1BAB0002933378502B05
:104CD0007FF465AF73782B2B00F0F3802D2B70D011
:104CE000711C0025FB5C5A1E182A3FF65BAF4A7800
:104CF000BA5C501E1828A3F1100301F101010BD872
:104D000011F8010F03EB830302EB43033A5C501EDF
:104D10001828A3F11003F3D905B15B42029A354676
:104D20001A440E460292C9F80060B8F1000F3FF431
:104D300040AFBAF1000F14BF0025062528460DB07C
:104D4000BDE8F08F5B46002243F8089BC3469146BE
:104D50009846042652E7049D06992A46204601F00B
:104D60007DFD002874D1625DBB5C6619002B71D09B
:104D7000302A344604D114F8013F302BFBD0FB5CC1
:104D8000B3FA83F835464FEA58184FF0010AEEE6B9
:104D9000012556B1059BDB68022B62D0032B64D042
:104DA000012B00F0858045F01005169B1A46039BE9
:104DB00013600A9B1A46029B136028460DB0BDE89B
:104DC000F08F0125B378B11C8CE7039F051B2946A2
:104DD000384601F0B9FA064678B16A1E099E5111AB
:104DE00002F01F0356F82110012606FA03F30B42C6
:104DF00003D0B24200F3C8800226DDE90230294622
:104E00002B440293FFF736FE34E700BFE0D90008D9
:104E1000E0D800086F1E002E40F0A680002F40F062
:104E2000AD807B11099A039852F8232007F01F07E1
:104E3000012303FA07F71742294618BF46F0020676
:104E4000FFF718FE059B5B680293641B0225A0E731
:104E500022782646502A5ED0702A5CD0C9F80060BD
:104E600067E7179BC3F101031793179B002B9AD099
:104E7000039BDDF824C01E69B7000CEB07006346F6
:104E8000002103E0984243F8041C49D99E4653F898
:104E9000042BB2F1FF3FF5D00132022DCEF80020F5
:104EA00000F09E8014F01F0440F0BC8021257CE7B8
:104EB000B2077FF578AF099B1B681E43F307D7D471
:104EC00071E700257EE7AD1BAA00029264E6251A71
:104ED000039908982A4600F0BFFF029B03905B1BD2
:104EE00002930346143309930026C3E60499735CC6
:104EF000FA5C71180E46002A3FF44EAE16F8013FD8
:104F0000FA5C002AFAD1891B8A00029244E69C1CB2
:104F10004FF0000A21E6002302934FF00108D9E682
:104F2000039B9B689E4262DA3346039800EB830240
:104F300001210133022D0361516151D09E42B1DA4A
:104F400001210398FFF796FD059B029A9B680132A9
:104F500093420292AADA0399089800F073FD169A18
:104F600000231360A325E9E601265AE7039BDDF839
:104F700024B003F118084FF0000963E6394603989E
:104F800001F0E2F906464CE7A91E384601F0DCF9CB
:104F900000283FF431AF03262FE7AC427FF484AE04
:104FA000012C08D0611E039801F0CEF900283FF4CF
:104FB0007BAE059B5B680A990B60039B09990122F4
:104FC0001A610A60169A62251360B7E6179A002ADA
:104FD0003FF46AAEEFE7179A002A7FF465AEEAE77E
:104FE000059B1B68013BA34227D02225DDE6039BDE
:104FF00008985968013100F0FFFC804678B30399A6
:105000000B6902339A000C310C30FBF7F3FC039967
:10501000089800F017FDCDF80C8008F1140CD8F8B2
:10502000103082E76744C4F1200457F8040C00F004
:10503000BBFDA042BFF63AAF82E7631104F01F0444
:105040005CF823200123A34013420CBF2225212515
:10505000ABE60246054B0648DE2102F0FFFA0246A7
:10506000024B0348842102F0F9FA00BF60DD00081A
:10507000A8DD000830B40468013408E014F8013BEE
:10508000A3F14105192D98BF2033934207D111F8A0
:10509000012B002AF2D10460012030BC70470020AF
:1050A00030BC70472DE9F04F096885B04B1111F005
:1050B0001F01019002EB8303039140F086801D1FC6
:1050C00000930098DFF874910295002340F8043CA7
:1050D00019469A461E469846019BD3F800E09EF872
:1050E0000140AC462B4693460EF10100B4B119F8CD
:1050F0000450002D4BD1202C00F28E80564506DD49
:10510000634501D2072974DD5B4555D808218646E1
:105110009EF801400EF10100002CE8D1029D5A4694
:10512000002E7DD0634513D2072911DCC1F108019F
:1051300089001E68C1F1200E1846476807FA0EF470
:10514000344327FA01F6046040F8046F8445F4D82C
:1051500093423ED9114653F8040B41F8040B9D428B
:10516000F9D2002341F8043BA942FBD9009B53F834
:10517000041C21B158E055F8043D002B54D1AA423B
:10518000F9D1012305202B6005B0BDE8F08F013176
:10519000082906F1010607DC1A68120105F00F055F
:1051A00015431D608646B3E75B45B0D943F8048CD0
:1051B0000022043B0121F1E7A3F1040C43F8048C25
:1051C000B246634600218646A2E7191D00911D469E
:1051D00077E7009C039B54F8041C002BC9D0C3F153
:1051E00020034FF0FF3020FA03F3194044F8041C69
:1051F000BFE7C1F1080189001F68C1F1200E1C46FC
:10520000656805FA0EF23A4325FA01F7226044F880
:10521000047FA445F4D877E7292C029D5A4607D08D
:10522000042005B0BDE8F08F052005B0BDE8F08F83
:10523000019C0EF10200206072E700BFE0D8000878
:1052400042B110B50B491046144601F01DF918B9CA
:10525000094810BD084870470749204601F014F975
:105260000028F5D02046054901F00EF90028EFD0BE
:10527000002010BDECDD0008E8DD000834DE000889
:10528000014B93F82801704734040020024B0A4672
:1052900001461868FFF7D4BF00000020F0307047C7
:1052A000004870472405002000487047240500206E
:1052B00070B50C46B1F90E10002996B015461E4681
:1052C00014DB6A4602F026FB00280FDB019A02F489
:1052D0007042A2F50052B2FA82F252094FF4806392
:1052E0004FF4006032602B6016B070BDA2890023BD
:1052F00012F08000336004D0402218462A6016B0B5
:1053000070BD4FF480632B6016B070BD8A89920720
:105310000B4606D501F1430201211A60C3E90421BD
:10532000704770B582B001AB6A460C460646FFF77F
:10533000BFFF00990546304600F032F8B4F90C3052
:1053400070B11649F163019A0099206043F080031F
:10535000A381C4E904018AB92B43A38102B070BDC3
:105360009A05FBD423F0030304F1430243F0020344
:105370000121A3812260C4E90421EFE73046B4F99A
:105380000E1002F05FFC10B9B4F90C30E4E7A38909
:1053900023F0030343F001031BB2DDE7514500088E
:1053A0002DE9F04F01F10B05162D83B0064623D8E9
:1053B000102900F2B98000F01BFB102518230220F1
:1053C000CD4F3B44A3F108025C68944200F0B980E1
:1053D000636823F003032344D4E902515A68E96067
:1053E00042F0010230468D605A6000F003FB083441
:1053F000204603B0BDE8F08F35F0070500F194803A
:10540000A94200F2918000F0F3FAB5F5FC7FC0F0FC
:105410009D816B0A00F08F80042B00F27381AB0931
:1054200003F1390003F1380CC300B34F3B44A3F13F
:1054300008015C68A14206D10CE0002A80F22B81B1
:10544000E468A14206D0636823F003035A1B0F2AC5
:10545000F3DD60463C69DFF8A4C264457CD0636834
:1054600023F003035A1B0F2A00F37E81002AC7E9A9
:1054700004CC80F26F81B3F5007F80F01A81DB08E5
:10548000591C7A6857F83180C4F808804FF0010E33
:105490009B100EFA03F307EBC10E1343AEF10802A3
:1054A000E2607B6047F83140C8F80C40821001246C
:1054B00094409C4256D81C4206D120F00300640060
:1054C0001C4200F10400FAD007EBC009CE4680462A
:1054D000DEF80C309E4507D120E1002A80F22781BA
:1054E000DB689E4500F01A81596821F003014A1BD0
:1054F0000F2AF2DDD3E9028E5C1945F001055D60EB
:1055000042F00105C8F80CE03046CEF80880C7E943
:105510000444C4E902CC65605A50009300F06AFA72
:10552000009B03F1080402E00C23336000242046B2
:1055300003B0BDE8F08F4FF4007340204FF03F0CF4
:1055400073E7DC68A34208BF02307FF441AF3C69D7
:10555000DFF8A8C1644582D17B68821001249440A1
:105560009C42A8D9BC68636823F00308A84503D30C
:10557000A8EB05030F2B7EDCDFF88491D7F8082415
:10558000D9F80030013204EB080A2B4400F03781CF
:1055900003F580530F3323F47F6B2BF00F0B594629
:1055A000304600F005FF411C024600F0F7808245BE
:1055B00000F2F280D9F804105944C9F804100B46DF
:1055C00000F05381D7F8081401311BBFA2EB0A0A7F
:1055D0005344C7F80824C9F8043012F0070300F058
:1055E0001A81C3F108010A44C3F58051934408317C
:1055F000A1EB0B01C1F30B0A514630460193009217
:1056000000F0D6FE421CDDE9002300F05381831A2E
:1056100003EB0A0BD9F80410BA604BF001035144B4
:10562000BC425360C9F8041000F02B81B8F10F0F91
:1056300040F229816368A8F10C0020F0070003F014
:10564000010304EB000C03434FF0050E0F286360C9
:10565000CCE901EE00F2358153681446D9F82C20CC
:105660008A42D9F8302038BFC9F82C108A4238BF96
:10567000C9F8301094E0621943F0010345F00105C8
:1056800065603046BA60536000F0B4F908342046D3
:1056900003B0BDE8F08F2344E1685A68A56842F082
:1056A0000102E96030468D605A6000F0A3F90834C9
:1056B0003DE75A0A042A69D9142A00F2BE8002F191
:1056C0005C01C9005B3207EB010E7958AEF1080EA0
:1056D0008E4500F097804A6822F003029A4202D970
:1056E00089688E45F7D1D1F80CE07B68C4E9021EC9
:1056F000CEF80840CC60D9E6A0050020A80500201F
:10570000DC090020142B59D9542B00F29E802B0B5E
:1057100003F16F0003F16E0CC30086E608F1010887
:1057200018F0030F0EF1080E7FF4D2AE51E01944C9
:105730001C464A68DB6854F8085F42F001024A6080
:105740003046EB609D6000F055F9F0E6E80805F1A1
:10575000080335E6234430465A6842F001025A6095
:10576000083400F047F9E2E6611945F0010E42F015
:105770000105C4F804E03046C7E90411C1E902CCD0
:105780004D60E25000F036F90834D0E69A0902F193
:105790003901C900383296E7BC4260D0BC68636802
:1057A00023F0030BAB45ABEB050302D30F2B3FF705
:1057B00062AF304600F01EF90024B8E603F15C0049
:1057C00003F15B0CC30030E659F808394B4540F053
:1057D000968010F0030F00F1FF30F5D17B6823EACB
:1057E00004037B6064009C423FF6BCAE1CB9B9E682
:1057F000640008F104081C42FAD0404664E603F154
:10580000100BCCE67B6892104FF0010808FA02F208
:1058100013437B606AE702EB0B014942C1F30B0AB9
:10582000514630460193009200F0C2FD431CDDE971
:1058300000237FF4ECAE9A46ECE6542A26D81A0BE5
:1058400002F16F01C9006E323DE7B3F5AA7F26D899
:10585000EB0B03F1780003F1770CC300E5E5D9F811
:1058600004305B44C9F80430ACE6CAF30B000028EE
:105870007FF4A8AE08EB0B03BC6843F00103636040
:10588000ECE61446EAE60123536092E7B2F5AA7FFC
:1058900021D8DA0B02F17801C900773213E740F220
:1058A0005452934221D8AB0C03F17D0003F17C0CE0
:1058B000C300BAE5083B9B44ABEB020B4FF0000A78
:1058C000A8E604F108013046FEF78AFFBC68D9F863
:1058D00004106368C2E640F254518A420BD89A0C15
:1058E00002F17D01C9007C32EDE64FF47E737F202A
:1058F0004FF07E0C99E54FF47E717E22E3E67B68E3
:1059000070E700BF10B4034CD4F8E440A4465DF83F
:10591000044B60473404002082B049B15AB16BB1E6
:1059200013780B601278101C18BF012002B070476A
:1059300001A9002AF3D1104602B070476FF00100B0
:10594000F4E700BF000000000000000000000000BD
:1059500001F0FF01102A2BDB10F0070F08D010F820
:10596000013B013A8B422DD010F0070F42B3F6D124
:10597000F0B441EA012141EA014122F007047FF03D
:1059800000070023F0E80256083C85EA010586EA94
:10599000010685FA47F5A3FA87F586FA47F6A5FAD0
:1059A00087F68EB9EED1F0BC01F0FF0102F00702DC
:1059B00032B110F8013B013A83EA010313B1F8D187
:1059C0000020704701387047002D06BF3546033868
:1059D000073815F0010F07D1013015F4807F02BFA1
:1059E000013015F4C03F0130F0BC0138704700BFF2
:1059F000704700BF704700BFC36C70B505460C46CA
:105A00004BB153F8240080B1026843F824200023EE
:105A1000C0E9033370BD2122042101F043FE034697
:105A2000E8640028EDD1002070BD012101FA04F6E0
:105A3000721D2846920001F035FE0028F3D0C0E91F
:105A40000146E4E731B1C36C4A6853F822000860AC
:105A500043F82210704700BFF0B50C6983B00D46C3
:105A6000064601F1140C0027DCF8000081B202FBAD
:105A70000133190C000C02FB00109BB2013703EB41
:105A80000043BC424CF8043B4FEA1043ECDC3BB112
:105A9000AA68A24207DD05EB8402013453612C6140
:105AA000284603B0F0BD6968019330460131FFF725
:105AB000A3FF019B0746B8B12A690193023205F1A1
:105AC0000C0192000C30FAF795FFF26C6968019BAB
:105AD00052F82100286042F821503D4605EB84022F
:105AE000013453612C61DBE70246024B0248B521C9
