:020000040800F2
:100000000000032081080008650800086708000850
:10001000690800086B0800086D080008000000006F
:100020000000000000000000000000006F08000851
:100030007108000800000000730800087508000837
:10004000D1080008D1080008D1080008D10800082C
:10005000D1080008D1080008D1080008D10800081C
:10006000D1080008D1080008D1080008D10800080C
:10007000D1080008D1080008D1080008D1080008FC
:10008000D1080008D1080008D1080008D1080008EC
:10009000D1080008D1080008D1080008D1080008DC
:1000A000D1080008D1080008D1080008D1080008CC
:1000B000D1080008D1080008D1080008D1080008BC
:1000C000D1080008D1080008D1080008D1080008AC
:1000D000D1080008D1080008D1080008D10800089C
:1000E000D1080008D1080008D1080008D10800088C
:1000F000D1080008D1080008D1080008D10800087C
:10010000D1080008D1080008D1080008D10800086B
:10011000D1080008D1080008D1080008D10800085B
:10012000D1080008D1080008D1080008D10800084B
:10013000D1080008D1080008D1080008D10800083B
:10014000D1080008D1080008D1080008D10800082B
:10015000D1080008D1080008D1080008D10800081B
:10016000D1080008D1080008D1080008D10800080B
:10017000D1080008D1080008D108000800000000DC
:10018000D1080008D1080008D1080008D1080008EB
:10019000D1080008D1080008D1080008D1080008DB
:0C01A0000000000000000000D108000872
:1001AC000348044B834202D0034B03B118477047FA
:1001BC003C0400203C0400200000000005480649D7
:1001CC000B1AD90F01EBA301491002D0034B03B159
:1001DC00184770473C0400203C040020000000003D
:1001EC0010B5064C237843B9FFF7DAFF044B13B173
:1001FC000448AFF300800123237010BD3C040020A1
:10020C00000000007412000808B5044B1BB104492F
:10021C000448AFF30080BDE80840CFE700000000C1
:10022C00400400207412000853B94AB9002908BFD1
:10023C0000281CBF4FF0FF314FF0FF3000F06CB9BD
:10024C00ADF1080C6DE904CE00F006F8DDF804E021
:10025C00DDE9022304B070472DE9F047089E0D46F6
:10026C0004468E46002B40F082808A42174646D9BF
:10027C00B2FA82F24AB1C2F1200105FA02F320FA75
:10028C0001F1974041EA030E94404FEA1748230CC2
:10029C00BEFBF8FCB9B208FB1CEE43EA0E430CFBA8
:1002AC0001F098420AD9FB180CF1FF3580F0168149
:1002BC00984240F21381ACF1020C3B441B1AA4B2DD
:1002CC00B3FBF8F008FB103344EA034400FB01F1E4
:1002DC00A14209D93C1900F1FF3380F00181A14200
:1002EC0040F2FE8002383C44641A40EA0C40002183
:1002FC001EB1D4400023C6E90043BDE8F08702B923
:10030C00FFDEB2FA82F2002A4FD1CB1B4FEA174E16
:10031C001FFA87F80121B3FBFEFC250C0EFB1C33E6
:10032C0045EA034508FB0CF3AB4207D97D190CF1E8
:10033C00FF3002D2AB4200F2E7808446ED1AA3B242
:10034C00B5FBFEF00EFB105543EA054408FB00F824
:10035C00A04507D93C1900F1FF3302D2A04500F2A9
:10036C00D7801846A4EB080440EA0C40C0E78B4247
:10037C0008D9002E00F0AF800021C6E90005084620
:10038C00BDE8F087B3FA83F100294BD1AB4202D31D
:10039C00824200F2B780841A65EB030301209E466B
:1003AC00002EAAD0C6E9004EA7E7C2F1200C01FA34
:1003BC0002F3974020FA0CF04FEA174E21FA0CFC8E
:1003CC001843BCFBFEF1050C0EFB11CC1FFA87F891
:1003DC0045EA0C4501FB08F3AB4204FA02F409D9D7
:1003EC007D1901F1FF3C80F08B80AB4240F288809C
:1003FC0002393D44EB1A85B2B3FBFEF00EFB103311
:10040C0045EA034500FB08F3AB4207D97D1900F11F
:10041C00FF3C71D2AB426FD902383D44EB1A40EA33
:10042C00014178E7C1F1200C8B4022FA0CF71F43F5
:10043C0020FA0CF405FA01F34FEA174E25FA0CF5E5
:10044C001C43230CB5FBFEF91FFA87F80EFB19555C
:10045C0043EA054509FB08FAAA4502FA01F200FA3B
:10046C0001F308D97D1909F1FF3047D2AA4545D9C6
:10047C00A9F102093D44A5EB0A05A4B2B5FBFEF0B7
:10048C000EFB105544EA054400FB08F8A04507D9BB
:10049C003C1900F1FF352DD2A0452BD902383C4434
:1004AC0040EA0940A4EB0804A0FB02894C45C6466F
:1004BC004D4619D316D05EB1B3EB0E0264EB0504B6
:1004CC0004FA0CFCCA404CEA0202CC40C6E90024F7
:1004DC000021BDE8F087314630460EE7AC46EDE62C
:1004EC00184601E74345E6D2B8EB020E69EB070567
:1004FC000138E0E72846D3E760468FE78146BAE744
:10050C00614677E708464BE7ACF1020C3D4415E732
:10051C0002383C4426E700BF704700BF0023014669
:10052C001A46184600F08EB838B50A4C0A4D641BB2
:10053C00A4100AD004F18043013B05EB8305013C78
:10054C0055F804399847002CF9D1BDE8384000F033
:10055C0091BE00BFB4120008B012000870B50D4E69
:10056C000D4D761BB61006D00024013455F8043B13
:10057C009847A642F9D1094E094D761B00F074FE3E
:10058C00B61006D00024013455F8043B9847A64217
:10059C00F9D170BDA8120008A8120008B01200080A
:1005AC00A8120008F0B4860746D0541E002A3CD08E
:1005BC00CAB2034602E014F1FF3436D303F8012B20
:1005CC009D07F8D1032C29D9CDB245EA05250F2C6E
:1005DC0045EA054533D9A4F11006360903F1200785
:1005EC0007EB061703F1100242E9045542E90255E4
:1005FC001032BA42F8D1721C14F00C0F03EB021239
:10060C0004F00F0613D0331F23F0030304331344F9
:10061C0042F8045B9342FBD106F003042CB1C9B23F
:10062C001C4403F8011B9C42FBD1F0BC70473446C0
:10063C001346002CF3D1F8E714460346C2E71A46DA
:10064C002646E0E7F0B4184C2568D5F8484114B3B9
:10065C0065681F2D24DC38B9AB1C0135656044F886
:10066C0023100020F0BC704704EB85060127C6F868
:10067C00882007FA05F2D4F88871022847EA0207A5
:10068C00C4F88871C6F80831E6D1D4F88C311A4315
:10069C00C4F88C21E0E705F5A674C5F84841D7E706
:1006AC004FF0FF30DEE700BF8C120008F0B589B0C8
:1006BC000024039404940594069407940094214B0D
:1006CC001A6B42F080021A631A6B02F080020092DD
:1006DC00009A01941A6B42F010021A631A6B02F022
:1006EC0010020192019A02941A6B42F020021A63D2
:1006FC001B6B03F020030293029B134F22464FF413
:10070C000061384600F09AFA104D22464FF48041B1
:10071C00284600F093FA4FF40063039301260496E5
:10072C000594069403A9384600F090F94FF48043E1
:10073C00039304960594069403A9284600F086F9C1
:10074C0009B0F0BD00380240001002400014024015
:10075C0072B6FEE700B595B03022002108A8FFF76D
:10076C0021FF0023039304930593069307930193AE
:10077C00204A116C41F080511164126C02F08052CD
:10078C000192019A02931C4B1A6842F440421A607F
:10079C001B6803F440430293029B012308934FF41C
:1007AC008033099302230E934FF480020F9206229A
:1007BC001092A822119212930423139308A800F00C
:1007CC004DFA98B90F230393022304930023059346
:1007DC004FF4A05306934FF480530793052103A8BD
:1007EC0000F088FC20B915B05DF804FBFFF7B0FFF2
:1007FC00FFF7AEFF003802400070004008B500F073
:10080C0089F8FFF7A7FFFFF751FF4FF4804103482A
:10081C0000F01AFAC82000F0A9F8F6E7001402401C
:10082C0082B0002100910B4B5A6C42F480425A6406
:10083C005A6C02F480420092009A01911A6C42F0B8
:10084C0080521A641B6C03F080530193019B02B01D
:10085C00704700BF00380240FEE7FEE7FEE7FEE708
:10086C00FEE770477047704708B500F06DF808BD9B
:10087C0070470000DFF834D00D480E490E4A0023B3
:10088C0002E0D458C4500433C4188C42F9D30B4A38
:10089C000B4C002301E013600432A242FBD3FFF7A0
:1008AC00E7FFFFF75BFEFFF7A9FF7047000003208F
:1008BC00000000203C040020B41200083C0400207E
:1008CC005C040020FEE7000010B504460E4B1878BF
:1008DC004FF47A73B3FBF0F30C4A1068B0FBF3F0EF
:1008EC0000F09EF868B90F2C01D901200AE0002213
:1008FC0021464FF0FF3000F05FF8054B1C600020E4
:10090C0000E0012010BD00BF3404002030040020A2
:10091C003804002008B50B4B1A6842F400721A60B8
:10092C001A6842F480621A601A6842F480721A6083
:10093C00032000F02FF80F20FFF7C6FFFFF770FF22
:10094C00002008BD003C0240034A1168034B1B7891
:10095C000B441360704700BF58040020340400207F
:10096C00014B1868704700BF5804002038B5044686
:10097C00FFF7F6FF0546B4F1FF3F02D0044B1B789E
:10098C001C44FFF7EDFF401BA042FAD338BD00BF5B
:10099C0034040020074AD36823F4E0631B041B0CC7
:1009AC00000200F4E060034343F0BF6343F4003300
:1009BC00D360704700ED00E030B4174BDB68C3F335
:1009CC000223C3F10704042C28BF04241D1D062D8B
:1009DC0018D9033B4FF0FF3505FA04F421EA040162
:1009EC00994005FA03F322EA0303194300280BDBB1
:1009FC000901C9B200F1604000F5614080F80013B4
:100A0C0030BC70470023E5E700F00F000901C9B2C4
:100A1C00024B1954F4E700BF00ED00E014ED00E0C8
:100A2C000138B0F1807F0AD2064B5860064AF0219B
:100A3C0082F823100020986007221A60704701206A
:100A4C00704700BF10E000E000ED00E000230F2B2A
:100A5C0000F2EA80F0B482B05EE086685F000324A6
:100A6C00BC4026EA0406CC68BC403443846046682B
:100A7C0026EA02064C68C4F300129A4032434260E4
:100A8C0058E0DC08083450F8247003F00702960094
:100A9C000F22B24027EA02070A69B2403A4340F8F3
:100AAC0024205BE0092200E00022B2403A430234E9
:100ABC005E4E46F824205E4A9468EA4324EA050612
:100ACC004F6817F4801F01D045EA0406584CA66005
:100ADC00E46802EA04064F6817F4001F01D045EAE7
:100AEC000406534CE660646802EA04064F6817F487
:100AFC00003F01D045EA04064D4C66602468224054
:100B0C004E6816F4803F01D045EA0402484C22603E
:100B1C0001330F2B00F2858001229A400C6804EA05
:100B2C00020532EA0404F3D14C6804F00304013CDE
:100B3C00012C92D94A6802F00302032A09D0C46836
:100B4C005E000322B24024EA02048A68B2402243C7
:100B5C00C2604A6802F00302022A92D004685E0066
:100B6C000322B24024EA02044A6802F00302B240B3
:100B7C00224302604A6812F4403FC9D0002201921D
:100B8C002C4A546C44F480445464526C02F48042F9
:100B9C000192019A9C08A61C244A52F8267003F074
:100BAC00030296000F22B24027EA0207224A904223
:100BBC003FF47AAF02F58062904222D002F5806257
:100BCC00904220D002F5806290421ED002F58062E5
:100BDC0090421CD002F5806290421AD002F58062DD
:100BEC00904218D002F58062904216D002F58062D5
:100BFC00904214D002F5806290423FF453AF0A2227
:100C0C0053E7012251E702224FE703224DE704226A
:100C1C004BE7052249E7062247E7072245E708226A
:100C2C0043E702B0F0BC7047704700BF003801408A
:100C3C00003C014000380240000002400AB18161D2
:100C4C007047090481617047436901EA030221EA94
:100C5C00030141EA0241816170470000002800F065
:100C6C00DF8170B582B00446036813F0010F3BD0EE
:100C7C00A64B9B6803F00C03042B2CD0A34B9B6856
:100C8C0003F00C03082B21D06368B3F5803F4FD0E1
:100C9C00B3F5A02F52D09D4B1A6822F480321A6003
:100CAC001A6822F480221A606368002B50D0FFF778
:100CBC0057FE0546954B1B6813F4003F14D1FFF704
:100CCC004FFE401B6428F5D90320B0E18F4B5B68C5
:100CDC0013F4800FD8D08D4B1B6813F4003F03D056
:100CEC006368002B00F09E81236813F0020F54D030
:100CFC00864B9B6813F00C0F3ED0844B9B6803F023
:100D0C000C03082B33D0E368002B67D0804B0122F7
:100D1C001A60FFF725FE05467C4B1B6813F0020F8B
:100D2C0053D1FFF71DFE401B0228F5D903207EE1AD
:100D3C00764A136843F480331360B5E7734B1A6833
:100D4C0042F480221A601A6842F480321A60ABE7CF
:100D5C00FFF706FE05466D4B1B6813F4003FC3D02E
:100D6C00FFF7FEFD401B6428F5D903205FE1674BBC
:100D7C005B6813F4800FC6D1644B1B6813F0020F31
:100D8C0003D0E368012B40F04F81604A136823F0D5
:100D9C00F803216943EAC1031360236813F0080FB9
:100DAC0040D0636963B35B4B01221A60FFF7D8FD37
:100DBC000546564B5B6F13F0020F33D1FFF7D0FD96
:100DCC00401B0228F5D9032031E1504A136823F067
:100DDC00F803216943EAC1031360DEE74C4B0022A0
:100DEC001A60FFF7BDFD0546484B1B6813F0020F58
:100DFC00D3D0FFF7B5FD401B0228F5D9032016E12F
:100E0C00444B00221A60FFF7ABFD05463F4B5B6F6E
:100E1C0013F0020F06D0FFF7A3FD401B0228F5D9F3
:100E2C00032004E1236813F0040F78D0374B1B6CBC
:100E3C0013F0805F0DD100230193344B1A6C42F0F8
:100E4C0080521A641B6C03F080530193019B0125A3
:100E5C0000E00025304B1B6813F4807F21D0A36881
:100E6C00012B32D0052B36D0284B1A6F22F0010201
:100E7C001A671A6F22F004021A67A368002B34D089
:100E8C00FFF76EFD0646214B1B6F13F0020F45D189
:100E9C00FFF766FD801B41F288339842F3D903209B
:100EAC00C5E01D4A136843F480731360FFF758FDC7
:100EBC000646194B1B6813F4807FD0D1FFF750FD09
:100ECC00801B0228F5D90320B1E0104A136F43F0C0
:100EDC0001031367D1E70D4B1A6F42F004021A6736
:100EEC001A6F42F001021A67C7E7FFF739FD064691
:100EFC00064B1B6F13F0020F10D0FFF731FD801B58
:100F0C0041F288339842F3D9032090E00038024034
:100F1C0000004742800E474200700040EDB9A369C3
:100F2C00002B00F08380494A926802F00C02082AD8
:100F3C0051D0022B17D0464B00221A60FFF710FD40
:100F4C000446424B1B6813F0007F42D0FFF708FDAC
:100F5C00001B0228F5D9032069E03C4A136C23F0EE
:100F6C0080531364DBE73A4B00221A60FFF7F8FC5E
:100F7C000546364B1B6813F0007F06D0FFF7F0FCDC
:100F8C00401B0228F5D9032051E0E369226A134380
:100F9C00626A43EA8213A26A5208013A43EA0243A4
:100FAC00E26A43EA0263294A5360294B01221A6020
:100FBC00FFF7D6FC0446254B1B6813F0007F06D1C7
:100FCC00FFF7CEFC001B0228F5D903202FE00020F0
:100FDC002DE000202BE0012B2BD01C4B5B6803F485
:100FEC008001E269914226D103F03F02216A8A42D4
:100FFC0023D1616A47F6C0721A40B2EB811F1ED131
:10100C0003F44031A26A5208013AB1EB024F18D1F5
:10101C0003F07063E26AB3EB026F14D1002006E0B8
:10102C0001207047012002E0012000E0002002B006
:10103C0070BD0120FBE70120F9E70120F7E7012053
:10104C00F5E70120F3E70120F1E700BF003802408B
:10105C0060004742F8B5244B9B6803F00C03042B4B
:10106C003DD0082B3DD1204B5A6802F03F025B6803
:10107C0013F4800F12D01C4B5968C1F38811002354
:10108C001A48A1FB0001FFF7CFF8174B5B68C3F3BD
:10109C00014301335B00B0FBF3F023E0124B5B68C0
:1010AC00C3F388135C010025E41A65F10005AE0159
:1010BC0046EA9466A701381B66EB0501CC0044EAAE
:1010CC005074C500E81844F100018B0243EA9053B8
:1010DC008402204619460023FFF7A6F8D5E70348FB
:1010EC0000E00348F8BD00BF00380240001BB70009
:1010FC000024F400002800F09B8070B50D460446D7
:10110C004F4B1B6803F00F038B4208D2CBB24C4AF7
:10111C001370136803F00F038B4240F08B8023682D
:10112C0013F0020F17D013F0040F04D0454A936844
:10113C0043F4E0539360236813F0080F04D0414A42
:10114C00936843F4604393603E4A936823F0F00342
:10115C00A1680B439360236813F0010F32D06368CE
:10116C00012B21D09A1E012A25D9364A126812F079
:10117C00020F61D033498A6822F0030213438B605B
:10118C00FFF7EEFB06462F4B9B6803F00C036268DF
:10119C00B3EB820F16D0FFF7E3FB801B41F28833D1
:1011AC009842F0D9032042E0264A126812F4003F1C
:1011BC00E0D101203BE0234A126812F0007FD9D124
:1011CC00012034E01E4B1B6803F00F03AB4207D920
:1011DC00EAB21B4B1A701B6803F00F03AB422DD104
:1011EC00236813F0040F06D0164A936823F4E053D7
:1011FC00E1680B439360236813F0080F07D0114A82
:10120C00936823F46043216943EAC1039360FFF7B9
:10121C0021FF0C4B9B68C3F303130B4AD35CD840E0
:10122C000A4B18600A4B1868FFF74EFB002070BD84
:10123C00012070470120FAE70120F8E70120F6E7CA
:10124C00003C02400038024090120008300400209C
:10125C0038040020024B13B10248FFF75FB9704706
:10126C000000000035050008F8B500BFF8BC08BC4C
:10127C009E467047F8B500BFF8BC08BC9E46704748
:10128C000800002000000000000000000102030420
:04129C000607080930
:0812A000C4EFFF7F0100000014
:0812A8006112000815020008A4
:0412B000ED01000844
:1012B400080000200000000000000000F4020020EC
:1012C4005C030020C40300200000000000000000B4
:1012D400000000000000000000000000000000000A
:1012E40000000000000000000000000000000000FA
:1012F40000000000000000000000000000000000EA
:1013040000000000000000000000000000000000D9
:1013140000000000000000000000000000000000C9
:1013240000000000000000000000000000000000B9
:1013340000000000000000000000000000000000A9
:101344000000000000000000000000000000000099
:101354000000000000000000000000000000000089
:1013640001000000000000000E33CDAB34126DE626
:10137400ECDE05000B00000000000000000000008F
:101384000000000000000000000000000000000059
:101394000000000000000000000000000000000049
:1013A4000000000000000000000000000000000039
:1013B4000000000000000000000000000000000029
:0C16E4000024F4000100000010000000D1
:040000050800088166
:00000001FF
