:020000040800F2
:100000000000032091290008D9260008DB260008FB
:10001000DD260008DF260008E126000800000000B9
:10002000000000000000000000000000714F000808
:10003000E32600080000000011500008D94B00081A
:10004000E1290008E1290008E1290008E129000868
:10005000E1290008E1290008E1290008E129000858
:10006000E1290008E1290008E1290008E526000847
:10007000E1290008E1290008E1290008E129000838
:10008000E1290008F5260008E1290008E129000817
:1000900005270008E1290008E1290008E1290008F6
:1000A000E129000815270008E1290008E1290008D6
:1000B000E1290008E1290008E1290008E1290008F8
:1000C000E1290008E1290008E1290008E1290008E8
:1000D000E1290008E1290008E1290008E1290008D8
:1000E000E1290008E1290008E1290008E1290008C8
:1000F000E1290008E1290008E1290008E1290008B8
:10010000E1290008E1290008E1290008E1290008A7
:10011000E1290008E1290008E1290008E129000897
:10012000E1290008E1290008E1290008E129000887
:10013000E1290008E1290008E1290008E129000877
:10014000E1290008E1290008E1290008E129000867
:10015000E1290008E1290008E1290008E129000857
:10016000E1290008E1290008E1290008E129000847
:10017000E1290008E1290008E12900080000000049
:10018000E1290008E1290008E129000825270008E5
:10019000E1290008E1290008E1290008E129000817
:0C01A0000000000000000000E129000841
:1001C0000348044B834202D0034B03B118477047E6
:1001D0005008002050080020000000000548064993
:1001E0000B1AD90F01EBA301491002D0034B03B145
:1001F00018477047500800205008002000000000F9
:1002000010B5064C237843B9FFF7DAFF044B13B15E
:100210000448AFF300800123237010BD5008002074
:1002200000000000106B000808B5044B1BB1044926
:100230000448AFF30080BDE80840CFE700000000AD
:1002400054080020106B000853B94AB9002908BFB0
:1002500000281CBF4FF0FF314FF0FF3000F06EB9A7
:10026000ADF1080C6DE904CE00F006F8DDF804E00D
:10027000DDE9022304B070472DE9F047089D0446EC
:100280008C46002B40F083808A42174647D9B2FA49
:1002900082F242B1C2F1200024FA00F0914097406E
:1002A00040EA010C94404FEA1748230CBCFBF8F6D7
:1002B0001FFA87FE08FB16C143EA014306FB0EF155
:1002C000994209D9FB1806F1FF3080F01981994253
:1002D00040F21681023E3B445B1AA4B2B3FBF8F035
:1002E00008FB103344EA034400FB0EFEA64509D97F
:1002F0003C1900F1FF3380F00581A64540F20281F0
:1003000002383C4440EA0640A4EB0E0400261DB12E
:10031000D4400023C5E900433146BDE8F08702B967
:10032000FFDEB2FA82F2002A50D1CB1B4FEA174E01
:100330001FFA87F80126B3FBFEFC210C0EFB1C33D1
:1003400041EA034108FB0CF38B4207D979180CF101
:10035000FF3002D28B4200F2E9808446C91AA3B270
:10036000B1FBFEF00EFB101143EA014408FB00F85C
:10037000A04507D93C1900F1FF3302D2A04500F295
:10038000D9801846A4EB080440EA0C40BFE78B4232
:1003900009D9002D00F0B1800026C5E900013046E2
:1003A0003146BDE8F087B3FA83F6002E4AD18B427E
:1003B00002D3824200F2B880841A61EB030101206B
:1003C0008C46002DA8D0C5E9004CA5E7C2F120035A
:1003D00020FA03F6974001FA02F04FEA174ED9408F
:1003E0003043030CB1FBFEF61FFA87F80EFB161123
:1003F00043EA014306FB08F1994204FA02F409D9E1
:10040000FB1806F1FF3C80F08D80994240F28A8013
:10041000023E3B445B1A81B2B3FBFEF00EFB10338D
:1004200041EA034100FB08F38B4207D9791800F138
:10043000FF3C73D28B4271D902383944CB1A40EA5F
:10044000064678E7C6F1200C03FA06F422FA0CF30C
:100450001C4320FA0CF701FA06F34FEA144E21FA76
:100460000CF11F433B0CB1FBFEF91FFA84F80EFBA5
:10047000191143EA014109FB08FA8A4502FA06F21A
:1004800000FA06F308D9611809F1FF3048D28A450D
:1004900046D9A9F102092144A1EB0A01BFB2B1FB7F
:1004A000FEF00EFB101147EA014700FB08F8B845C3
:1004B00007D9E71900F1FF312ED2B8452CD90238FF
:1004C000274440EA0940A7EB0807A0FB02894F45F3
:1004D000C64649461AD317D05DB1B3EB0E0267EB9F
:1004E000010707FA0CFCF2404CEA0202F740C5E9AA
:1004F000002700263146BDE8F0872E4628460BE748
:100500000646E9E61846FDE64345E5D2B8EB020E9D
:1005100069EB04010138DFE70846D2E760468DE762
:100520008146B9E7664675E730464AE7ACF1020C0A
:10053000394413E702383C4424E700BF704700BF4A
:10054000002301461A46184600F050BA014B1868BD
:10055000704700BF0000002038B50A4C0A4D641BEC
:10056000A4100AD004F18043013B05EB8305013C54
:1005700055F804399847002CF9D1BDE8384006F009
:10058000CDBA00BFF46B0008F06B000870B50D4EDB
:100590000D4D761BB61006D00024013455F8043BEF
:1005A0009847A642F9D1094E094D761B06F0B0FADC
:1005B000B61006D00024013455F8043B9847A642F3
:1005C000F9D170BDE86B0008E86B0008F06B00081B
:1005D000E86B0008844641EA000313F003036DD181
:1005E000403A41D351F8043B40F8043B51F8043BF6
:1005F00040F8043B51F8043B40F8043B51F8043BFD
:1006000040F8043B51F8043B40F8043B51F8043BEC
:1006100040F8043B51F8043B40F8043B51F8043BDC
:1006200040F8043B51F8043B40F8043B51F8043BCC
:1006300040F8043B51F8043B40F8043B51F8043BBC
:1006400040F8043B51F8043B40F8043B51F8043BAC
:1006500040F8043B51F8043B40F8043B51F8043B9C
:1006600040F8043B403ABDD2303211D351F8043B3C
:1006700040F8043B51F8043B40F8043B51F8043B7C
:1006800040F8043B51F8043B40F8043B103AEDD2EB
:100690000C3205D351F8043B40F8043B043AF9D23C
:1006A000043208D0D2071CBF11F8013B00F8013B0F
:1006B00001D30B8803806046704700BF082A13D31C
:1006C0008B078DD010F003038AD0C3F10403D21A34
:1006D000DB071CBF11F8013B00F8013B80D331F868
:1006E000023B20F8023B7BE7043AD9D3013A11F8E8
:1006F000013B00F8013BF9D20B7803704B78437053
:100700008B78837060467047F0B4860746D0541EDD
:10071000002A3CD0CAB2034602E014F1FF3436D3BB
:1007200003F8012B9D07F8D1032C29D9CDB245EA56
:1007300005250F2C45EA054533D9A4F110063609E5
:1007400003F1200707EB061703F1100242E90455F5
:1007500042E902551032BA42F8D1721C14F00C0F63
:1007600003EB021204F00F0613D0331F23F0030330
:100770000433134442F8045B9342FBD106F00304B4
:100780002CB1C9B21C4403F8011B9C42FBD1F0BC44
:10079000704734461346002CF3D1F8E7144603465D
:1007A000C2E71A462646E0E770B5054688B0084617
:1007B0000C4600F045F8154AAB6B04940126441C26
:1007C00004A90692022203940590AC680796CDE92D
:1007D0000112B3B1B4F90C309A0406D4626E43F43A
:1007E000005322F40052A38162662146284601AAE2
:1007F00000F046FC002814BF4FF0FF300A2008B07C
:1008000070BD284600F0D2FAE4E700BFDC6B0008B8
:10081000024B01461868FFF7C7BF00BF0000002069
:1008200000000000000000000000000000000000C8
:1008300000000000000000000000000000000000B8
:1008400090F800F06DE9024520F007016FF0000C10
:1008500010F0070491F820F040F049804FF00004B8
:100860006FF00700D1E9002391F840F000F1080093
:1008700082FA4CF2A4FA8CF283FA4CF3A2FA8CF3CB
:100880004BBBD1E9022382FA4CF200F10800A4FA32
:100890008CF283FA4CF3A2FA8CF3E3B9D1E9042386
:1008A00082FA4CF200F10800A4FA8CF283FA4CF3BD
:1008B000A2FA8CF37BB9D1E9062301F1200182FA77
:1008C0004CF200F10800A4FA8CF283FA4CF3A2FA7D
:1008D0008CF3002BC6D0002A04BF04301A4612BA8B
:1008E000B2FA82F2FDE8024500EBD2007047D1E98E
:1008F000002304F00305C4F100004FEAC50514F01D
:10090000040F91F840F00CFA05F562EA05021CBFED
:1009100063EA050362464FF00004A9E738B5324B9D
:100920001B6805460C460BB19A6B12B3B4F90C2048
:1009300093B2180725D5206900282DD013F00102A5
:1009400007D0636900225B42A361A26038B1002036
:1009500038BD990758BF6269A2600028F7D1B4F981
:100960000C301A06F4D543F04003A3814FF0FF305A
:1009700038BD184600F01AFAB4F90C2093B21807E3
:10098000D9D4D90628D5580712D4206942F00803D3
:10099000A3819BB20028D1D103F42072B2F5007F6D
:1009A000CCD02846214600F06DFDA3892069C5E71B
:1009B000216B51B104F14003994204D0284600F064
:1009C00065FAB4F90C2000232363002320696360D7
:1009D00022F024022060D9E742F0400209232B6074
:1009E0004FF0FF30A28138BD00000020F0B4184C59
:1009F0002568D5F8484114B365681F2D24DC38B943
:100A0000AB1C0135656044F823100020F0BC704732
:100A100004EB85060127C6F8882007FA05F2D4F80A
:100A20008871022847EA0207C4F88871C6F80831BD
:100A3000E6D1D4F88C311A43C4F88C21E0E705F5EF
:100A4000A674C5F84841D7E74FF0FF30DEE700BF96
:100A5000286B0008B1F90C309AB22DE9F0410C4630
:100A60001107804648D4626843F40063002AA381DA
:100A70005DDDA56A002D57D000229BB2D8F800603A
:100A8000E169C8F8002013F4805254D10123404694
:100A9000A847431C66D0A389A56AE1695F0705D50D
:100AA0006268236B801A0BB1E36BC01A0246002305
:100AB0004046A847451C48D1D8F80020B4F90C306E
:100AC000002A5CD01D2A01D0162A64D12269002197
:100AD000C4E9002123F40063A381216BC8F80060FE
:100AE00011B304F14003994202D0404600F0CEF920
:100AF00000202063BDE8F0812669AEB1256826603C
:100B000091070CBF63690023AD1BA3600AE02B466D
:100B10003246676AE1694046B8470028A5EB000500
:100B200006440ADD002DF2DC0020BDE8F081E26B16
:100B3000002A9EDCF8E7206DB0E7A38943F040036C
:100B4000A3814FF0FF30BDE8F081B4F90C30226989
:100B5000226023F4006300226260DA04A381BCD522
:100B60002065BAE7D8F80030002B94D01D2B0FD0A9
:100B7000162B0DD0A38943F04003A381D5E723F4BE
:100B800000632169A381DB04C4E90012A5D5E7E76E
:100B9000C8F80060C8E743F04003A381C5E700BF81
:100BA00010B5044682B008B1836B23B1B1F90C00D3
:100BB00048B902B010BD019100F0F8F80199B1F9FF
:100BC0000C000028F5D0204602B0BDE81040FFF729
:100BD00041BF00BF20B1054B01461868FFF7E0BFD9
:100BE000034B0449186800F0F5BB00BF000000206B
:100BF000286B0008A10B000800207047014900F095
:100C0000E9BB00BF692000082DE9F84F45682C4B6F
:100C1000C3630024074600F53B7204230321C0E9A7
:100C2000B912C0F8E0422146EB6005F15C006C6649
:100C3000C5E90044AC60C5E90444AC610822FFF793
:100C400063FDDFF888B0BE68DFF884A0DFF8849029
:100C5000DFF884801B4BC5F82C80C5E9075BC5E92C
:100C600009A92146F360082206F15C007466C6E912
:100C70000044B460C6E90444B461FFF745FDFD6873
:100C8000114BC6F82C80C6E9076BC6E909A92146B5
:100C9000EB606C66C5E90044AC60C5E90444AC6136
:100CA00005F15C000822FFF72FFD0123C5E9075B72
:100CB000C5E909A9C5F82C80BB63BDE8F88F00BF62
:100CC000FD0B00080900010012000200891F000846
:100CD000B11F0008F11F0008112000080020704714
:100CE00070B54A1E682505FB02F50E4605F1740134
:100CF00000F012FC044640B100210C30666005F1A2
:100D000068022160A060FFF7FFFC204670BD00BFB5
:100D10001F4B70B51D68AB6B06464BB305F53875B8
:100D2000D5E90134013B05D51EE0013B5A1C04F115
:100D3000680419D0B4F90C20002AF6D10025154B0F
:100D40006566C4E90055A560C4E90455A561294656
:100D5000E360082204F15C00FFF7D6FCC4E90C55FF
:100D6000C4E91155204670BD2C682CB12546D7E743
:100D70002846FFF749FFD1E704213046FFF7B0FFCF
:100D8000044628600028F1D10C233360EAE700BF55
:100D9000286B00080100FFFF024B0349186800F0B0
:100DA00019BB00BF286B000869200008836B03B1E2
:100DB000704729E7704700BF704700BF704700BF0A
:100DC000704700BF024B0349186800F0DDBA00BF4E
:100DD00000000020F90B0008024B0349186800F0DE
:100DE000D3BA00BF00000020DD0C0008F8B5244F86
:100DF0000C46064600F0FCFEBB685D68C4F57E61EB
:100E00000F3125F00305294421F47F6121F00F0102
:100E1000A1F58054B4F5805F07DB0021304601F076
:100E2000A1F8BB682B44984204D0304600F0E2FEA3
:100E30000020F8BD6142304601F094F801300DD039
:100E4000104BBA6819682D1B45F001053046091B87
:100E50005560196000F0CEFE0120F8BD002130463B
:100E600001F080F8BA68831A0F2BDEDD064C0549C5
:100E7000246843F00103001B53600860D5E700BFFE
:100E800030040020700800203808002000295ED0BF
:100E9000F8B50F46064600F0ABFE57F804CC754D8A
:100EA0002CF00103A7F10800C218A9685468914208
:100EB00024F0030400F084801CF0010F546002EB66
:100EC000040133D157F808EC4968A0EB0E0005F196
:100ED000080C87686745734401F0010160D0D0F8C1
:100EE0000CE0C7F80CE0CEF80870002900F08D8007
:100EF00043F0010141601360B3F5007F30D2DB089D
:100F0000591C6C689A1001239340234305EBC102DE
:100F100055F831406B60083AC0E9024245F83100AB
:100F2000E0603046BDE8F84000F064BE4968C9079B
:100F30000ED4234405F1080C9168614543F0010487
:100F40006BD0D268CA6091604460C350D4E77047E8
:100F500043F00101B3F5007F47F8041C1360CED3C2
:100F60005A0A042A46D89A0902F13907FF0002F109
:100F70003801EC19EA59083C944255D0516821F0E7
:100F80000301994202D992689442F7D1D468C0E92A
:100F90000224A060D0603046BDE8F84000F02ABED0
:100FA000002962D1D2E90221234443F00104D16037
:100FB0008A604460C3503046BDE8F84000F01ABE75
:100FC0001CF0010F234407D157F8082C801A134452
:100FD000D0E90212CA609160274A126843F0010109
:100FE0009A424160A8609CD8244B30461968FFF7AC
:100FF000FDFE96E7142A0AD9542A1DD81A0B02F1CD
:101000006F07FF0002F16E01B3E7234494E702F19A
:101010005C07FF0002F15B01ABE7C5E90400C0E932
:1010200002CC4460C3507CE76B688910012707FA43
:1010300001F119436960AAE7B2F5AA7F06D8DA0B75
:1010400002F17807FF0002F1770192E740F2545174
:101050008A4206D89A0C02F17D07FF0002F17C015A
:1010600087E74FF47E777E2183E743F001014160FB
:10107000136056E7300400203C0800206C08002074
:101080009368002B00F002812DE9F04FB1F90C308C
:101090009BB20C46190783B08246904635D522692B
:1010A0009AB313F00202D8F800603DD00027D4F8BC
:1010B00024B0D4F81CC0DFF8CC923D464D452B46F9
:1010C0003A4628BF4B4661465046D5B1D84700281E
:1010D00040F3D280D8F808301B1A07442D1AC8F8FC
:1010E0000830002B00F0B780D4F81CC0D4F824B02E
:1010F0004D452B463A4628BF4B4661465046002D8B
:10110000E4D1D6E900750836D8E721465046FFF706
:1011100005FC002840F03081B4F90C30D8F80060AC
:101120009BB213F00202C1D113F0010940F0B0806C
:10113000A76820684D46002D54D09A0540F1BC8028
:10114000AF42BB4600F2E78013F4906F2FD0D4E992
:10115000041707EB4707A0EB010B07EBD777681CD9
:101160007F105844B8423A4684BF07463A465B056A
:1011700040F1E9801146504600F0CEF9002800F019
:10118000F5805A4621690190FFF724FAA289019B54
:1011900022F4906242F08002A281A7EB0B0203EBE3
:1011A0000B00676123612060A2602F46AB465A4660
:1011B000494600F0B5FCA2682368D21B5B442F4669
:1011C000A26023600025D8F80830DB1BB944C8F8BA
:1011D0000830002B3FD0B4F90C30A76820689BB2D0
:1011E000002DAAD1D6E900950836A4E70BF1080333
:1011F00053E902679B460833002FF9D03A460A218B
:10120000304600F03DFC002853D00130A0EB060929
:101210004B46D4E904122068BB4228BF3B468842B3
:1012200003D9A5681544AB4219DC9A427DDC13460C
:10123000656AE16932465046A847051E1CDDB9EBD8
:1012400005096BD00120D8F808305B1B2E447F1BAA
:10125000C8F8083013BB002003B0BDE8F08F31465A
:101260002A4600F05DFC23682B442360214650464B
:10127000FFF796FC0028E2D0B4F90C3043F04003AD
:101280004FF0FF30A38103B0BDE8F08F002070471E
:1012900033469146104617464E469B46002FA5D032
:1012A0000028B5D13A460A21304600F0E9FB002873
:1012B000ABD17B1C9946ACE72369834215D36169A6
:1012C000A94212D82E4B676A9D4294BF2B466FF0FD
:1012D00000434A4693FBF1F3504601FB03F3E169F7
:1012E000B847071EC8DDED1B6DE7AF4228BF2F468C
:1012F0003A46494600F014FCA3682268DB1B3A44D6
:10130000A3602260002BEED121465046FFF748FC37
:101310000028E8D0B0E72F46AB4648E721465046C4
:10132000FFF73EFC00288ED0A6E71A46314601930F
:1013300000F0F6FB019BA1682268C91A1A44A1605B
:1013400022601D467BE7504600F056FC034600280D
:101350007FF423AF21695046FFF798FDB4F90C30B4
:101360000C2223F08003CAF8002087E70C23CAF878
:101370000030B4F90C3081E74FF0FF306CE700BF6C
:10138000FEFFFF7F00FCFF7F2DE9F04110F538776D
:101390001BD088460026D7E90154013D0FD4A3890C
:1013A000012B05F1FF3506D9B4F90E300133204683
:1013B00001D0C04706436B1C04F16804EFD13F68BD
:1013C000002FE8D13046BDE8F0813E463046BDE80A
:1013D000F08100BF2DE9F84310F538771FD088461B
:1013E00006464FF00009D7E90154013D11D4A38905
:1013F000012B05F1FF3508D9B4F90E300133214630
:10140000304602D0C04749EA00096B1C04F1680469
:10141000EDD13F68002FE6D14846BDE8F883B946D4
:101420004846BDE8F88300BF70B50C46B1F90E1010
:10143000002996B015461E4614DB6A4600F060FE91
:1014400000280FDB019A02F47042A2F50052B2FAB2
:1014500082F252094FF480634FF4006032602B60D7
:1014600016B070BDA289002312F08000336004D052
:10147000402218462A6016B070BD4FF480632B607E
:1014800016B070BD8A8992070B4606D501F143025A
:1014900001211A60C3E90421704770B582B001AB25
:1014A0006A460C460646FFF7BFFF009905463046E0
:1014B00000F032F8B4F90C3070B11649F163019ABA
:1014C0000099206043F08003A381C4E904018AB934
:1014D0002B43A38102B070BD9A05FBD423F0030314
:1014E00004F1430243F002030121A3812260C4E915
:1014F0000421EFE73046B4F90E1000F015FE10B9E4
:10150000B4F90C30E4E7A38923F0030343F00103AB
:101510001BB2DDE7FD0B00082DE9F04F01F10B05D3
:10152000162D83B0064623D8102900F2B98000F0AA
:101530005FFB102518230220CD4F3B44A3F1080286
:101540005C68944200F0B980636823F0030323448D
:10155000D4E902515A68E96042F0010230468D60D8
:101560005A6000F047FB0834204603B0BDE8F08F16
:1015700035F0070500F19480A94200F2918000F057
:1015800037FBB5F5FC7FC0F09D816B0A00F08F80C2
:10159000042B00F27381AB0903F1390003F1380C1D
:1015A000C300B34F3B44A3F108015C68A14206D1DC
:1015B0000CE0002A80F22B81E468A14206D0636827
:1015C00023F003035A1B0F2AF3DD60463C69DFF862
:1015D000A4C264457CD0636823F003035A1B0F2A1E
:1015E00000F37E81002AC7E904CC80F26F81B3F555
:1015F000007F80F01A81DB08591C7A6857F8318027
:10160000C4F808804FF0010E9B100EFA03F307EBAD
:10161000C10E1343AEF10802E2607B6047F831402F
:10162000C8F80C408210012494409C4256D81C42B9
:1016300006D120F0030064001C4200F10400FAD03F
:1016400007EBC009CE468046DEF80C309E4507D138
:1016500020E1002A80F22781DB689E4500F01A8194
:10166000596821F003014A1B0F2AF2DDD3E9028EEB
:101670005C1945F001055D6042F00105C8F80CE019
:101680003046CEF80880C7E90444C4E902CC65605E
:101690005A50009300F0AEFA009B03F1080402E0F8
:1016A0000C2333600024204603B0BDE8F08F4FF4D4
:1016B000007340204FF03F0C73E7DC68A34208BF83
:1016C00002307FF441AF3C69DFF8A8C1644582D1A4
:1016D0007B688210012494409C42A8D9BC6863684E
:1016E00023F00308A84503D3A8EB05030F2B7EDCEA
:1016F000DFF88491D7F80824D9F80030013204EBE0
:10170000080A2B4400F0378103F580530F3323F48C
:101710007F6B2BF00F0B5946304600F023FC411C29
:10172000024600F0F780824500F2F280D9F80410FA
:101730005944C9F804100B4600F05381D7F8081437
:1017400001311BBFA2EB0A0A5344C7F80824C9F8A9
:10175000043012F0070300F01A81C3F108010A44B3
:10176000C3F5805193440831A1EB0B01C1F30B0A7F
:10177000514630460193009200F0F4FB421CDDE933
:10178000002300F05381831A03EB0A0BD9F80410ED
:10179000BA604BF001035144BC425360C9F80410D5
:1017A00000F02B81B8F10F0F40F229816368A8F196
:1017B0000C0020F0070003F0010304EB000C0343CE
:1017C0004FF0050E0F286360CCE901EE00F2358181
:1017D00053681446D9F82C208A42D9F8302038BFF3
:1017E000C9F82C108A4238BFC9F8301094E0621949
:1017F00043F0010345F0010565603046BA6053606F
:1018000000F0F8F90834204603B0BDE8F08F234417
:10181000E1685A68A56842F00102E96030468D60CF
:101820005A6000F0E7F908343DE75A0A042A69D9FA
:10183000142A00F2BE8002F15C01C9005B3207EBA2
:10184000010E7958AEF1080E8E4500F097804A6877
:1018500022F003029A4202D989688E45F7D1D1F865
:101860000CE07B68C4E9021ECEF80840CC60D9E6E3
:1018700030040020380400206C080020142B59D9B3
:10188000542B00F29E802B0B03F16F0003F16E0CC2
:10189000C30086E608F1010818F0030F0EF1080EE8
:1018A0007FF4D2AE51E019441C464A68DB6854F814
:1018B000085F42F001024A603046EB609D6000F034
:1018C00099F9F0E6E80805F1080335E623443046C7
:1018D0005A6842F001025A60083400F08BF9E2E6DF
:1018E000611945F0010E42F00105C4F804E03046EC
:1018F000C7E90411C1E902CC4D60E25000F07AF969
:101900000834D0E69A0902F13901C900383296E765
:10191000BC4260D0BC68636823F0030BAB45ABEB03
:10192000050302D30F2B3FF762AF304600F062F998
:101930000024B8E603F15C0003F15B0CC30030E661
:1019400059F808394B4540F0968010F0030F00F12C
:10195000FF30F5D17B6823EA04037B6064009C427E
:101960003FF6BCAE1CB9B9E6640008F104081C429D
:10197000FAD0404664E603F1100BCCE67B68921087
:101980004FF0010808FA02F213437B606AE702EBAA
:101990000B014942C1F30B0A5146304601930092B4
:1019A00000F0E0FA431CDDE900237FF4ECAE9A4638
:1019B000ECE6542A26D81A0B02F16F01C9006E32E8
:1019C0003DE7B3F5AA7F26D8EB0B03F1780003F1CE
:1019D000770CC300E5E5D9F804305B44C9F804305E
:1019E000ACE6CAF30B0000287FF4A8AE08EB0B03AB
:1019F000BC6843F001036360ECE61446EAE60123A9
:101A0000536092E7B2F5AA7F21D8DA0B02F1780190
:101A1000C900773213E740F25452934221D8AB0CFD
:101A200003F17D0003F17C0CC300BAE5083B9B4445
:101A3000ABEB020B4FF0000AA8E604F108013046B8
:101A4000FFF724FABC68D9F804106368C2E640F2D4
:101A500054518A420BD89A0C02F17D01C9007C32A4
:101A6000EDE64FF47E737F204FF07E0C99E54FF446
:101A70007E717E22E3E67B6870E700BF0000000015
:101A800001F0FF01102A2BDB10F0070F08D010F82F
:101A9000013B013A8B422DD010F0070F42B3F6D133
:101AA000F0B441EA012141EA014122F007047FF04C
:101AB00000070023F0E80256083C85EA010586EAA3
:101AC000010685FA47F5A3FA87F586FA47F6A5FADF
:101AD00087F68EB9EED1F0BC01F0FF0102F00702EB
:101AE00032B110F8013B013A83EA010313B1F8D196
:101AF0000020704701387047002D06BF3546033877
:101B0000073815F0010F07D1013015F4807F02BFAF
:101B1000013015F4C03F0130F0BC0138704700BF00
:101B20008842F0B40DD98B1883420AD9841832B197
:101B3000224613F8014D02F8014D9942F9D1F0BC4B
:101B400070470F2A0ED80346541E002AF7D00134DE
:101B50000C44013B11F8012B03F8012FA142F9D1EC
:101B6000F0BC704740EA01039B073BD1A2F110078C
:101B70003F0901F1200606EB071601F1100300F101
:101B8000100453F8105C44F8105C53F80C5C44F8F3
:101B90000C5C53F8085C44F8085C53F8045C44F8A7
:101BA000045C1033B34204F11004EAD17B1C1B0126
:101BB00012F00C0F194402F00F05034415D0043D38
:101BC000AD0803EB850C1C1F0E4656F8047B44F849
:101BD000047F6445F9D10135AD002B44294402F05E
:101BE0000302B1E7541E0346B1E72A46ACE700BF43
:101BF000704700BF704700BF2DE9F84F1746002916
:101C000000F0BB8007F10B0481460D46FFF7F0FFA3
:101C1000162C5ED810242246A7425FD855F804EC53
:101C20002EF00306A5F10808964208EB060A80F29A
:101C30008180CB4BDAF804009968514500F0B580FB
:101C400020F0010353445B68DB0700F18A8020F039
:101C500003003318934280F212811EF0010F0FD15E
:101C600055F8083CA8EB030BDBF8041021F0030146
:101C700008448319934280F216817318934234DA30
:101C800039464846FFF748FC0746E0B155F8043CA2
:101C900023F001034344A0F10802934200F0F780CF
:101CA000321F242A00F2FB80132A296800F2C9801F
:101CB00003462A4619605168596092689A6029461D
:101CC0004846FFF7E3F84846FFF794FF3846BDE87B
:101CD000F88F24F00704002C22469DDA0C23C9F863
:101CE000003000273846BDE8F88F5F46DBF80C105F
:101CF00057F8080F321F242AC1600BEB030A8860D3
:101D000000F2D980132A296840F2D380CBF808105A
:101D10006968CBF80C101B2AA96800F2E0800BF16F
:101D200010020835116069685160A96891601E460B
:101D3000D8463D46D8F80430321B0F2A03F0010381
:101D400020D83343C8F80430DAF8043043F00103F4
:101D5000CAF8043048462F46FFF74CFF3846BDE826
:101D6000F88F1EF0010F8BD155F8083CA8EB030B40
:101D7000DBF8041021F003017FE71146BDE8F84FBE
:101D8000FFF7CABB08EB0401234342F00102C8F885
:101D900004304A60DAF8043043F001030831CAF82D
:101DA00004304846FFF772F8D4E720F003003118FA
:101DB00004F1100C61454FDA1EF0010F7FF460AFA3
:101DC00055F8081CA8EB010BDBF8041021F0030107
:101DD000084400EB060AD4453FF74FAF5F46DBF8F7
:101DE0000C1057F8080F321F242AC160886000F2D7
:101DF0009980132A296840F29380CBF8081069680B
:101E0000CBF80C101B2AA96800F292800BF110028B
:101E10000835116069685160A96891600BEB040195
:101E2000AAEB040242F0010299604A60DBF8043038
:101E300003F001031C434846CBF80440FFF7DAFEE9
:101E400050E701606B6843601B2A3CD805F108022B
:101E500000F10803A9682DE708EB04000A1B42F013
:101E600001029860426055F8043C03F001031C43F2
:101E7000484645F8044CFFF7BDFE2F4632E7DAE945
:101E800002121E46CA6008EB030A916052E750F83E
:101E9000043C23F003031E4408EB060A4AE72946E4
:101EA000FFF73EFE0BE7DAE902125F46CA60916077
:101EB0001CE73A4636E7294638461E46D846FFF71D
:101EC0002FFE3D4636E7AB688360EB68C360242A8B
:101ED00011D005F1100200F110032969EAE6CBF8F0
:101EE0001010E968CBF81410242A0ED029690BF1E0
:101EF0001802103516E72B6903616B694361A96904
:101F000005F1180200F11803D4E62A69CBF818206D
:101F10006A69CBF81C20A9690BF12002183501E78A
:101F20003A4676E729463846FFF7FAFD0C4B75E747
:101F3000CBF81010E968CBF81410242A04D02969D2
:101F40000BF11802103564E72A69CBF818206A698A
:101F5000CBF81C20A9690BF12002183559E700BF06
:101F60003004002038B5074C00230546084623609E
:101F700000F02EFC431C00D038BD2368002BFBD0A2
:101F80002B6038BD8054002010B50C46B1F90E10FE
:101F900000F0F2F8002803DB236D0344236510BD35
:101FA000A38923F48053A38110BD00BF0020704794
:101FB0002DE9F0411646B1F90C201F46D3050C4619
:101FC0000546B1F90E1009D422F48052A2813B4695
:101FD00032462846BDE8F04100F01EB80022022338
:101FE00000F0B4F8B4F90C20B4F90E10ECE700BF1F
:101FF00010B50C46B1F90E1000F0A8F8A389421CE8
:102000000EBF23F4805343F480532065A38110BD99
:10201000B1F90E1000F016B870B50D46084C114617
:1020200006461A4628460023236000F0B7FB431CEF
:1020300000D070BD2368002BFBD0336070BD00BFA3
:102040008054002038B5074C00230546084623601D
:1020500000F0B2FB431C00D038BD2368002BFBD03E
:102060002B6038BD8054002070B539B105460C4650
:1020700008B1836B83B3B4F90C3013B90026304632
:1020800070BD21462846FEF7E5FCE36A064633B1FB
:10209000E169284698470028B8BF4FF0FF36A3896A
:1020A0001B0620D4216B41B104F14003994202D0B8
:1020B0002846FEF7EBFE00232363616C21B128461E
:1020C000FEF7E4FE00236364FEF774FE0023A381A1
:1020D000FEF772FE304670BDFEF768FEB4F90C30B4
:1020E000002BCBD0CDE721692846FEF7CFFED9E7FC
:1020F000024B01461868FFF7B7BF00BF0000002081
:1021000038B50B46074C0546114618460023236098
:1021100000F055FB431C00D038BD2368002BFBD0DA
:102120002B6038BD8054002038B5074C002305468D
:102130000846236000F048FB431C00D038BD2368EC
:10214000002BFBD02B6038BD8054002070B50D46AD
:10215000084C114606461A4628460023236000F024
:1021600035FB431C00D070BD2368002BFBD03360CF
:1021700070BD00BF8054002070B50D46084C11465C
:1021800006461A4628460023236000F0F7FA431C4F
:1021900000D070BD2368002BFBD0336070BD00BF42
:1021A0008054002008B50D480D4B036003234360A5
:1021B00000238360C3604FF4002202614FF4401299
:1021C0004261037643768376C3760377437700F0E4
:1021D00035FC00B908BD00F0A3F9FBE7A00800201A
:1021E0000064004010B588B0002303930493059366
:1021F000069307930268184B9A4201D008B010BDAD
:102200000024019403F5EA331A6C42F000721A6458
:102210001A6C02F000720192019A02941A6B42F059
:1022200008021A631B6B03F008030293029B03234B
:10223000039302220492059406930923079303A9AA
:10224000064801F005FA22460521142000F058FF47
:10225000142000F089FFD1E700640040000C024028
:1022600010B58AB0002305930122089206930792C5
:1022700000930193029303930493054C694620460F
:1022800000F082FC204600F017FD0AB010BD00BF30
:10229000A008002010B5044600F00EFD2268536926
:1022A00043F0020353610221204600F0D3FD10BD2C
:1022B00010B58AB0044601AB03AA002100F02AFD44
:1022C000BDF90C200C4B9C4201D00AB010BD40F26D
:1022D00003239A42F9D19DF804301B021BB29DF8EA
:1022E00005009DF80620120212B29DF80710114356
:1022F000184304F0EFFBE8E7A008002008B5034806
:10230000FFF7C8FFFFF7ACFF08BD00BFA008002023
:1023100010B582B0002401940D4B1A6B42F40012E8
:102320001A631B6B03F400130193019B22460521E2
:102330000B2000F0E5FE0B2000F016FF22460521E1
:10234000112000F0DDFE112000F00EFF02B010BDE4
:102350000038024008B5094B1B68B3F5FA7F04D07A
:10236000064A13680133136008BD4FF480410448E6
:1023700001F06CFA014B00221A60F1E7D40800204A
:102380000014024008B50121064B186802F020FD38
:102390004FF40061044801F059FAC82002F0B6FC7D
:1023A000F6E700BFD00800200010024008B502E0A8
:1023B000012002F0ABFC0C4B1B78DBB2012BF7D1F8
:1023C0000A48FEF725FA0A4B00211970064A1170D7
:1023D0001A78084C2046FEF797F9642221460648F1
:1023E00002F0D6FBE4E700BF280A00202C6B0008AF
:1023F000900A00202C0A0020E409002008B50B4BAD
:10240000002201210A4802F08FFC0A4B18600A4A98
:1024100000210A4802F01CFC094B1860094A0021FF
:10242000094802F015FC094B186008BD946B0008C0
:1024300055230008D0080020706B00088523000891
:10244000CC0800204C6B0008AD230008C808002011
:10245000F0B58BB000240594069407940894099471
:102460000194264B1A6B42F010021A631A6B02F0A9
:1024700010020192019A02941A6B42F008021A6348
:102480001A6B02F008020292029A03941A6B42F04D
:1024900080021A631A6B02F080020392039A04947A
:1024A0001A6B42F020021A631B6B03F020030493A3
:1024B000049B134F22464FF40061384601F0C0F9E7
:1024C000104D22464FF48041284601F0B9F94FF4EF
:1024D00000630593012606960794089405A93846DB
:1024E00001F0B6F84FF480430593069607940894DC
:1024F00005A9284601F0ACF80BB0F0BD0038024049
:10250000001002400014024008B50268034B9A42D2
:1025100000D008BD00F080FAFBE700BF00000140DA
:1025200072B6FEE700B595B03022002108A8FEF78C
:10253000EBF8002303930493059306930793019309
:10254000204A116C41F080511164126C02F08052EB
:102550000192019A02931C4B1A6842F440421A609D
:102560001B6803F440430293029B012308934FF43A
:102570008033099302230E934FF480020F920622B8
:102580001092A822119212930423139308A801F029
:1025900067F998B90F23039302230493002305934B
:1025A0004FF4A05306934FF480530793052103A8DB
:1025B00001F0A2FB20B915B05DF804FBFFF7B0FFF6
:1025C000FFF7AEFF003802400070004008B500F091
:1025D00009FAFFF7A7FFFFF73BFFFFF799FE00F0AF
:1025E00035F9FFF7DFFDFFF789FE04F027FA02F067
:1025F00001FBFFF703FF02F00FFBFEE700B583B01E
:10260000002200920D4B596C41F480415964596C81
:1026100001F48041009100990192196C41F08051C0
:1026200019641B6C03F080530193019B0F216FF021
:10263000010000F065FD03B05DF804FB00380240C6
:1026400030B589B00546002401941E4B5A6C42F007
:1026500001025A645B6C03F001030193019B02A920
:1026600003A801F01FFC01F00DFC43001648A0FB7D
:1026700003239B0C013B1548154A026040F2E732E8
:10268000C260436004618460846101F095FD04468A
:1026900010B1204609B030BD0C4801F023FC0446BF
:1026A0000028F6D1192000F05FFD0F2D01D901247B
:1026B000EFE700222946192000F022FD054B1D609E
:1026C000E7E700BF0038024083DE1B43D808002044
:1026D0000000014048080020FEE7FEE7FEE7FEE7B5
:1026E000FEE7704708B5024800F0C4FE08BD00BF11
:1026F0008409002008B5024800F0BCFE08BD00BFF8
:102700002409002008B5024800F0C2FB08BD00BF44
:10271000A008002008B5024801F02CFC08BD00BF4D
:10272000D808002000B583B0104B1B681A6812F05F
:10273000100F05D10D4802F03FF803B05DF804FB1F
:10274000002201921A6801925B680193019B07487D
:1027500001F039FF064B1B685B68C3F16403DBB211
:10276000044A1370044B01221A70E3E7E4090020C5
:1027700024090020900A0020280A002070B50C4689
:1027800016460025B54207DAAFF30080214601F86E
:10279000010B01350C46F5E7304670BD70B50C46AF
:1027A00016460025B54205DA14F8010B00F03EF894
:1027B0000135F7E7304670BD4FF0FF3070474FF4FA
:1027C00000534B6000207047012070470020704785
:1027D00010B503460C4A0D490D48006840B10C483D
:1027E00000680344521A934206D8094A136010BD88
:1027F0000748084C0460F2E7FDF7A8FE0C230360CD
:102800004FF0FF30F3E700BF00000320000400009A
:102810002009002088540020034AD2F8883043F46D
:102820007003C2F88830704700ED00E000B583B057
:1028300001904FF6FF73012201A9034801F057FEF2
:10284000019803B05DF804FBE409002008B50F48C7
:102850000F4B03604FF4E133436000238360C36098
:1028600003610C2242618361C36101F011FE50B922
:1028700006480268D36843F01003D3606422054918
:1028800002F086F908BDFFF74BFEF1E7E4090020EE
:10289000007C00402C0A002030B589B0002303934F
:1028A00004930593069307930268334B9A4201D031
:1028B00009B030BD04460025019503F5DE331A6CDE
:1028C00042F000421A641A6C02F000420192019A2E
:1028D00002951A6B42F010021A631B6B03F010038F
:1028E0000293029B0323039302220492059506930D
:1028F0000823079303A9214800F0AAFE2048214B92
:1029000003604FF0206343608560C5604FF48063CF
:10291000036145618561C5610562456200F0B2FCF5
:1029200018BB174BA3639C631748184B03604FF009
:1029300020634360402383600023C3604FF48062C0
:10294000026143618361C3610362436200F09AFCE8
:1029500070B90D4B63639C6300220521532000F086
:10296000CFFB532000F000FCA2E7FFF7D9FDD8E72A
:10297000FFF7D6FDEDE700BF007C004000100240ED
:1029800024090020A0600240840900201060024059
:10299000DFF834D00D480E490E4A002302E0D45827
:1029A000C4500433C4188C42F9D30B4A0B4C002397
:1029B00001E013600432A242FBD3FFF72DFFFDF7C5
:1029C000E5FDFFF703FE7047000003200000002034
:1029D00050080020F46B00085008002084540020A8
:1029E000FEE7000008B50B4B1A6842F400721A604B
:1029F0001A6842F480621A601A6842F480721A609F
:102A0000032000F06BFB0F20FFF71AFEFFF7F6FD27
:102A1000002008BD003C0240034A1168034B1B78AC
:102A20000B441360704700BF940A00204408002044
:102A3000014B1868704700BF940A0020002800F07E
:102A4000A18038B5044690F82030D3B122681368CD
:102A500043F001031360FFF7EBFF054623685A6854
:102A600012F0010F10D1FFF7E3FF401B0A28F5D940
:102A7000636A43F400336362052384F82030012045
:102A800038BDFFF7AFFBE1E71A6822F002021A60D7
:102A9000FFF7CEFF054623685A6812F0020F0DD0EB
:102AA000FFF7C6FF401B0A28F5D9636A43F40033D9
:102AB0006362052384F820300120E1E7227E012AA9
:102AC0003DD01A6822F080021A60637E012B3BD051
:102AD0002268136823F040031360A37E012B39D0D2
:102AE0002268136823F020031360E37E012B37D0A4
:102AF0002268136843F010031360237F012B35D045
:102B00002268136823F008031360637F012B33D01E
:102B10002268136823F004031360A368E268134378
:102B200022691343626913436268013A21681343BF
:102B3000CB6100206062012384F82030A0E71A688E
:102B400042F080021A60C0E72268136843F0400335
:102B50001360C2E72268136843F020031360C4E7E0
:102B60002268136823F010031360C6E72268136815
:102B700043F008031360C8E72268136843F00403B6
:102B80001360CAE70120704790F82030013BDBB2A8
:102B9000012B05D9436A43F4802343620120704727
:102BA00070B4444BD3F8002242F00102C3F8002273
:102BB000D3F8002222F47C52C3F80022D3F800227A
:102BC000486A42EA0022C3F800224A6902F01F0262
:102BD000012000FA02F2D3F81C02D44320EA0200DA
:102BE000C3F81C02CB69B3B9324BD3F80C022040B6
:102BF000C3F80C02CE688D88486945EA064548301E
:102C000043F830508E6808884D6940EA06404835E0
:102C100003EBC5035860CB69012B1DD08B69002BDA
:102C200032D12448D0F804322340C0F804320B6972
:102C30008BBB204BD3F814020440C3F814420B6A38
:102C4000012B2FD01B4AD2F8003223F00103C2F827
:102C50000032002070BC7047164BD3F80C021043B2
:102C6000C3F80C020E688D88486945EA064548306D
:102C700043F830508E6888894D6940EA06404835EF
:102C800003EBC5035860C9E70A48D0F80432134380
:102C9000C0F80432CBE70748D0F814321343C0F829
:102CA0001432CCE70349D1F81C321A43C1F81C2274
:102CB000C8E700BF0064004070B5044690F820509B
:102CC000EDB2012D06D0436A43F40023436201258F
:102CD000284670BD022380F820300268136823F074
:102CE00001031360FFF7A4FE064623685B6813F038
:102CF000010F0CD0FFF79CFE831B0A2BF5D9636AEA
:102D000043F400336362052384F82030E0E70025B4
:102D10006562DDE730B490F82040013CE4B2012C5C
:102D200000F2918051B90468E46814F0030F10D1E7
:102D3000436A43F400134362012089E00468246974
:102D400014F0030F05D1436A43F4001343620120DA
:102D50007EE0056801F11B0424012C5904F00404F1
:102D60009460002C61D1056801F11B0424012C59E9
:102D7000640D1460056801F11B0424012D5905F050
:102D80000205D560056825446D6805F00F051561DD
:102D9000056825446D68C5F30725956105682C44D1
:102DA0006468240C5461026802EB0112D2F8B82165
:102DB0001A70026802EB0112D2F8B821C2F307229E
:102DC0005A70026802EB0112D2F8B821C2F307422E
:102DD0009A70026802EB0112D2F8B821120EDA7072
:102DE000026802EB0112D2F8BC211A71026802EBF0
:102DF0000112D2F8BC21C2F307225A71026802EB19
:102E00000112D2F8BC21C2F307429A71026802EBA8
:102E10000112D2F8BC21120EDA7171B90268D368BE
:102E200043F02003D360002012E0056801F11B0489
:102E300024012C59E40854609CE70268136943F0AC
:102E400020031361EFE7436A43F4802343620120C8
:102E500030BC704790F82030013BDBB2012B05D924
:102E6000436A43F480234362012070470268536938
:102E70001943516100207047704770477047704791
:102E8000704770477047704770477047704770478A
:102E90002DE9F84F054603685C69D3F804809F6804
:102EA000D3F80CB0D3F810A0D3F8189014F00106A2
:102EB0003BD017F0010616D001229A6017F0020FDE
:102EC00008D117F0040F0CD117F0080606D04FF404
:102ED000805608E0FFF7D0FF002604E0FFF7CFFFA1
:102EE00001E04FF4006617F4807F0DD02B684FF49B
:102EF00080729A6017F4007F40F0868017F4806F2C
:102F000000F0868046F4005617F4803F0DD02B6801
:102F10004FF480329A6017F4003F40F0838017F43A
:102F2000802F00F0838046F4004614F0080F07D08D
:102F30001BF0100F04D046F400762B681022DA60E4
:102F400014F0040F02D01BF0080F79D114F0020F17
:102F500004D02B68DB6813F0030F78D114F0400F16
:102F600007D01AF0100F04D046F480662B681022A8
:102F70001A6114F0200F02D01AF0080F6BD114F070
:102F8000100F04D02B681B6913F0030F6AD114F4DF
:102F9000003F02D018F0100F68D114F4803F02D027
:102FA00018F0080F69D114F4004F7AD018F0040F0C
:102FB00074D014F4807F04D019F0010F01D046F0D2
:102FC000010614F4007F04D019F0020F01D046F07E
:102FD000020614F4806F04D019F0040F01D046F0FB
:102FE000040614F4006F59D019F0700956D0B9F1E5
:102FF000400F65D058D8B9F1200F5ED0B9F1300F2D
:1030000042D146F0200644E02846FFF736FF7BE732
:1030100017F4006F02D046F4804675E72846FFF7A4
:103020002FFF71E72846FFF729FF7EE717F4002FEF
:1030300002D046F4803678E72846FFF722FF74E78F
:103040002B680822DA602846FFF71CFF7EE7284637
:10305000FFF72EF982E72B6808221A612846FFF74E
:1030600013FF8CE72846FFF70EFF90E72B6810222E
:103070005A602846FFF709FF8FE72B6808225A603D
:103080002846FFF703FF8EE7B9F1100F01D146F094
:1030900008062A68936923F0700393612B68042261
:1030A0005A609EB9BDE8F88FB9F1500F0BD0B9F155
:1030B000600FEED146F48076EBE746F01006E8E7C5
:1030C00046F04006E5E746F08006E2E76B6A1E43FD
:1030D0006E622846FFF7DBFEE4E70000074AD3688C
:1030E00023F4E0631B041B0C000200F4E0600343C4
:1030F00043F0BF6343F40033D360704700ED00E05A
:1031000030B4174BDB68C3F30223C3F10704042C6C
:1031100028BF04241D1D062D18D9033B4FF0FF3591
:1031200005FA04F421EA0401994005FA03F322EABE
:103130000303194300280BDB0901C9B200F1604009
:1031400000F5614080F8001330BC70470023E5E7CC
:1031500000F00F000901C9B2024B1954F4E700BF97
:1031600000ED00E014ED00E0002807DB00F01F0296
:10317000400901239340024A42F82030704700BFC3
:1031800000E100E030B405682C6824F480242C6051
:10319000046863608368402B05D003689960036806
:1031A000DA6030BC704703689A600368D960F8E75A
:1031B00010B40368D9B210390C4AA2FB01421209BB
:1031C0000B4CA25CC2655F2909D923F47F7323F0FD
:1031D000030304338365806D5DF8044B704723F46B
:1031E0007F7323F003038365F5E700BFABAAAAAAA8
:1031F000BC6B0008836A826992B9012B0AD0022B4A
:1032000002D00BB100207047C36A13F0807F28D131
:1032100000207047C36AB3F1C07F24D000207047FC
:10322000B2F5005F09D0022B25D9032B25D1C36A43
:1032300013F0807F23D100207047032B03D8DFE8F1
:1032400003F01404140A00207047C36A13F0807F4F
:103250000DD100207047C36AB3F1C07F09D00020B0
:1032600070470120704701207047012070470120FE
:1032700070470120704701207047002070470120EF
:103280007047000070B50446FFF7D2FB002C5BD0FE
:103290000546022384F83530002384F83430226850
:1032A000136823F00103136023681A6812F0010FFA
:1032B0000AD0FFF7BDFB431B052BF5D9202363651F
:1032C000032084F8350070BD1A68204810406168FA
:1032D000A2680A43E1680A4321690A4361690A4313
:1032E000A1690A43E1690A43216A0A430243616A08
:1032F00004291ED01A602668756925F00705636ADF
:103300001D43042B07D1A36A1D43E36A1BB120466A
:10331000FFF770FF90B975612046FFF749FFE26D36
:103320003F239340836000206065012384F835309B
:10333000C9E7E16A206B01430A43DBE74023636589
:10334000012084F83500BEE70120BCE73F8010F083
:1033500038B50446856D90F8340001282BD0012043
:1033600084F8340094F83500C0B2012804D000235A
:1033700084F83430022038BD022084F83500002063
:1033800060652046FFF7FEFEE26D3F239340AB6091
:103390002268136843F016031360236C23B122687C
:1033A000136843F0080313602268136843F00103B5
:1033B00013600020DFE70220DDE770B50446866D6C
:1033C000FFF736FB94F83530DBB2022B06D08023B2
:1033D0006365002384F83430012070BD05462268FF
:1033E000136823F0160313602268536923F08003E7
:1033F0005361236CE3B12268136823F00803136060
:103400002268136823F00103136023681B6813F01C
:10341000010F11D0FFF70CFB431B052BF5D920231F
:103420006365032084F83500002384F83430D4E742
:10343000A36C002BDFD1E3E7E26D3F239340B36041
:10344000012384F83530002084F83400C5E790F873
:103450003530DBB2022B03D0802343650120704757
:10346000052380F835300268136823F001031360E8
:1034700000207047F0B583B0044600230193724BDF
:103480001D68724BA3FB0535AD0A876D3E68C26DA2
:1034900008239340334210D003681A6812F0040FD7
:1034A0000BD01A6822F004021A60C26D0823934000
:1034B000BB60436D43F001034365E26D012393401C
:1034C000334209D02268526912F0800F04D0BB60E9
:1034D000636D43F002036365E26D0423934033425E
:1034E00009D02268126812F0020F04D0BB60636D2D
:1034F00043F004036365E26D10239340334224D00C
:103500002268126812F0080F1FD0BB6023681A6887
:1035100012F4802F0DD01B6813F4002F04D1236CFC
:103520009BB12046984710E0A36C73B120469847A2
:103530000BE01A6812F4807F03D11A6822F00802A7
:103540001A60236C0BB120469847E26D202393400C
:10355000334255D02268126812F0100F50D0BB6071
:1035600094F83530DBB2052B0ED023681A6812F4BC
:10357000802F33D01B6813F4002F2AD1636C002BEB
:103580003ED0204698473BE02268136823F016039C
:1035900013602268536923F080035361236CA3B145
:1035A0002268136823F008031360E26D3F23934001
:1035B000BB60012384F83530002384F83430236D58
:1035C000002B3FD0204698473CE0A36C002BE7D16E
:1035D000EBE7E36BA3B12046984711E01A6812F4B9
:1035E000807F09D11A6822F010021A60012384F842
:1035F0003530002384F83430E36B0BB12046984714
:10360000636DFBB1636D13F0010F17D0052384F8D0
:1036100035302268136823F001031360019B0133E6
:103620000193AB4204D823681B6813F0010FF5D156
:10363000012384F83530002384F83430E36C0BB177
:103640002046984703B0F0BD40080020B5814E1BCE
:1036500000230F2B00F2EA80F0B482B05EE08668AF
:103660005F000324BC4026EA0406CC68BC40344317
:103670008460466826EA02064C68C4F300129A4049
:103680003243426058E0DC08083450F8247003F0FC
:10369000070296000F22B24027EA02070A69B240E9
:1036A0003A4340F824205BE0092200E00022B240C7
:1036B0003A4302345E4E46F824205E4A9468EA4358
:1036C00024EA05064F6817F4801F01D045EA040676
:1036D000584CA660E46802EA04064F6817F4001F1D
:1036E00001D045EA0406534CE660646802EA040629
:1036F0004F6817F4003F01D045EA04064D4C666060
:10370000246822404E6816F4803F01D045EA040246
:10371000484C226001330F2B00F2858001229A4031
:103720000C6804EA020532EA0404F3D14C6804F0A0
:103730000304013C012C92D94A6802F00302032AD7
:1037400009D0C4685E000322B24024EA02048A68F9
:10375000B2402243C2604A6802F00302022A92D0B9
:1037600004685E000322B24024EA02044A6802F0C0
:103770000302B240224302604A6812F4403FC9D0BB
:10378000002201922C4A546C44F480445464526CDC
:1037900002F480420192019A9C08A61C244A52F825
:1037A000267003F0030296000F22B24027EA0207B8
:1037B000224A90423FF47AAF02F58062904222D0D2
:1037C00002F58062904220D002F5806290421ED0C5
:1037D00002F5806290421CD002F5806290421AD0BD
:1037E00002F58062904218D002F58062904216D0B5
:1037F00002F58062904214D002F5806290423FF45C
:1038000053AF0A2253E7012251E702224FE7032276
:103810004DE704224BE7052249E7062247E7072246
:1038200045E7082243E702B0F0BC7047704700BF8D
:1038300000380140003C01400038024000000240D6
:103840000AB181617047090481617047436901EAE7
:10385000030221EA030141EA02418161704700004D
:10386000002800F0DF8170B582B00446036813F0D1
:10387000010F3BD0A64B9B6803F00C03042B2CD00C
:10388000A34B9B6803F00C03082B21D06368B3F5AE
:10389000803F4FD0B3F5A02F52D09D4B1A6822F431
:1038A00080321A601A6822F480221A606368002B42
:1038B00050D0FFF7BDF80546954B1B6813F4003F49
:1038C00014D1FFF7B5F8401B6428F5D90320B0E107
:1038D0008F4B5B6813F4800FD8D08D4B1B6813F4AB
:1038E000003F03D06368002B00F09E81236813F033
:1038F000020F54D0864B9B6813F00C0F3ED0844BC4
:103900009B6803F00C03082B33D0E368002B67D0CF
:10391000804B01221A60FFF78BF805467C4B1B6831
:1039200013F0020F53D1FFF783F8401B0228F5D99B
:1039300003207EE1764A136843F480331360B5E7D1
:10394000734B1A6842F480221A601A6842F480327B
:103950001A60ABE7FFF76CF805466D4B1B6813F474
:10396000003FC3D0FFF764F8401B6428F5D903205B
:103970005FE1674B5B6813F4800FC6D1644B1B6833
:1039800013F0020F03D0E368012B40F04F81604A2F
:10399000136823F0F803216943EAC1031360236825
:1039A00013F0080F40D0636963B35B4B01221A60C8
:1039B000FFF73EF80546564B5B6F13F0020F33D10D
:1039C000FFF736F8401B0228F5D9032031E1504AB1
:1039D000136823F0F803216943EAC1031360DEE7AB
:1039E0004C4B00221A60FFF723F80546484B1B6832
:1039F00013F0020FD3D0FFF71BF8401B0228F5D9B4
:103A0000032016E1444B00221A60FFF711F8054627
:103A10003F4B5B6F13F0020F06D0FFF709F8401B16
:103A20000228F5D9032004E1236813F0040F78D0AD
:103A3000374B1B6C13F0805F0DD100230193344B87
:103A40001A6C42F080521A641B6C03F0805301938D
:103A5000019B012500E00025304B1B6813F4807F9B
:103A600021D0A368012B32D0052B36D0284B1A6FFA
:103A700022F001021A671A6F22F004021A67A36883
:103A8000002B34D0FEF7D4FF0646214B1B6F13F0FA
:103A9000020F45D1FEF7CCFF801B41F288339842DC
:103AA000F3D90320C5E01D4A136843F48073136003
:103AB000FEF7BEFF0646194B1B6813F4807FD0D17A
:103AC000FEF7B6FF801B0228F5D90320B1E0104AAB
:103AD000136F43F001031367D1E70D4B1A6F42F0E8
:103AE00004021A671A6F42F001021A67C7E7FEF76D
:103AF0009FFF0646064B1B6F13F0020F10D0FEF718
:103B000097FF801B41F288339842F3D9032090E05D
:103B10000038024000004742800E474200700040DB
:103B2000EDB9A369002B00F08380494A926802F046
:103B30000C02082A51D0022B17D0464B00221A60E3
:103B4000FEF776FF0446424B1B6813F0007F42D01D
:103B5000FEF76EFF001B0228F5D9032069E03C4AFE
:103B6000136C23F080531364DBE73A4B00221A6096
:103B7000FEF75EFF0546364B1B6813F0007F06D04C
:103B8000FEF756FF401B0228F5D9032051E0E369F8
:103B9000226A1343626A43EA8213A26A5208013A14
:103BA00043EA0243E26A43EA0263294A5360294B2B
:103BB00001221A60FEF73CFF0446254B1B6813F0F8
:103BC000007F06D1FEF734FF001B0228F5D9032041
:103BD0002FE000202DE000202BE0012B2BD01C4BF0
:103BE0005B6803F48001E269914226D103F03F0251
:103BF000216A8A4223D1616A47F6C0721A40B2EB49
:103C0000811F1ED103F44031A26A5208013AB1EB80
:103C1000024F18D103F07063E26AB3EB026F14D164
:103C2000002006E001207047012002E0012000E0B2
:103C3000002002B070BD0120FBE70120F9E7012060
:103C4000F7E70120F5E70120F3E70120F1E700BFE6
:103C50000038024060004742F8B5244B9B6803F0EF
:103C60000C03042B3DD0082B3DD1204B5A6802F0A9
:103C70003F025B6813F4800F12D01C4B5968C1F3EC
:103C8000881100231A48A1FB0001FCF7DDFA174B4D
:103C90005B68C3F3014301335B00B0FBF3F023E047
:103CA000124B5B68C3F388135C010025E41A65F1CD
:103CB0000005AE0146EA9466A701381B66EB0501D4
:103CC000CC0044EA5074C500E81844F100018B02AE
:103CD00043EA90538402204619460023FCF7B4FAC5
:103CE000D5E7034800E00348F8BD00BF00380240B4
:103CF000001BB7000024F400002800F09B8070B582
:103D00000D4604464F4B1B6803F00F038B4208D24D
:103D1000CBB24C4A1370136803F00F038B4240F090
:103D20008B80236813F0020F17D013F0040F04D018
:103D3000454A936843F4E0539360236813F0080FF7
:103D400004D0414A936843F4604393603E4A9368C9
:103D500023F0F003A1680B439360236813F0010F75
:103D600032D06368012B21D09A1E012A25D9364A08
:103D7000126812F0020F61D033498A6822F0030200
:103D800013438B60FEF754FE06462F4B9B6803F0EF
:103D90000C036268B3EB820F16D0FEF749FE801B5E
:103DA00041F288339842F0D9032042E0264A126853
:103DB00012F4003FE0D101203BE0234A126812F0E8
:103DC000007FD9D1012034E01E4B1B6803F00F03A4
:103DD000AB4207D9EAB21B4B1A701B6803F00F0302
:103DE000AB422DD1236813F0040F06D0164A936816
:103DF00023F4E053E1680B439360236813F0080F4A
:103E000007D0114A936823F46043216943EAC10350
:103E10009360FFF721FF0C4B9B68C3F303130B4A1E
:103E2000D35CD8400A4B18600A4B1868FEF708FCB0
:103E3000002070BD012070470120FAE70120F8E75B
:103E40000120F6E7003C024000380240A46B000865
:103E50004008002048080020014B1868704700BF48
:103E60004008002008B5FFF7F7FF044B9B68C3F339
:103E70008223034AD35CD84008BD00BF003802400B
:103E8000B46B000808B5FFF7E7FF044B9B68C3F36A
:103E90004233034AD35CD84008BD00BF003802401B
:103EA000B46B00080F2303600B4B9A6802F0030207
:103EB00042609A6802F0F00282609A6802F4E0526E
:103EC000C2609B68DB0803F4E0530361034B1B688B
:103ED00003F00F030B60704700380240003C0240C3
:103EE0007047000090F83D30DBB2012B37D1022340
:103EF00080F83D300268D36843F00103D360036863
:103F0000194A934220D0B3F1804F1DD0A2F57C42D4
:103F1000934219D002F58062934215D002F5806277
:103F2000934211D002F5784293420DD002F57052BF
:103F3000934209D0A2F59432934205D01A6842F018
:103F400001021A60002070479A6802F00702062AF0
:103F500007D01A6842F001021A6000207047012061
:103F600070470020704700BF000001407047704755
:103F70007047704710B5044603681A6912F0020FC3
:103F800011D0DA6812F0020F0DD06FF002021A6140
:103F90000123037703689B6913F0030F70D0FFF7C9
:103FA000E6FF0023237723681A6912F0040F12D06A
:103FB000DA6812F0040F0ED06FF004021A610223C7
:103FC000237723689B6913F4407F5FD02046FFF777
:103FD000CEFF0023237723681A6912F0080F12D04E
:103FE000DA6812F0080F0ED06FF008021A6104238D
:103FF00023772368DB6913F0030F4ED02046FFF7C9
:10400000B6FF0023237723681A6912F0100F12D02D
:10401000DA6812F0100F0ED06FF010021A61082348
:1040200023772368DB6913F4407F3DD02046FFF7F8
:104030009EFF0023237723681A6912F0010F03D033
:10404000DA6812F0010F36D123681A6912F0800F76
:1040500003D0DA6812F0800F34D123681A6912F0A5
:10406000400F03D0DA6812F0400F32D123681A698A
:1040700012F0200F03D0DA6812F0200F30D110BDFB
:10408000FFF774FF2046FFF773FF8AE72046FFF72C
:104090006DFF2046FFF76CFF9BE72046FFF766FFAA
:1040A0002046FFF765FFACE72046FFF75FFF20469D
:1040B000FFF75EFFBDE76FF001021A612046FEF7D1
:1040C00023FAC1E76FF080021A61204600F0A1F8E0
:1040D000C3E76FF040021A612046FFF74AFFC5E7C9
:1040E0006FF020021A61204600F092F8C7E7000046
:1040F0000368304A904212D0B0F1804F0FD0A2F541
:104100007C4290420BD002F58062904207D002F5CB
:104110008062904203D002F57842904203D123F0AE
:1041200070034A681343234A90422AD0B0F1804F6B
:1041300027D0A2F57C42904223D002F580629042C3
:104140001FD002F5806290421BD002F57842904267
:1041500017D002F57052904213D002F5806290425F
:104160000FD002F5806290420BD0A2F598329042B7
:1041700007D002F58062904203D002F5806290423F
:1041800003D123F44073CA68134323F080034A69C0
:10419000134303608B68C3620B688362054B9842CC
:1041A00003D003F58063984201D10B6903630123B7
:1041B000436170470000014040B310B5044690F8D9
:1041C0003D30F3B1022384F83D30214651F8040B11
:1041D000FFF78EFF012384F8463084F83E3084F8E0
:1041E0003F3084F8403084F8413084F8423084F81D
:1041F000433084F8443084F8453084F83D30002062
:1042000010BD80F83C30FFF76BFEDBE70120704704
:1042100070477047026802F10C0353E8003F23F037
:10422000C0030C3242E800310029F3D1202380F88A
:104230003D307047026802F10C0353E8003F23F45D
:1042400090730C3242E800310029F3D1026802F188
:10425000140353E8003F23F00103143242E8003115
:104260000029F3D1036B012B05D0202380F83E30C9
:10427000002303637047026802F10C0353E8003F18
:1042800023F010030C3242E800310029F3D1ECE7AF
:1042900090F83D30DBB2212B01D0022070478368BB
:1042A000B3F5805F17D0036A5A1C02621A7803685C
:1042B0005A60C38C9BB2013B9BB2C3844BB902686A
:1042C000D36823F08003D3600268D36843F04003CF
:1042D000D360002070470369002BE4D1036A1B8878
:1042E0000268C3F308035360036A02330362E0E722
:1042F00070B504460268136923F44053C1680B4348
:10430000136183680269134342691343C2691A4304
:104310000168CB6823F4164323F00C031343CB60EE
:104320000268536923F4407381690B435361036846
:10433000344A934206D002F58062934202D0FFF7DE
:1043400091FD01E0FFF79EFDE369B3F5004F2AD030
:104350000026051846EB06012D1846EB0101CB009F
:1043600043EA5573EA001546194663689A009B0FA5
:10437000281846EB0101FBF767FF234DA5FB003230
:104380005109642303FB11031B013233A5FB0323F3
:104390005B0903F0F00202EB011203F00F03216846
:1043A00013448B6070BD0026051846EB06012D18DE
:1043B00046EB0101CB0043EA5573EA001546194666
:1043C00062683346921846EB0303281846EB010156
:1043D000FBF73AFF0C4DA5FB00325109642303FBA8
:1043E0001103DB003233A5FB03235B095A0002F4FF
:1043F000F87202EB011203F00703216813448B608B
:10440000D0E700BF001001401F85EB512DE9F843B4
:1044100005460F4616469946DDF820802C6824682C
:1044200037EA04030CBF01240024B4422DD1B8F1B3
:10443000FF3FF3D0B8F1000F05D0FEF7F9FAA0EB7B
:1044400009004045EAD92A6802F10C0353E8003F0D
:1044500023F4D0730C3242E800310029F3D12A68EA
:1044600002F1140353E8003F23F00103143242E841
:1044700000310029F3D1202385F83D3085F83E3006
:10448000002385F83C30032000E00020BDE8F883DD
:1044900058B310B5044690F83D300BB3242384F88C
:1044A0003D302268D36823F40053D3602046FFF7E1
:1044B0001FFF2268136923F4904313612268536934
:1044C00023F02A0353612268D36843F40053D36076
:1044D00000202064202384F83D3084F83E3010BD55
:1044E00080F83C30FEF7D8F9D8E7012070472DE975
:1044F000F04182B01E4690F83D30DBB2202B54D103
:1045000004460D469046002953D0002A53D090F817
:104510003C30012B51D0012380F83C300023036450
:10452000212380F83D30FEF783FA0746A4F8248063
:10453000A4F82680A368B3F5805F05D04FF000088B
:10454000002384F83C3012E0236913B14FF00008D7
:10455000F6E7A8460025F3E738F8023B2268C3F3E4
:1045600008035360E28C92B2013A92B2E284E38C87
:104570009BB273B100963B46002280212046FFF794
:1045800045FFE0B9002DE7D015F8012B23685A60EC
:10459000E8E700963B46002240212046FFF736FF21
:1045A00078B9202384F83D3000E0022002B0BDE855
:1045B000F0810120FAE70120F8E70220F6E7032066
:1045C000F4E70320F2E710B5044603685A6990F84F
:1045D0003D30DBB2212B0AD023685A6902F0400239
:1045E00094F83E30DBB2222B19D0002010BD02F02F
:1045F0008002002AF0D0226802F1140353E8003F41
:1046000023F08003143242E800310029F3D1606BBB
:1046100008B1FEF7D2FE2046FFF7FCFDDCE7002ADA
:10462000E3D0226802F1140353E8003F23F0400373
:10463000143242E800310029F3D1A06B08B1FEF733
:10464000BCFE2046FFF7F6FDCFE7704708B50168CE
:10465000CA6822F04002CA60202280F83D20FFF79D
:10466000F4FF002008BD70477047704710B5846B99
:1046700023685A6994F83D30DBB2212B10D02368AF
:104680005A6902F0400294F83E30DBB2222B11D07E
:10469000236C43F0100323642046FFF7E6FF10BDB0
:1046A00002F08002002AEAD00023E3842046FFF7CC
:1046B000B1FDE4E7002AEBD00023E3852046FFF7B5
:1046C000B9FDE5E708B5806B0023C385C384FFF718
:1046D000CCFF08BD704790F83E30DBB2222B67D18B
:1046E0008368B3F5805F4DD0826AB3F5805F04D0F4
:1046F000002B54D10369002B51D103685B68137000
:10470000836A01338362C38D9BB2013B9BB2C38535
:10471000002B4FD100B583B00268D36823F020038B
:10472000D3600268D36823F48073D360026853694E
:1047300023F001035361202380F83E30036B012BEB
:1047400033D100230363026802F10C0353E8003FF6
:1047500023F010030C3242E800310029F3D1036842
:104760001A6812F0100F06D0002201921A68019206
:104770005B680193019B818DFFF7ACFF002003B0C4
:104780005DF804FB0269002AAED1826A03685B68A7
:10479000C3F308031380836A02338362B3E70368B9
:1047A0005B6803F07F031370AAE7FFF75CFFE5E7A0
:1047B000022070470020704730B583B0044602687D
:1047C0001368D068516913F00F0505D113F0200F5D
:1047D00002D010F0200F19D12DB111F0010119D123
:1047E00010F4907F16D1216B01297DD013F0800F3A
:1047F00003D010F0800F40F0158113F0400F03D06C
:1048000010F0400F40F0128103B030BD2046FFF79A
:1048100062FFF9E713F0010F06D010F4807F03D098
:10482000226C42F00102226413F0040F04D019B18B
:10483000226C42F00202226413F0020F04D019B17C
:10484000226C42F00402226413F0080F07D010F02B
:10485000200F00D119B1226C42F008022264226CB0
:10486000002AD1D013F0200F02D010F0200F29D150
:1048700023685B6903F04003226C12F0080F00D13B
:1048800063B32046FFF7D6FC23685B6913F0400F43
:1048900020D0226802F1140353E8003F23F04003C4
:1048A000143242E800310029F3D1A36B73B1614A9D
:1048B0001A65A06BFEF7CBFD0028A5D0A06B036D99
:1048C0009847A1E72046FFF706FFD1E72046FFF70C
:1048D000CCFE99E72046FFF7C8FE95E72046FFF794
:1048E000C4FE002323648FE713F0100F3FF47EAF64
:1048F00010F0100F3FF47AAF002301931368019377
:1049000053680193019B536913F0400F50D0A26B81
:1049100013685B689BB2002B3FF476AFA18D994280
:104920007FF672AFE385D369B3F5807F37D0226815
:1049300002F10C0353E8003F23F480730C3242E889
:1049400000310029F3D1226802F1140353E8003F3B
:1049500023F00103143242E800310029F3D1226828
:1049600002F1140353E8003F23F04003143242E8FD
:1049700000310029F3D1202384F83E300023236343
:10498000226802F10C0353E8003F23F010030C32BD
:1049900042E800310029F3D1A06BFEF70EFDA18D96
:1049A000E38D9BB2C91A89B22046FFF793FE2BE72D
:1049B000A18DE38D9BB2C91A89B2E38D9BB2002B06
:1049C0003FF422AF00293FF41FAF226802F10C032D
:1049D00053E8003F23F490730C3242E80030002883
:1049E000F3D1226802F1140353E8003F23F00103DE
:1049F000143242E800300028F3D1202384F83E30FE
:104A000000232363226802F10C0353E8003F23F0E4
:104A100010030C3242E800300028F3D12046FFF7A3
:104A200059FEF1E62046FFF733FCEDE62046FFF79E
:104A30000DFEE9E6C546000808B5806B036B012B47
:104A400002D0FFF711FE08BD818D4908FFF742FE35
:104A5000F9E708B50346806B1B681B6813F4807F79
:104A60002BD10023C385026802F10C0353E8003FF9
:104A700023F480730C3242E800310029F3D102683C
:104A800002F1140353E8003F23F00103143242E81B
:104A900000310029F3D1026802F1140353E8003F0A
:104AA00023F04003143242E800310029F3D12023DF
:104AB00080F83E30036B012B05D0036B012B0FD028
:104AC000FFF7D1FD08BD026802F10C0353E8003F77
:104AD00023F010030C3242E800310029F3D1ECE757
:104AE000818DFFF7F7FDEDE730B583B0044613463F
:104AF0008162828500250564222280F83E20826B37
:104B00002048D063A26B20481064A26B1F48D06479
:104B1000A26B156520680A46011DA06BFEF718FC04
:104B2000019523681A6801925B680193019B84F8E0
:104B30003C5023695BB1226802F10C0353E8003F4B
:104B400043F480730C3242E800310029F3D122682B
:104B500002F1140353E8003F43F00103143242E82A
:104B600000310029F3D1226802F1140353E8003F19
:104B700043F04003143242E800310029F3D1002011
:104B800003B030BD534A0008394A00086D4600089A
:104B900008B590F83E30DBB2202B0DD171B17AB15F
:104BA00090F83C30012B0DD0012380F83C300023DD
:104BB0000363FFF799FF00E0022008BD0120FCE736
:104BC0000120FAE70220F8E708B501F024FF10B150
:104BD00002684068904708BD08B5054B1B6801F0A6
:104BE0002FFC012800D108BD00F044FAFBE700BF0C
:104BF00010E000E0EFF305832BB9064B186828B9E5
:104C000001221A6070476FF0050070474FF0FF30C7
:104C1000704700BFF40C0020EFF3058373B90A4B13
:104C20001B68012B0DD110B50024084BDC77064B17
:104C300002221A6001F062F9204610BD6FF00500F3
:104C400070474FF0FF307047F40C002000ED00E09B
:104C5000F0B587B000240594EFF3058474BB68B306
:104C600022B31568936903B918235C1E372C49D801
:104C7000546814F0010F47D156696EB14FEA960C93
:104C800094682CB1D7685B2F02D9176907B1C6B9F0
:104C90002CB14FF0FF340EE04FF0800CF0E7D468F9
:104CA0008CB9146994B14FF0FF3404E01546002428
:104CB00018234FF0800C012C0AD0ACB1059807B036
:104CC000F0BD0124F7E74FF0FF34F4E70024F2E7EA
:104CD000146992680292019400930B466246294639
:104CE00001F09EF80590E9E705AA019200930B46B2
:104CF0001FFA8CF2294601F0CDF80128DED00023FE
:104D00000593DBE70020DAE70020D8E708B5EFF3EA
:104D1000058333B908B9002008BD01F051FA00201D
:104D2000FAE76FF00500F7E72DE9F04383B0EFF302
:104D30000587002F43D10646894615461C460028A4
:104D40003FD0082000F0DCFA804600283BD0066007
:104D50004560B9F1000F00D0012704B32068A368B3
:104D600013B1E2682B2A10D853B14FF0FF33DBB1F7
:104D70000024404600F042FB204603B0BDE8F0832B
:104D8000E3687BB14FF0FF33F1E701930F4B0093E2
:104D900043463A46012101F08BFC04460CE02046D4
:104DA0000023E4E70023E2E7084B009343463A463A
:104DB000012101F061FC0446002CDDD1D9E700247B
:104DC000DAE70024D8E70446D6E700BFC94B00085D
:104DD000EFF305836BB90A4670B100B583B0009359
:104DE000042101F08DFC012809D1002003B05DF8F9
:104DF00004FB6FF0050070476FF0030070476FF021
:104E00000200F3E7034B0360034B0B608023136046
:104E1000704700BF980C0020980A0020034B0360E5
:104E2000034B0B604FF4807313607047F810002041
:104E3000F80C002000F1080343604FF0FF3282605D
:104E4000C360036100230360704700230361704760
:104E500043684B609A688A60516099600861036892
:104E600001330360704730B40D68B5F1FF3F11D0D6
:104E700000F108031C465B681A68AA42FAD9636805
:104E80004B6099608C606160086103680133036066
:104E900030BC70470469F2E70369416882688A6040
:104EA000416851605A68824206D0002202611A6845
:104EB000013A1A601868704782685A60F5E7000086
:104EC00082B0002301930D4B1B68B3F1FF3F08D064
:104ED0004FF0500383F31188BFF36F8FBFF34F8FF1
:104EE000FEE74FF0500383F31188BFF36F8FBFF3DA
:104EF0004F8F019B002BFCD002B070474C08002064
:104F000008480068006880F308884FF0000080F3CC
:104F1000148862B661B6BFF34F8FBFF36F8F00DFA7
:104F200000BF000008ED00E0DFF80C00016841F46C
:104F3000700101607047000088ED00E04FF0807361
:104F400040F8043C21F0010140F8081C054B40F8F2
:104F50000C3C40F8202C6FF0020340F8243C44380D
:104F6000704700BFC14E00080000000000000000B4
:104F7000074B19680868B0E8F04F80F30988BFF361
:104F80006F8F4FF0000080F311887047AFF30080FF
:104F9000BC4D00204FF0500383F31188BFF36F8F97
:104FA000BFF34F8F0A4A136801331360012B00D0FF
:104FB0007047084B1B6813F0FF0FF9D04FF05003F8
:104FC00083F31188BFF36F8FBFF34F8FFEE700BFEE
:104FD0004C08002004ED00E0094B1B6843B94FF07A
:104FE000500383F31188BFF36F8FBFF34F8FFEE73A
:104FF000013B034A13600BB983F31188704700BF6C
:105000004C0800200000000000000000000000002C
:10501000EFF30980BFF36F8F154B1A681EF0100F66
:1050200008BF20ED108A20E9F04F10602DE909003B
:105030004FF0500080F31188BFF34F8FBFF36F8F95
:1050400001F0E4F84FF0000080F3118809BC196802
:105050000868B0E8F04F1EF0100F08BFB0EC108ADF
:1050600080F30988BFF36F8F704700BFAFF30080F4
:10507000BC4D002008B54FF0500383F31188BFF3F7
:105080006F8FBFF34F8F00F091FF18B1034B4FF0BC
:1050900080521A60002383F3118808BD04ED00E0FC
:1050A000084A0023136008490B60084B1B68084935
:1050B000A1FB03139B09013B06490B600723136007
:1050C000704700BF10E000E018E000E0400800205A
:1050D000D34D621014E000E03A4B1A683A4B9A4202
:1050E00029D0384B1A68394B9A422DD010B582B06E
:1050F000374B1A78D2B20192FF221A701B78DBB2BA
:105100008DF803309DF8033003F05003314A1370DB
:10511000314B07221A609DF8033013F0800F1CD02A
:105120002D4A1368013B13609DF803305B00DBB22E
:105130008DF80330EFE74FF0500383F31188BFF38E
:105140006F8FBFF34F8FFEE74FF0500383F311884B
:10515000BFF36F8FBFF34F8FFEE71F4B1B68032B0F
:1051600008D04FF0500383F31188BFF36F8FBFF364
:105170004F8FFEE71B0203F4E063174A1360019BA5
:10518000DBB2134A1370154B1A6842F470021A60AE
:105190001A6842F070421A60FFF782FF0024104B39
:1051A0001C60FFF7C1FE0F4A136843F040431360D1
:1051B000FFF7A6FE01F02AF8FFF782FE204602B0B4
:1051C00010BD00BF00ED00E071C20F4170C20F4181
:1051D00000E400E0541100205811002020ED00E010
:1051E0004C08002034EF00E0EFF305830F2B0FD9BC
:1051F000104A9B5CDBB2104A12789A4208D94FF0F1
:10520000500383F31188BFF36F8FBFF34F8FFEE717
:105210000A4B1B6803F4E063094A1268934208D9F9
:105220004FF0500383F31188BFF36F8FBFF34F8F9D
:10523000FEE77047F0E300E0541100200CED00E0C1
:1052400058110020124A12F0070F1ED0D11D21F074
:105250000701C1F5705313440A460E48026000214D
:1052600041601344083B23F007030B480360596077
:105270001960991A51601360084B1960084B196046
:10528000084B4FF000421A6070474FF47053E4E748
:1052900060110020744D00205C110020684D00203A
:1052A000644D0020604D002010B4134B1A461B685B
:1052B0008342FBD35168541884420AD04168441891
:1052C000A3420BD00360904200D010605DF8044B05
:1052D00070474068014451601046EFE7074C24686E
:1052E000A34206D05B681944416013681B680360E1
:1052F000E9E70460E7E700BF744D00205C1100207F
:1053000070B5044600F044FE364B1B68A3B1364B23
:105310001B681C424ED134B1083414F0070F02D080
:1053200024F007040834002C46D0304B1B68A342FD
:1053300051D32F4B1D6804E0FFF784FFE7E72B46AE
:1053400015466A68A24202D22A68002AF7D1254A85
:105350001268AA4241D01E6808362A681A606B6833
:105360001B1B102B10D9281910F0070F08D04FF075
:10537000500383F31188BFF36F8FBFF34F8FFEE7A6
:1053800043606C60FFF790FF6A6818490B689B1ACE
:105390000B60184909688B4201D216490B60124B09
:1053A0001B6813436B6000232B60134A136801339F
:1053B000136002E0002600E0002600F085FE16F0F3
:1053C000070F0CD04FF0500383F31188BFF36F8F9A
:1053D000BFF34F8FFEE70026EFE70026EDE73046EC
:1053E00070BD00BF5C110020604D0020644D0020A6
:1053F000744D0020684D00206C4D0020002834D0F2
:1054000038B50446A0F1080550F8043C174A126864
:10541000134208D14FF0500383F31188BFF36F8F0D
:10542000BFF34F8FFEE750F8081C41B14FF0500317
:1054300083F31188BFF36F8FBFF34F8FFEE723EA2B
:10544000020340F8043C00F0A3FD54F8041C084A91
:1054500013680B4413602846FFF726FF054A1368BC
:105460000133136000F030FE38BD7047604D0020FE
:10547000644D0020704D002010B50446FFF78AFDF2
:10548000A26BE36B9A4204D00024FFF7A5FD2046EF
:1054900010BD0124F9E710B50446FFF77BFDA36BAF
:1054A00023B90124FFF798FD204610BD0024F9E739
:1054B00070B504461546866B026C5AB903681BB179
:1054C00000200136A66370BD806800F0C9FF00238C
:1054D000A360F6E76DB94068FBF77CF8226C63685F
:1054E00013446360A268934219D32368636028461B
:1054F000E7E7C068FBF76EF8226C5142E3689B1A3D
:10550000E3602268934202D2A3680B44E360022D59
:1055100001D00020D5E726B1013E0020D1E7284682
:10552000CFE70020CDE70346026C6AB110B508460C
:10553000D9681144D9609C68A14201D31968D96027
:10554000D968FBF747F810BD704738B50546FFF737
:1055500021FD95F8454064B203E000F06BFF013C8B
:1055600064B2002C08DD6B6A33B105F1240000F051
:10557000CDFE0028F3D0F0E7FF2385F84530FFF794
:105580002BFDFFF707FD95F8444064B203E000F0FF
:1055900051FF013C64B2002C08DD2B6933B105F1E9
:1055A000100000F0B3FE0028F3D0F0E7FF2385F8E9
:1055B0004430FFF711FD38BD38B5E0B10D46044663
:1055C000FFF7E8FC2168E26B236C03FB0210A0608C
:1055D0000020A0636160013A02FB0313E360FF2334
:1055E00084F8443084F84530EDB9236963B9FFF796
:1055F000F3FC012038BD4FF0500383F31188BFF353
:105600006F8FBFF34F8FFEE704F1100000F07EFEB6
:105610000028ECD0084B4FF080521A60BFF34F8F38
:10562000BFF36F8FE3E704F11000FFF703FC04F111
:105630002400FFF7FFFBDAE704ED00E038B51D4674
:10564000049C0B4649B92460E06323640121204691
:10565000FFF7B2FF84F84C5038BD2260F4E740B940
:105660004FF0500383F31188BFF36F8FBFF34F8F59
:10567000FEE730B585B01C46054653B192B189B9F5
:105680004FF0500383F31188BFF36F8FBFF34F8F39
:10569000FEE74FF0500383F31188BFF36F8FBFF322
:1056A0004F8FFEE76AB150230393039B502B13D017
:1056B0004FF0500383F31188BFF36F8FBFF34F8F09
:1056C000FEE70029EFD04FF0500383F31188BFF3BA
:1056D0006F8FBFF34F8FFEE7039B012384F84630A3
:1056E00000949DF820302846FFF7A8FF204605B01B
:1056F00030BD0000F0B585B0019288B10E461D4660
:105700000446B1B1022D20D1E36B012B1DD04FF027
:10571000500383F31188BFF36F8FBFF34F8FFEE702
:105720004FF0500383F31188BFF36F8FBFF34F8F98
:10573000FEE7036C002BE5D04FF0500383F3118894
:10574000BFF36F8FBFF34F8FFEE700F079FE074680
:1057500058B9019B002B44D04FF0500383F31188BC
:10576000BFF36F8FBFF34F8FFEE7002739E02A4664
:1057700031462046FFF79CFE626A6AB938B13C4B5D
:105780004FF080521A60BFF34F8FBFF36F8FFFF758
:1057900023FC012005B0F0BD04F1240000F0B6FDAB
:1057A0000028F4D0324B4FF080521A60BFF34F8F75
:1057B000BFF36F8FEBE7FFF70FFC0020EAE702A8CB
:1057C00000F0EAFD012719E0002384F8443021E0CD
:1057D000002384F8453023E02046FFF7B6FE00F0B2
:1057E00073FCFFF7D7FBA26BE36B9A42BFD3022D8A
:1057F000BDD0019B002BDED0002FE0D0FFF7ECFBEB
:1058000000F0C6FBFFF7C6FB94F844305BB2B3F17F
:10581000FF3FD9D094F845305BB2B3F1FF3FD7D00A
:10582000FFF7DAFB01A902A800F0C2FDC8B92046C3
:10583000FFF722FE0028CFD0019904F1100000F0FC
:1058400031FD2046FFF781FE00F03EFC0028C8D164
:10585000074B4FF080521A60BFF34F8FBFF36F8F2B
:10586000BFE72046FFF771FE00F02EFC002091E715
:1058700004ED00E02DE9F84390B1894690461F46BB
:105880000446B1B1022F20D1E36B012B1DD04FF0A4
:10589000500383F31188BFF36F8FBFF34F8FFEE781
:1058A0004FF0500383F31188BFF36F8FBFF34F8F17
:1058B000FEE7036C002BE5D04FF0500383F3118813
:1058C000BFF36F8FBFF34F8FFEE7FFF78DFCEFF352
:1058D00011864FF0500383F31188BFF36F8FBFF32E
:1058E0004F8FA26BE36B9A4206D3022F04D00020A5
:1058F00086F31188BDE8F88394F845506DB2A36B28
:105900003A4649462046FFF7D3FDB5F1FF3F05D0A3
:105910006B1C5BB284F845300120E9E7636A0BB980
:105920000120E5E704F1240000F0F0FC30B1B8F10B
:10593000000F05D00120C8F80000D9E70120D7E703
:105940000120D5E7F0B585B0019290B10E4604462E
:10595000C1B100F075FD074600BB019B002B5CD078
:105960004FF0500383F31188BFF36F8FBFF34F8F56
:10597000FEE74FF0500383F31188BFF36F8FBFF33F
:105980004F8FFEE7036C002BE3D04FF0500383F3FF
:105990001188BFF36F8FBFF34F8FFEE700273CE006
:1059A00031462046FFF7BFFD013DA563236923B9BA
:1059B000FFF712FB012005B0F0BD04F1100000F06C
:1059C000A5FC0028F4D0354B4FF080521A60BFF38D
:1059D0004F8FBFF36F8FEBE7FFF7FEFA0020EAE788
:1059E00002A800F0D9FC012721E0002384F844300C
:1059F00029E0002384F845302BE02046FFF7A5FD81
:105A000000F062FB09E02046FFF79FFD00F05CFB21
:105A10002046FFF740FD00283DD1FFF7BBFAA56BFC
:105A2000002DBDD1019B002BD6D0002FD8D0FFF781
:105A3000D3FA00F0ADFAFFF7ADFA94F844305BB258
:105A4000B3F1FF3FD1D094F845305BB2B3F1FF3FE3
:105A5000CFD0FFF7C1FA01A902A800F0A9FC0028E5
:105A6000D1D12046FFF717FD0028C6D0019904F1D7
:105A7000240000F017FC2046FFF767FD00F024FB30
:105A80000028CAD1054B4FF080521A60BFF34F8FE8
:105A9000BFF36F8FC1E700208DE700BF04ED00E08A
:105AA000002300E00133072B0BD8064A52F83320BD
:105AB000002AF7D1034A42F8331002EBC3035860BF
:105AC000704770477C4D002070B504460D46164661
:105AD000FFF760FA94F844305BB2B3F1FF3F0DD0AA
:105AE00094F845305BB2B3F1FF3F0BD0FFF774FA87
