:020000040800F2
:1000000000000320D9250008A5230008A723000825
:10001000A9230008AB230008AD230008000000005E
:10002000000000000000000000000000AF230008F6
:10003000B123000800000000B3230008B523000826
:100040002926000829260008292600082926000854
:100050002926000829260008292600082926000844
:10006000292600082926000829260008BD230008A3
:100070002926000829260008292600082926000824
:1000800029260008CD230008292600082926000873
:100090002926000829260008292600082926000804
:1000A00029260008292600082926000829260008F4
:1000B00029260008292600082926000829260008E4
:1000C00029260008292600082926000829260008D4
:1000D00029260008292600082926000829260008C4
:1000E00029260008292600082926000829260008B4
:1000F00029260008292600082926000829260008A4
:100100002926000829260008292600082926000893
:100110002926000829260008292600082926000883
:100120002926000829260008292600082926000873
:100130002926000829260008292600082926000863
:100140002926000829260008292600082926000853
:100150002926000829260008292600082926000843
:100160002926000829260008292600082926000833
:10017000292600082926000829260008000000007A
:10018000292600082926000829260008DD23000862
:100190002926000829260008292600082926000803
:0C01A000000000000000000029260008FC
:1001C0000348044B834202D0034B03B118477047E6
:1001D0004C0800204C08002000000000054806499B
:1001E0000B1AD90F01EBA301491002D0034B03B145
:1001F000184770474C0800204C0800200000000001
:1002000010B5064C237843B9FFF7DAFF044B13B15E
:100210000448AFF300800123237010BD4C08002078
:1002200000000000903B000808B5044B1BB10449D6
:100230000448AFF30080BDE80840CFE700000000AD
:1002400050080020903B000853B94AB9002908BF64
:1002500000281CBF4FF0FF314FF0FF3000F06CB9A9
:10026000ADF1080C6DE904CE00F006F8DDF804E00D
:10027000DDE9022304B070472DE9F047089E0D46E2
:1002800004468E46002B40F082808A42174646D9AB
:10029000B2FA82F24AB1C2F1200105FA02F320FA61
:1002A00001F1974041EA030E94404FEA1748230CAE
:1002B000BEFBF8FCB9B208FB1CEE43EA0E430CFB94
:1002C00001F098420AD9FB180CF1FF3580F0168135
:1002D000984240F21381ACF1020C3B441B1AA4B2C9
:1002E000B3FBF8F008FB103344EA034400FB01F1D0
:1002F000A14209D93C1900F1FF3380F00181A142EC
:1003000040F2FE8002383C44641A40EA0C4000216E
:100310001EB1D4400023C6E90043BDE8F08702B90E
:10032000FFDEB2FA82F2002A4FD1CB1B4FEA174E02
:100330001FFA87F80121B3FBFEFC250C0EFB1C33D2
:1003400045EA034508FB0CF3AB4207D97D190CF1D4
:10035000FF3002D2AB4200F2E7808446ED1AA3B22E
:10036000B5FBFEF00EFB105543EA054408FB00F810
:10037000A04507D93C1900F1FF3302D2A04500F295
:10038000D7801846A4EB080440EA0C40C0E78B4233
:1003900008D9002E00F0AF800021C6E9000508460C
:1003A000BDE8F087B3FA83F100294BD1AB4202D309
:1003B000824200F2B780841A65EB030301209E4657
:1003C000002EAAD0C6E9004EA7E7C2F1200C01FA20
:1003D00002F3974020FA0CF04FEA174E21FA0CFC7A
:1003E0001843BCFBFEF1050C0EFB11CC1FFA87F87D
:1003F00045EA0C4501FB08F3AB4204FA02F409D9C3
:100400007D1901F1FF3C80F08B80AB4240F2888087
:1004100002393D44EB1A85B2B3FBFEF00EFB1033FC
:1004200045EA034500FB08F3AB4207D97D1900F10B
:10043000FF3C71D2AB426FD902383D44EB1A40EA1F
:10044000014178E7C1F1200C8B4022FA0CF71F43E1
:1004500020FA0CF405FA01F34FEA174E25FA0CF5D1
:100460001C43230CB5FBFEF91FFA87F80EFB195548
:1004700043EA054509FB08FAAA4502FA01F200FA27
:1004800001F308D97D1909F1FF3047D2AA4545D9B2
:10049000A9F102093D44A5EB0A05A4B2B5FBFEF0A3
:1004A0000EFB105544EA054400FB08F8A04507D9A7
:1004B0003C1900F1FF352DD2A0452BD902383C4420
:1004C00040EA0940A4EB0804A0FB02894C45C6465B
:1004D0004D4619D316D05EB1B3EB0E0264EB0504A2
:1004E00004FA0CFCCA404CEA0202CC40C6E90024E3
:1004F0000021BDE8F087314630460EE7AC46EDE618
:10050000184601E74345E6D2B8EB020E69EB070552
:100510000138E0E72846D3E760468FE78146BAE72F
:10052000614677E708464BE7ACF1020C3D4415E71E
:1005300002383C4426E700BF704700BF0023014655
:100540001A46184600F04AB9014B1868704700BFB8
:100550000000002038B50A4C0A4D641BA4100AD0D4
:1005600004F18043013B05EB8305013C55F8043958
:100570009847002CF9D1BDE8384003F00FBB00BF0D
:10058000EC3B0008E83B000870B50D4E0D4D761BA6
:10059000B61006D00024013455F8043B9847A64213
:1005A000F9D1094E094D761B03F0F2FAB61006D0C8
:1005B0000024013455F8043B9847A642F9D170BD98
:1005C000E03B0008E03B0008E83B0008E03B000897
:1005D000F0B4860746D0541E002A3CD0CAB2034667
:1005E00002E014F1FF3436D303F8012B9D07F8D154
:1005F000032C29D9CDB245EA05250F2C45EA05453E
:1006000033D9A4F11006360903F1200707EB0617CA
:1006100003F1100242E9045542E902551032BA4290
:10062000F8D1721C14F00C0F03EB021204F00F0649
:1006300013D0331F23F003030433134442F8045B45
:100640009342FBD106F003042CB1C9B21C4403F859
:10065000011B9C42FBD1F0BC704734461346002C72
:10066000F3D1F8E714460346C2E71A462646E0E708
:1006700070B5054688B008460C4600F041F8154AAA
:10068000AB6B04940126441C04A906920222039435
:100690000590AC680796CDE90112B3B1B4F90C30FE
:1006A0009A0406D4626E43F4005322F40052A381EC
:1006B00062662146284601AA00F0BEF9002814BF50
:1006C0004FF0FF300A2008B070BD284600F094F9C2
:1006D000E4E700BFD43B0008024B01461868FFF76F
:1006E000C7BF00BF000000200000000000000000A5
:1006F00000000000000000000000000000000000FA
:1007000090F800F06DE9024520F007016FF0000C51
:1007100010F0070491F820F040F049804FF00004F9
:100720006FF00700D1E9002391F840F000F10800D4
:1007300082FA4CF2A4FA8CF283FA4CF3A2FA8CF30C
:100740004BBBD1E9022382FA4CF200F10800A4FA73
:100750008CF283FA4CF3A2FA8CF3E3B9D1E90423C7
:1007600082FA4CF200F10800A4FA8CF283FA4CF3FE
:10077000A2FA8CF37BB9D1E9062301F1200182FAB8
:100780004CF200F10800A4FA8CF283FA4CF3A2FABE
:100790008CF3002BC6D0002A04BF04301A4612BACC
:1007A000B2FA82F2FDE8024500EBD2007047D1E9CF
:1007B000002304F00305C4F100004FEAC50514F05E
:1007C000040F91F840F00CFA05F562EA05021CBF2F
:1007D00063EA050362464FF00004A9E7F0B4184C41
:1007E0002568D5F8484114B365681F2D24DC38B955
:1007F000AB1C0135656044F823100020F0BC704745
:1008000004EB85060127C6F8882007FA05F2D4F81C
:100810008871022847EA0207C4F88871C6F80831CF
:10082000E6D1D4F88C311A43C4F88C21E0E705F501
:10083000A674C5F84841D7E74FF0FF30DEE700BFA8
:10084000A83B000800207047014900F09FBA00BF94
:100850003D1B00082DE9F84F45682C4BC36300246D
:10086000074600F53B7204230321C0E9B912C0F822
:10087000E0422146EB6005F15C006C66C5E900448E
:10088000AC60C5E90444AC610822FFF7A1FEDFF8C3
:1008900088B0BE68DFF884A0DFF88490DFF8848039
:1008A0001B4BC5F82C80C5E9075BC5E909A92146A2
:1008B000F360082206F15C007466C6E90044B46087
:1008C000C6E90444B461FFF783FEFD68114BC6F826
:1008D0002C80C6E9076BC6E909A92146EB606C6666
:1008E000C5E90044AC60C5E90444AC6105F15C00B5
:1008F0000822FFF76DFE0123C5E9075BC5E909A9D9
:10090000C5F82C80BB63BDE8F88F00BF490800081C
:1009100009000100120002008D190008B519000835
:10092000F5190008151A00080020704770B54A1E16
:10093000682505FB02F50E4605F1740100F050FA3A
:10094000044640B100210C30666005F16802216068
:10095000A060FFF73DFE204670BD00BF1F4B70B585
:100960001D68AB6B06464BB305F53875D5E9013408
:10097000013B05D51EE0013B5A1C04F1680419D067
:10098000B4F90C20002AF6D10025154B6566C4E9A0
:100990000055A560C4E90455A5612946E360082215
:1009A00004F15C00FFF714FEC4E90C55C4E91155CD
:1009B000204670BD2C682CB12546D7E72846FFF7A6
:1009C00049FFD1E704213046FFF7B0FF0446286015
:1009D0000028F1D10C233360EAE700BFA83B0008F0
:1009E0000100FFFF024B0349186800F0CFB900BFB8
:1009F000A83B00083D1B0008836B03B1704729E743
:100A0000704700BF704700BF704700BF704700BF0E
:100A1000024B0349186800F093B900BF00000020A2
:100A200045080008024B0349186800F089B900BF67
:100A300000000020290900089368002B00F00281C3
:100A40002DE9F04FB1F90C309BB20C46190783B079
:100A50008246904635D522699AB313F00202D8F83F
:100A600000603DD00027D4F824B0D4F81CC0DFF8D3
:100A7000CC923D464D452B463A4628BF4B466146F3
:100A80005046D5B1D847002840F3D280D8F8083076
:100A90001B1A07442D1AC8F80830002B00F0B78045
:100AA000D4F81CC0D4F824B04D452B463A4628BF94
:100AB0004B4661465046002DE4D1D6E90075083614
:100AC000D8E72146504600F0BFFF002840F03081B3
:100AD000B4F90C30D8F800609BB213F00202C1D117
:100AE00013F0010940F0B080A76820684D46002D42
:100AF00054D09A0540F1BC80AF42BB4600F2E7807B
:100B000013F4906F2FD0D4E9041707EB4707A0EB3D
:100B1000010B07EBD777681C7F105844B8423A4660
:100B200084BF07463A465B0540F1E98011465046CE
:100B300000F056F9002800F0F5805A46216901902E
:100B400000F056FCA289019B22F4906242F08002E0
:100B5000A281A7EB0B0203EB0B006761236120600E
:100B6000A2602F46AB465A46494600F0DBFCA2681D
:100B70002368D21B5B442F46A26023600025D8F86F
:100B80000830DB1BB944C8F80830002B3FD0B4F95B
:100B90000C30A76820689BB2002DAAD1D6E9009539
:100BA0000836A4E70BF1080353E902679B460833B4
:100BB000002FF9D03A460A21304600F0C9FB002840
:100BC00053D00130A0EB06094B46D4E9041220684B
:100BD000BB4228BF3B46884203D9A5681544AB42B7
:100BE00019DC9A427DDC1346656AE169324650465B
:100BF000A847051E1CDDB9EB05096BD00120D8F80C
:100C000008305B1B2E447F1BC8F8083013BB002044
:100C100003B0BDE8F08F31462A4600F083FC23681C
:100C20002B4423602146504601F07AF80028E2D098
:100C3000B4F90C3043F040034FF0FF30A38103B010
:100C4000BDE8F08F002070473346914610461746A6
:100C50004E469B46002FA5D00028B5D13A460A2122
:100C6000304600F075FB0028ABD17B1C9946ACE701
:100C70002369834215D36169A94212D82E4B676A52
:100C80009D4294BF2B466FF000434A4693FBF1F31D
:100C9000504601FB03F3E169B847071EC8DDED1BB1
:100CA0006DE7AF4228BF2F463A46494600F03AFC6E
:100CB000A3682268DB1B3A44A3602260002BEED1BC
:100CC0002146504601F02CF80028E8D0B0E72F4626
:100CD000AB4648E72146504601F022F800288ED066
:100CE000A6E71A463146019300F01CFC019BA1685F
:100CF0002268C91A1A44A16022601D467BE750464B
:100D000000F07CFC034600287FF423AF21695046A5
:100D100001F082F8B4F90C300C2223F08003CAF8F9
:100D2000002087E70C23CAF80030B4F90C3081E7C3
:100D30004FF0FF306CE700BFFEFFFF7F00FCFF7F3E
:100D40002DE9F04110F538771BD088460026D7E909
:100D50000154013D0FD4A389012B05F1FF3506D9BC
:100D6000B4F90E300133204601D0C04706436B1C56
:100D700004F16804EFD13F68002FE8D13046BDE8A8
:100D8000F0813E463046BDE8F08100BF2DE9F843D2
:100D900010F538771FD0884606464FF00009D7E98E
:100DA0000154013D11D4A389012B05F1FF3508D968
:100DB000B4F90E3001332146304602D0C04749EA2B
:100DC00000096B1C04F16804EDD13F68002FE6D1E7
:100DD0004846BDE8F883B9464846BDE8F88300BFF9
:100DE0002DE9F04F01F10B05162D83B0064623D8EF
:100DF000102900F2B98000F0FDFB10251823022015
:100E0000CD4F3B44A3F108025C68944200F0B980E6
:100E1000636823F003032344D4E902515A68E9606C
:100E200042F0010230468D605A6000F0E5FB083464
:100E3000204603B0BDE8F08F35F0070500F194803F
:100E4000A94200F2918000F0D5FBB5F5FC7FC0F01F
:100E50009D816B0A00F08F80042B00F27381AB0937
:100E600003F1390003F1380CC300B34F3B44A3F145
:100E700008015C68A14206D10CE0002A80F22B81B7
:100E8000E468A14206D0636823F003035A1B0F2ACB
:100E9000F3DD60463C69DFF8A4C264457CD063683A
:100EA00023F003035A1B0F2A00F37E81002AC7E9AF
:100EB00004CC80F26F81B3F5007F80F01A81DB08EB
:100EC000591C7A6857F83180C4F808804FF0010E39
:100ED0009B100EFA03F307EBC10E1343AEF10802A9
:100EE000E2607B6047F83140C8F80C408210012472
:100EF00094409C4256D81C4206D120F00300640066
:100F00001C4200F10400FAD007EBC009CE4680462F
:100F1000DEF80C309E4507D120E1002A80F22781BF
:100F2000DB689E4500F01A81596821F003014A1BD5
:100F30000F2AF2DDD3E9028E5C1945F001055D60F0
:100F400042F00105C8F80CE03046CEF80880C7E949
:100F50000444C4E902CC65605A50009300F04CFB95
:100F6000009B03F1080402E00C23336000242046B8
:100F700003B0BDE8F08F4FF4007340204FF03F0CFA
:100F800073E7DC68A34208BF02307FF441AF3C69DD
:100F9000DFF8A8C1644582D17B68821001249440A7
:100FA0009C42A8D9BC68636823F00308A84503D312
:100FB000A8EB05030F2B7EDCDFF88491D7F808241B
:100FC000D9F80030013204EB080A2B4400F03781D5
:100FD00003F580530F3323F47F6B2BF00F0B59462F
:100FE000304600F0C1FC411C024600F0F78082450B
:100FF00000F2F280D9F804105944C9F804100B46E5
:1010000000F05381D7F8081401311BBFA2EB0A0A84
:101010005344C7F80824C9F8043012F0070300F05D
:101020001A81C3F108010A44C3F580519344083181
:10103000A1EB0B01C1F30B0A51463046019300921C
:1010400000F092FC421CDDE9002300F05381831A7A
:1010500003EB0A0BD9F80410BA604BF001035144BA
:10106000BC425360C9F8041000F02B81B8F10F0F97
:1010700040F229816368A8F10C0020F0070003F01A
:10108000010304EB000C03434FF0050E0F286360CF
:10109000CCE901EE00F2358153681446D9F82C20D2
:1010A0008A42D9F8302038BFC9F82C108A4238BF9C
:1010B000C9F8301094E0621943F0010345F00105CE
:1010C00065603046BA60536000F096FA08342046F6
:1010D00003B0BDE8F08F2344E1685A68A56842F088
:1010E0000102E96030468D605A6000F085FA0834EC
:1010F0003DE75A0A042A69D9142A00F2BE8002F197
:101100005C01C9005B3207EB010E7958AEF1080EA5
:101110008E4500F097804A6822F003029A4202D975
:1011200089688E45F7D1D1F80CE07B68C4E9021ECE
:10113000CEF80840CC60D9E6300400203804002006
:1011400068080020142B59D9542B00F29E802B0BD9
:1011500003F16F0003F16E0CC30086E608F101088D
:1011600018F0030F0EF1080E7FF4D2AE51E01944CF
:101170001C464A68DB6854F8085F42F001024A6086
:101180003046EB609D6000F037FAF0E6E80805F1C4
:10119000080335E6234430465A6842F001025A609B
:1011A000083400F029FAE2E6611945F0010E42F038
:1011B0000105C4F804E03046C7E90411C1E902CCD6
:1011C0004D60E25000F018FA0834D0E69A0902F1B6
:1011D0003901C900383296E7BC4260D0BC68636808
:1011E00023F0030BAB45ABEB050302D30F2B3FF70B
:1011F00062AF304600F000FA0024B8E603F15C006C
:1012000003F15B0CC30030E659F808394B4540F058
:10121000968010F0030F00F1FF30F5D17B6823EAD0
:1012200004037B6064009C423FF6BCAE1CB9B9E687
:10123000640008F104081C42FAD0404664E603F159
:10124000100BCCE67B6892104FF0010808FA02F20E
:1012500013437B606AE702EB0B014942C1F30B0ABF
:10126000514630460193009200F07EFB431CDDE9BD
:1012700000237FF4ECAE9A46ECE6542A26D81A0BEB
:1012800002F16F01C9006E323DE7B3F5AA7F26D89F
:10129000EB0B03F1780003F1770CC300E5E5D9F817
:1012A00004305B44C9F80430ACE6CAF30B000028F4
:1012B0007FF4A8AE08EB0B03BC6843F00103636046
:1012C000ECE61446EAE60123536092E7B2F5AA7F02
:1012D00021D8DA0B02F17801C900773213E740F226
:1012E0005452934221D8AB0C03F17D0003F17C0CE6
:1012F000C300BAE5083B9B44ABEB020B4FF0000A7E
:10130000A8E604F10801304600F086FDBC68D9F873
:1013100004106368C2E640F254518A420BD89A0C1A
:1013200002F17D01C9007C32EDE64FF47E737F202F
:101330004FF07E0C99E54FF47E717E22E3E67B68E8
:1013400070E700BF00000000000000000000000087
:1013500001F0FF01102A2BDB10F0070F08D010F866
:10136000013B013A8B422DD010F0070F42B3F6D16A
:10137000F0B441EA012141EA014122F007047FF083
:1013800000070023F0E80256083C85EA010586EADA
:10139000010685FA47F5A3FA87F586FA47F6A5FA16
:1013A00087F68EB9EED1F0BC01F0FF0102F0070222
:1013B00032B110F8013B013A83EA010313B1F8D1CD
:1013C0000020704701387047002D06BF35460338AE
:1013D000073815F0010F07D1013015F4807F02BFE7
:1013E000013015F4C03F0130F0BC0138704700BF38
:1013F000844641EA000313F003036DD1403A41D320
:1014000051F8043B40F8043B51F8043B40F8043BDE
:1014100051F8043B40F8043B51F8043B40F8043BCE
:1014200051F8043B40F8043B51F8043B40F8043BBE
:1014300051F8043B40F8043B51F8043B40F8043BAE
:1014400051F8043B40F8043B51F8043B40F8043B9E
:1014500051F8043B40F8043B51F8043B40F8043B8E
:1014600051F8043B40F8043B51F8043B40F8043B7E
:1014700051F8043B40F8043B51F8043B40F8043B6E
:10148000403ABDD2303211D351F8043B40F8043B0E
:1014900051F8043B40F8043B51F8043B40F8043B4E
:1014A00051F8043B40F8043B103AEDD20C3205D31E
:1014B00051F8043B40F8043B043AF9D2043208D016
:1014C000D2071CBF11F8013B00F8013B01D30B8888
:1014D00003806046704700BF082A13D38B078DD066
:1014E00010F003038AD0C3F10403D21ADB071CBF38
:1014F00011F8013B00F8013B80D331F8023B20F8A2
:10150000023B7BE7043AD9D3013A11F8013B00F8DA
:10151000013BF9D20B7803704B7843708B78837062
:10152000604670478842F0B40DD98B1883420AD9BF
:10153000841832B1224613F8014D02F8014D994248
:10154000F9D1F0BC70470F2A0ED80346541E002A6A
:10155000F7D001340C44013B11F8012B03F8012FA3
:10156000A142F9D1F0BC704740EA01039B073BD18F
:10157000A2F110073F0901F1200606EB071601F161
:10158000100300F1100453F8105C44F8105C53F899
:101590000C5C44F80C5C53F8085C44F8085C53F8A5
:1015A000045C44F8045C1033B34204F11004EAD143
:1015B0007B1C1B0112F00C0F194402F00F050344B1
:1015C00015D0043DAD0803EB850C1C1F0E4656F8E4
:1015D000047B44F8047F6445F9D10135AD002B4408
:1015E000294402F00302B1E7541E0346B1E72A463C
:1015F000ACE700BF704700BF704700BF2DE9F84F50
:101600001746002900F0BB8007F10B0481460D4608
:10161000FFF7F0FF162C5ED810242246A7425FD8B1
:1016200055F804EC2EF00306A5F10808964208EBE5
:10163000060A80F28180CB4BDAF8040099685145A4
:1016400000F0B58020F0010353445B68DB0700F134
:101650008A8020F003003318934280F212811EF03A
:10166000010F0FD155F8083CA8EB030BDBF8041071
:1016700021F0030108448319934280F21681731804
:10168000934234DA39464846FFF7AAFB0746E0B1F1
:1016900055F8043C23F001034344A0F108029342AF
:1016A00000F0F780321F242A00F2FB80132A2968F9
:1016B00000F2C98003462A46196051685960926851
:1016C0009A602946484600F0A7FB4846FFF794FF7A
:1016D0003846BDE8F88F24F00704002C22469DDA36
:1016E0000C23C9F8003000273846BDE8F88F5F4664
:1016F000DBF80C1057F8080F321F242AC1600BEBDF
:10170000030A886000F2D980132A296840F2D38046
:10171000CBF808106968CBF80C101B2AA96800F2F6
:10172000E0800BF110020835116069685160A9680A
:1017300091601E46D8463D46D8F80430321B0F2A29
:1017400003F0010320D83343C8F80430DAF804303A
:1017500043F00103CAF8043048462F46FFF74CFF18
:101760003846BDE8F88F1EF0010F8BD155F8083CC4
:10177000A8EB030BDBF8041021F003017FE711460F
:10178000BDE8F84FFFF72CBB08EB0401234342F000
:101790000102C8F804304A60DAF8043043F001036B
:1017A0000831CAF80430484600F036FBD4E720F090
:1017B0000300311804F1100C61454FDA1EF0010FDF
:1017C0007FF460AF55F8081CA8EB010BDBF80410A0
:1017D00021F00301084400EB060AD4453FF74FAF60
:1017E0005F46DBF80C1057F8080F321F242AC1603F
:1017F000886000F29980132A296840F29380CBF820
:1018000008106968CBF80C101B2AA96800F29280B6
:101810000BF110020835116069685160A968916088
:101820000BEB0401AAEB040242F0010299604A604A
:10183000DBF8043003F001031C434846CBF80440B6
:10184000FFF7DAFE50E701606B6843601B2A3CD863
:1018500005F1080200F10803A9682DE708EB040070
:101860000A1B42F001029860426055F8043C03F004
:1018700001031C43484645F8044CFFF7BDFE2F46C4
:1018800032E7DAE902121E46CA6008EB030A9160E9
:1018900052E750F8043C23F003031E4408EB060A09
:1018A0004AE72946FFF73EFE0BE7DAE902125F46F8
:1018B000CA6091601CE73A4636E7294638461E461C
:1018C000D846FFF72FFE3D4636E7AB688360EB68EE
:1018D000C360242A11D005F1100200F11003296918
:1018E000EAE6CBF81010E968CBF81410242A0ED0E1
:1018F00029690BF11802103516E72B6903616B6932
:101900004361A96905F1180200F11803D4E62A69B8
:10191000CBF818206A69CBF81C20A9690BF12002CA
:10192000183501E73A4676E729463846FFF7FAFDCB
:101930000C4B75E7CBF81010E968CBF81410242A8B
:1019400004D029690BF11802103564E72A69CBF835
:1019500018206A69CBF81C20A9690BF12002183500
:1019600059E700BF3004002038B5074C0023054676
:101970000846236000F064FD431C00D038BD236896
:10198000002BFBD02B6038BDA809002010B50C46F9
:10199000B1F90E1000F0C8FB002803DB236D0344EF
:1019A000236510BDA38923F48053A38110BD00BF1C
:1019B000002070472DE9F0411646B1F90C201F4672
:1019C000D3050C460546B1F90E1009D422F4805215
:1019D000A2813B4632462846BDE8F04100F01EB8E1
:1019E0000022022300F012FBB4F90C20B4F90E100F
:1019F000ECE700BF10B50C46B1F90E1000F006FB85
:101A0000A389421C0EBF23F4805343F48053206506
:101A1000A38110BDB1F90E1000F07EB870B50D466F
:101A2000084C114606461A4628460023236000F05B
:101A3000EDFC431C00D070BD2368002BFBD033604D
:101A400070BD00BFA809002038B5324B1B680546A1
:101A50000C460BB19A6B12B3B4F90C2093B2180771
:101A600025D5206900282DD013F0010207D0636925
:101A700000225B42A361A26038B1002038BD990703
:101A800058BF6269A2600028F7D1B4F90C301A0679
:101A9000F4D543F04003A3814FF0FF3038BD184622
:101AA000FEF7AAFFB4F90C2093B21807D9D4D906CF
:101AB00028D5580712D4206942F00803A3819BB2AD
:101AC0000028D1D103F42072B2F5007FCCD0284693
:101AD000214600F0DFFAA3892069C5E7216B51B1E7
:101AE00004F14003994204D0284600F095F9B4F976
:101AF0000C200023236300232069636022F024026A
:101B00002060D9E742F0400209232B604FF0FF30FC
:101B1000A28138BD0000002038B5074C00230546DF
:101B20000846236000F080FC431C00D038BD2368C9
:101B3000002BFBD02B6038BDA809002070B539B14F
:101B400005460C4608B1836B83B3B4F90C3013B966
:101B50000026304670BD2146284600F03BF8E36A77
:101B6000064633B1E169284698470028B8BF4FF0D0
:101B7000FF36A3891B0620D4216B41B104F1400339
:101B8000994202D0284600F047F900232363616C94
:101B900021B1284600F040F900236364FEF730FFCE
:101BA0000023A381FEF72EFF304670BDFEF724FF11
:101BB000B4F90C30002BCBD0CDE72169284600F0DA
:101BC0002BF9D9E7024B01461868FFF7B7BF00BFF2
:101BD00000000020B1F90C309AB22DE9F0410C461A
:101BE0001107804648D4626843F40063002AA38149
:101BF0005DDDA56A002D57D000229BB2D8F80060A9
:101C0000E169C8F8002013F4805254D10123404602
:101C1000A847431C66D0A389A56AE1695F0705D57B
:101C20006268236B801A0BB1E36BC01A0246002373
:101C30004046A847451C48D1D8F80020B4F90C30DC
:101C4000002A5CD01D2A01D0162A64D12269002105
:101C5000C4E9002123F40063A381216BC8F800606C
:101C600011B304F14003994202D0404600F0D4F889
:101C700000202063BDE8F0812669AEB125682660AA
:101C800091070CBF63690023AD1BA3600AE02B46DC
:101C90003246676AE1694046B8470028A5EB00056F
:101CA00006440ADD002DF2DC0020BDE8F081E26B85
:101CB000002A9EDCF8E7206DB0E7A38943F04003DB
:101CC000A3814FF0FF30BDE8F081B4F90C302269F8
:101CD000226023F4006300226260DA04A381BCD591
:101CE0002065BAE7D8F80030002B94D01D2B0FD018
:101CF000162B0DD0A38943F04003A381D5E723F42D
:101D000000632169A381DB04C4E90012A5D5E7E7DC
:101D1000C8F80060C8E743F04003A381C5E700BFEF
:101D200010B5044682B008B1836B23B1B1F90C0041
:101D300048B902B010BD0191FEF75EFE0199B1F9FC
:101D40000C000028F5D0204602B0BDE81040FFF797
:101D500041BF00BF20B1054B01461868FFF7E0BF47
:101D6000034B04491868FFF711B800BF00000020BA
:101D7000A83B0008211D0008F8B5244F0C46064674
:101D8000FFF738FCBB685D68C4F57E610F3125F054
:101D90000305294421F47F6121F00F01A1F580544E
:101DA000B4F5805F07DB00213046FFF7DDFDBB683F
:101DB0002B44984204D03046FFF71EFC0020F8BDAB
:101DC00061423046FFF7D0FD01300DD0104BBA68AC
:101DD00019682D1B45F001053046091B5560196037
:101DE000FFF70AFC0120F8BD00213046FFF7BCFDDB
:101DF000BA68831A0F2BDEDD064C0549246843F0D0
:101E00000103001B53600860D5E700BF30040020C9
:101E10006C0800203808002000295ED0F8B50F4675
:101E20000646FFF7E7FB57F804CC754D2CF001038D
:101E3000A7F10800C218A9685468914224F003046D
:101E400000F084801CF0010F546002EB040133D1D8
:101E500057F808EC4968A0EB0E0005F1080C8768FC
:101E60006745734401F0010160D0D0F80CE0C7F879
:101E70000CE0CEF80870002900F08D8043F00101DD
:101E800041601360B3F5007F30D2DB08591C6C68E9
:101E90009A1001239340234305EBC10255F83140CA
:101EA0006B60083AC0E9024245F83100E060304614
:101EB000BDE8F840FFF7A0BB4968C9070ED423442A
:101EC00005F1080C9168614543F001046BD0D268BC
:101ED000CA6091604460C350D4E7704743F0010189
:101EE000B3F5007F47F8041C1360CED35A0A042AC6
:101EF00046D89A0902F13907FF0002F13801EC19BE
:101F0000EA59083C944255D0516821F003019942A6
:101F100002D992689442F7D1D468C0E90224A06043
:101F2000D0603046BDE8F840FFF766BB002962D1BB
:101F3000D2E90221234443F00104D1608A60446065
:101F4000C3503046BDE8F840FFF756BB1CF0010F08
:101F5000234407D157F8082C801A1344D0E9021201
:101F6000CA609160274A126843F001019A424160B9
:101F7000A8609CD8244B30461968FFF7FDFE96E711
:101F8000142A0AD9542A1DD81A0B02F16F07FF0030
:101F900002F16E01B3E7234494E702F15C07FF000E
:101FA00002F15B01ABE7C5E90400C0E902CC446083
:101FB000C3507CE76B688910012707FA01F11943C8
:101FC0006960AAE7B2F5AA7F06D8DA0B02F17807B2
:101FD000FF0002F1770192E740F254518A4206D89D
:101FE0009A0C02F17D07FF0002F17C0187E74FF4B4
:101FF0007E777E2183E743F001014160136056E75D
:10200000300400203C0800206808002070B50D4610
:10201000084C114606461A4628460023236000F065
:102020000DFA431C00D070BD2368002BFBD0336039
:1020300070BD00BFA809002070B50C46B1F90E10A4
:10204000002996B015461E4614DB6A4600F082F859
:1020500000280FDB019A02F47042A2F50052B2FA96
:1020600082F252094FF480634FF4006032602B60BB
:1020700016B070BDA289002312F08000336004D036
:10208000402218462A6016B070BD4FF480632B6062
:1020900016B070BD8A8992070B4606D501F143023E
:1020A00001211A60C3E90421704770B582B001AB09
:1020B0006A460C460646FFF7BFFF009905463046C4
:1020C000FEF78EFEB4F90C3070B11649F163019A37
:1020D0000099206043F08003A381C4E904018AB918
:1020E0002B43A38102B070BD9A05FBD423F00303F8
:1020F00004F1430243F002030121A3812260C4E9F9
:102100000421EFE73046B4F90E1000F037F810B9AB
:10211000B4F90C30E4E7A38923F0030343F001038F
:102120001BB2DDE74908000870B50D46084C1146A2
:1021300006461A4628460023236000F057F9431C40
:1021400000D070BD2368002BFBD0336070BD00BF92
:10215000A809002038B50B46074C0546114618461D
:102160000023236000F063F9431C00D038BD2368CE
:10217000002BFBD02B6038BDA809002038B5074CD8
:10218000002305460846236000F056F9431C00D0A2
:1021900038BD2368002BFBD02B6038BDA809002078
:1021A00010B582B0002401940D4B1A6B42F400125A
:1021B0001A631B6B03F400130193019B2246214613
:1021C0000B2000F0ABFA0B2000F0DCFA224621468F
:1021D000112000F0A3FA112000F0D4FA02B010BDD3
:1021E00000380240F0B589B00024039404940594AB
:1021F000069407940094214B1A6B42F010021A6364
:102200001A6B02F010020092009A01941A6B42F0CD
:1022100080021A631A6B02F080020192019A029402
:102220001A6B42F020021A631B6B03F02003029327
:10223000029B134F22464FF40061384600F0D8FD50
:10224000104D22464FF48041284600F0D1FD4FF456
:1022500000630393012604960594069403A9384667
:1022600000F0CEFC4FF4804303930496059406944B
:1022700003A9284600F0C4FC09B0F0BD00380240B4
:10228000001002400014024072B6FEE700B595B09F
:102290003022002108A8FEF79BF900230393049342
:1022A0000593069307930193204A116C41F08051E6
:1022B0001164126C02F080520192019A02931C4B3D
:1022C0001A6842F440421A601B6803F440430293C8
:1022D000029B012308934FF48033099302230E934A
:1022E0004FF480020F9206221092A82211921293AC
:1022F0000423139308A800F08BFD98B90F230393D0
:1023000002230493002305934FF4A05306934FF444
:1023100080530793052103A800F0C6FF20B915B02C
:102320005DF804FBFFF7B0FFFFF7AEFF0038024097
:102330000070004008B500F09FF9FFF7A7FFFFF716
:1023400051FFFFF72DFF00F0B1F84FF48041054831
:1023500000F054FD0448FEF7BFF94FF4FA7000F0A6
:10236000B7F9F2E700140240AC3B000882B000214C
:1023700000910B4B5A6C42F480425A645A6C02F43E
:1023800080420092009A01911A6C42F080521A64C5
:102390001B6C03F080530193019B02B0704700BF98
:1023A00000380240FEE7FEE7FEE7FEE7FEE7704783
:1023B0007047704708B500F079F908BD08B50248C4
:1023C00000F030FB08BD00BF0009002008B502483E
:1023D00000F028FB08BD00BFA008002008B5024897
:1023E00001F08CFA08BD00BF6009002070B50C46F2
:1023F00016460025B54207DAAFF30080214601F802
:10240000010B01350C46F5E7304670BD70B50C4642
:1024100016460025B54205DA14F8010B00F036F82F
:102420000135F7E7304670BD4FF0FF3070474FF48D
:1024300000534B6000207047012070470020704718
:1024400010B503460C4A0D490D48006840B10C48D0
:1024500000680344521A934206D8094A136010BD1B
:102460000748084C0460F2E7FEF76EF80C2303609F
:102470004FF0FF30F3E700BF00000320000400002E
:102480009C080020B00900207047000000B583B010
:1024900001904FF6FF73012201A9034801F037F9BB
:1024A000019803B05DF804FB6009002008B50A48F4
:1024B0000A4B03604FF4E133436000238360C36041
:1024C00003610C2242618361C36101F0F1F800B93C
:1024D00008BDFFF7D9FEFBE760090020007C004043
:1024E00030B589B0002303930493059306930793B3
:1024F0000268334B9A4201D009B030BD0446002532
:10250000019503F5DE331A6C42F000421A641A6C2E
:1025100002F000420192019A02951A6B42F01002F9
:102520001A631B6B03F010030293029B03230393B4
:1025300002220492059506930823079303A92148D4
:1025400000F05EFB2048214B03604FF020634360A6
:102550008560C5604FF48063036145618561C56135
:102560000562456200F09AF918BB174BA3639C63A0
:102570001748184B03604FF020634360402383608B
:102580000023C3604FF48062026143618361C361D1
:102590000362436200F082F970B90D4B63639C6380
:1025A00000221146532000F0B9F8532000F0EAF859
:1025B000A2E7FFF769FED8E7FFF766FEEDE700BF89
:1025C000007C004000100240A0080020A0600240F3
:1025D0000009002010600240DFF834D00D480E4999
:1025E0000E4A002302E0D458C4500433C4188C426D
:1025F000F9D30B4A0B4C002301E013600432A242D2
:10260000FBD3FFF741FFFDF7BFFFFFF793FE7047D6
:1026100000000320000000204C080020EC3B0008D4
:102620004C080020AC090020FEE7000010B504466D
:102630000E4B18784FF47A73B3FBF0F30C4A106822
:10264000B0FBF3F000F0ACF868B90F2C01D9012011
:102650000AE0002221464FF0FF3000F05FF8054B02
:102660001C60002000E0012010BD00BF44080020D5
:10267000400800204808002008B50B4B1A6842F4B7
:1026800000721A601A6842F480621A601A6842F492
:1026900080721A60032000F02FF80F20FFF7C6FFAA
:1026A000FFF764FE002008BD003C0240034A1168A9
:1026B000034B1B780B441360704700BFA409002034
:1026C00044080020014B1868704700BFA40900208F
:1026D00038B50446FFF7F6FF0546B4F1FF3F02D0D8
:1026E000044B1B781C44FFF7EDFF401BA042FAD3BC
:1026F00038BD00BF44080020074AD36823F4E063D4
:102700001B041B0C000200F4E060034343F0BF63B2
:1027100043F40033D360704700ED00E030B4174B52
:10272000DB68C3F30223C3F10704042C28BF04248D
:102730001D1D062D18D9033B4FF0FF3505FA04F493
:1027400021EA0401994005FA03F322EA030319433D
:1027500000280BDB0901C9B200F1604000F56140BF
:1027600080F8001330BC70470023E5E700F00F004D
:102770000901C9B2024B1954F4E700BF00ED00E0B3
:1027800014ED00E0002807DB00F01F0240090123E0
:102790009340024A42F82030704700BF00E100E059
:1027A0000138B0F1807F0AD2064B5860064AF0210A
:1027B00082F823100020986007221A6070470120D9
:1027C000704700BF10E000E000ED00E010B40368C7
:1027D000D9B210390B4AA2FB014212090A4CA25C81
:1027E000C2655F2908D923F47F7323F00303043300
:1027F0008365806D10BC704723F47F7323F003035F
:102800008365F6E7ABAAAAAACC3B0008836A826973
:1028100092B9012B0AD0022B02D00BB100207047D5
:10282000C36A13F0807F28D100207047C36AB3F1D8
:10283000C07F24D000207047B2F5005F09D0022B82
:1028400025D9032B25D1C36A13F0807F23D1002023
:102850007047032B03D8DFE803F01404140A0020A8
:102860007047C36A13F0807F0DD100207047C36AA0
:10287000B3F1C07F09D000207047012070470120CC
:1028800070470120704701207047012070470120E8
:1028900070470020704701207047000070B5044663
:1028A000FFF710FF002C5BD00546022384F835307B
:1028B000002384F834302268136823F00103136086
:1028C00023681A6812F0010F0AD0FFF7FBFE431BC2
:1028D000052BF5D920236365032084F8350070BDEE
:1028E0001A68204810406168A2680A43E1680A43F8
:1028F00021690A4361690A43A1690A43E1690A43FC
:10290000216A0A430243616A04291ED01A602668BC
:10291000756925F00705636A1D43042B07D1A36A77
:102920001D43E36A1BB12046FFF770FF90B9756144
:102930002046FFF74BFFE26D3F239340836000206A
:102940006065012384F83530C9E7E16A206B0143F3
:102950000A43DBE740236365012084F83500BEE7C6
:102960000120BCE73F8010F070B50446866DFFF78C
:10297000A9FE94F83530DBB2022B06D080236365C4
:10298000002384F83430012070BD054622681368A6
:1029900023F0160313602268536923F08003536108
:1029A000236CE3B12268136823F0080313602268E4
:1029B000136823F00103136023681B6813F0010FF1
:1029C00011D0FFF77FFE431B052BF5D9202363654C
:1029D000032084F83500002384F83430D4E7A36C56
:1029E000002BDFD1E3E7E26D3F239340B360012387
:1029F00084F83530002084F83400C5E790F835308D
:102A0000DBB2022B03D080234365012070470523EE
:102A100080F835300268136823F00103136000204A
:102A200070470000F0B583B0044600230193724B59
:102A30001D68724BA3FB0535AD0A876D3E68C26DFC
:102A400008239340334210D003681A6812F0040F31
:102A50000BD01A6822F004021A60C26D082393405A
:102A6000BB60436D43F001034365E26D0123934076
:102A7000334209D02268526912F0800F04D0BB6043
:102A8000636D43F002036365E26D042393403342B8
:102A900009D02268126812F0020F04D0BB60636D87
:102AA00043F004036365E26D10239340334224D066
:102AB0002268126812F0080F1FD0BB6023681A68E2
:102AC00012F4802F0DD01B6813F4002F04D1236C57
:102AD0009BB12046984710E0A36C73B120469847FD
:102AE0000BE01A6812F4807F03D11A6822F0080202
:102AF0001A60236C0BB120469847E26D2023934067
:102B0000334255D02268126812F0100F50D0BB60CB
:102B100094F83530DBB2052B0ED023681A6812F416
:102B2000802F33D01B6813F4002F2AD1636C002B45
:102B30003ED0204698473BE02268136823F01603F6
:102B400013602268536923F080035361236CA3B19F
:102B50002268136823F008031360E26D3F2393405B
:102B6000BB60012384F83530002384F83430236DB2
:102B7000002B3FD0204698473CE0A36C002BE7D1C8
:102B8000EBE7E36BA3B12046984711E01A6812F413
:102B9000807F09D11A6822F010021A60012384F89C
:102BA0003530002384F83430E36B0BB1204698476E
:102BB000636DFBB1636D13F0010F17D0052384F82B
:102BC00035302268136823F001031360019B013341
:102BD0000193AB4204D823681B6813F0010FF5D1B1
:102BE000012384F83530002384F83430E36C0BB1D2
:102BF0002046984703B0F0BD40080020B5814E1B29
:102C000000230F2B00F2EA80F0B482B05EE0866809
:102C10005F000324BC4026EA0406CC68BC40344371
:102C20008460466826EA02064C68C4F300129A40A3
:102C30003243426058E0DC08083450F8247003F056
:102C4000070296000F22B24027EA02070A69B24043
:102C50003A4340F824205BE0092200E00022B24021
:102C60003A4302345E4E46F824205E4A9468EA43B2
:102C700024EA05064F6817F4801F01D045EA0406D0
:102C8000584CA660E46802EA04064F6817F4001F77
:102C900001D045EA0406534CE660646802EA040683
:102CA0004F6817F4003F01D045EA04064D4C6660BA
:102CB000246822404E6816F4803F01D045EA0402A1
:102CC000484C226001330F2B00F2858001229A408C
:102CD0000C6804EA020532EA0404F3D14C6804F0FB
:102CE0000304013C012C92D94A6802F00302032A32
:102CF00009D0C4685E000322B24024EA02048A6854
:102D0000B2402243C2604A6802F00302022A92D013
:102D100004685E000322B24024EA02044A6802F01A
:102D20000302B240224302604A6812F4403FC9D015
:102D3000002201922C4A546C44F480445464526C36
:102D400002F480420192019A9C08A61C244A52F87F
:102D5000267003F0030296000F22B24027EA020712
:102D6000224A90423FF47AAF02F58062904222D02C
:102D700002F58062904220D002F5806290421ED01F
:102D800002F5806290421CD002F5806290421AD017
:102D900002F58062904218D002F58062904216D00F
:102DA00002F58062904214D002F5806290423FF4B6
:102DB00053AF0A2253E7012251E702224FE70322D1
:102DC0004DE704224BE7052249E7062247E70722A1
:102DD00045E7082243E702B0F0BC7047704700BFE8
:102DE00000380140003C0140003802400000024031
:102DF0000AB181617047090481617047436901EA42
:102E0000030221EA030141EA0241816170470000A7
:102E1000002800F0DF8170B582B00446036813F02B
:102E2000010F3BD0A64B9B6803F00C03042B2CD066
:102E3000A34B9B6803F00C03082B21D06368B3F508
:102E4000803F4FD0B3F5A02F52D09D4B1A6822F48B
:102E500080321A601A6822F480221A606368002B9C
:102E600050D0FFF72FFC0546954B1B6813F4003F2D
:102E700014D1FFF727FC401B6428F5D90320B0E1EB
:102E80008F4B5B6813F4800FD8D08D4B1B6813F405
:102E9000003F03D06368002B00F09E81236813F08D
:102EA000020F54D0864B9B6813F00C0F3ED0844B1E
:102EB0009B6803F00C03082B33D0E368002B67D02A
:102EC000804B01221A60FFF7FDFB05467C4B1B6817
:102ED00013F0020F53D1FFF7F5FB401B0228F5D981
:102EE00003207EE1764A136843F480331360B5E72C
:102EF000734B1A6842F480221A601A6842F48032D6
:102F00001A60ABE7FFF7DEFB05466D4B1B6813F459
:102F1000003FC3D0FFF7D6FB401B6428F5D9032040
:102F20005FE1674B5B6813F4800FC6D1644B1B688D
:102F300013F0020F03D0E368012B40F04F81604A89
:102F4000136823F0F803216943EAC103136023687F
:102F500013F0080F40D0636963B35B4B01221A6022
:102F6000FFF7B0FB0546564B5B6F13F0020F33D1F2
:102F7000FFF7A8FB401B0228F5D9032031E1504A96
:102F8000136823F0F803216943EAC1031360DEE705
:102F90004C4B00221A60FFF795FB0546484B1B6817
:102FA00013F0020FD3D0FFF78DFB401B0228F5D999
:102FB000032016E1444B00221A60FFF783FB05460D
:102FC0003F4B5B6F13F0020F06D0FFF77BFB401BFC
:102FD0000228F5D9032004E1236813F0040F78D008
:102FE000374B1B6C13F0805F0DD100230193344BE2
:102FF0001A6C42F080521A641B6C03F080530193E8
:10300000019B012500E00025304B1B6813F4807FF5
:1030100021D0A368012B32D0052B36D0284B1A6F54
:1030200022F001021A671A6F22F004021A67A368DD
:10303000002B34D0FFF746FB0646214B1B6F13F0E5
:10304000020F45D1FFF73EFB801B41F288339842C7
:10305000F3D90320C5E01D4A136843F4807313605D
:10306000FFF730FB0646194B1B6813F4807FD0D165
:10307000FFF728FB801B0228F5D90320B1E0104A96
:10308000136F43F001031367D1E70D4B1A6F42F042
:1030900004021A671A6F42F001021A67C7E7FFF7C6
:1030A00011FB0646064B1B6F13F0020F10D0FFF703
:1030B00009FB801B41F288339842F3D9032090E04A
:1030C0000038024000004742800E47420070004036
:1030D000EDB9A369002B00F08380494A926802F0A1
:1030E0000C02082A51D0022B17D0464B00221A603E
:1030F000FFF7E8FA0446424B1B6813F0007F42D00A
:10310000FFF7E0FA001B0228F5D9032069E03C4AEA
:10311000136C23F080531364DBE73A4B00221A60F0
:10312000FFF7D0FA0546364B1B6813F0007F06D038
:10313000FFF7C8FA401B0228F5D9032051E0E369E4
:10314000226A1343626A43EA8213A26A5208013A6E
:1031500043EA0243E26A43EA0263294A5360294B85
:1031600001221A60FFF7AEFA0446254B1B6813F0E4
:10317000007F06D1FFF7A6FA001B0228F5D903202D
:103180002FE000202DE000202BE0012B2BD01C4B4A
:103190005B6803F48001E269914226D103F03F02AB
:1031A000216A8A4223D1616A47F6C0721A40B2EBA3
:1031B000811F1ED103F44031A26A5208013AB1EBDB
:1031C000024F18D103F07063E26AB3EB026F14D1BF
:1031D000002006E001207047012002E0012000E00D
:1031E000002002B070BD0120FBE70120F9E70120BB
:1031F000F7E70120F5E70120F3E70120F1E700BF41
:103200000038024060004742F8B5244B9B6803F049
:103210000C03042B3DD0082B3DD1204B5A6802F003
:103220003F025B6813F4800F12D01C4B5968C1F346
:10323000881100231A48A1FB0001FDF705F8174B80
:103240005B68C3F3014301335B00B0FBF3F023E0A1
:10325000124B5B68C3F388135C010025E41A65F127
:103260000005AE0146EA9466A701381B66EB05012E
:10327000CC0044EA5074C500E81844F100018B0208
:1032800043EA90538402204619460023FCF7DCFFF2
:10329000D5E7034800E00348F8BD00BF003802400E
:1032A000001BB7000024F400002800F09B8070B5DC
:1032B0000D4604464F4B1B6803F00F038B4208D2A8
:1032C000CBB24C4A1370136803F00F038B4240F0EB
:1032D0008B80236813F0020F17D013F0040F04D073
:1032E000454A936843F4E0539360236813F0080F52
:1032F00004D0414A936843F4604393603E4A936824
:1033000023F0F003A1680B439360236813F0010FCF
:1033100032D06368012B21D09A1E012A25D9364A62
:10332000126812F0020F61D033498A6822F003025A
:1033300013438B60FFF7C6F906462F4B9B6803F0DB
:103340000C036268B3EB820F16D0FFF7BBF9801B4A
:1033500041F288339842F0D9032042E0264A1268AD
:1033600012F4003FE0D101203BE0234A126812F042
:10337000007FD9D1012034E01E4B1B6803F00F03FE
:10338000AB4207D9EAB21B4B1A701B6803F00F035C
:10339000AB422DD1236813F0040F06D0164A936870
:1033A00023F4E053E1680B439360236813F0080FA4
:1033B00007D0114A936823F46043216943EAC103AB
:1033C0009360FFF721FF0C4B9B68C3F303130B4A79
:1033D000D35CD8400A4B18600A4B1868FFF726F9EF
:1033E000002070BD012070470120FAE70120F8E7B6
:1033F0000120F6E7003C024000380240B43B0008E0
:103400004008002048080020014B1868704700BFA2
:103410004008002008B5FFF7F7FF044B9B68C3F393
:103420008223034AD35CD84008BD00BF0038024065
:10343000C43B000808B5FFF7E7FF044B9B68C3F3E4
:103440004233034AD35CD84008BD00BF0038024075
:10345000C43B0008026802F10C0353E8003F23F468
:1034600090730C3242E800310029F3D1026802F176
:10347000140353E8003F23F00103143242E8003103
:103480000029F3D1036B012B05D0202380F83E30B7
:10349000002303637047026802F10C0353E8003F06
:1034A00023F010030C3242E800310029F3D1ECE79D
:1034B00090F83D30DBB2212B01D0022070478368A9
:1034C000B3F5805F17D0036A5A1C02621A7803684A
:1034D0005A60C38C9BB2013B9BB2C3844BB9026858
:1034E000D36823F08003D3600268D36843F04003BD
:1034F000D360002070470369002BE4D1036A1B8866
:103500000268C3F308035360036A02330362E0E70F
:1035100070B504460268136923F44053C1680B4335
:10352000136183680269134342691343C2691A43F2
:103530000168CB6823F4164323F00C031343CB60DC
:103540000268536923F4407381690B435361036834
:10355000344A934206D002F58062934202D0FFF7CC
:1035600059FF01E0FFF766FFE369B3F5004F2AD08A
:103570000026051846EB06012D1846EB0101CB008D
:1035800043EA5573EA001546194663689A009B0F93
:10359000281846EB0101FCF757FE234DA5FB00322E
:1035A0005109642303FB11031B013233A5FB0323E1
:1035B0005B0903F0F00202EB011203F00F03216834
:1035C00013448B6070BD0026051846EB06012D18CC
:1035D00046EB0101CB0043EA5573EA001546194654
:1035E00062683346921846EB0303281846EB010144
:1035F000FCF72AFE0C4DA5FB00325109642303FBA6
:103600001103DB003233A5FB03235B095A0002F4EC
:10361000F87202EB011203F00703216813448B6078
:10362000D0E700BF001001401F85EB512DE9F843A2
:1036300005460F4616469946DDF820802C6824681A
:1036400037EA04030CBF01240024B4422DD1B8F1A1
:10365000FF3FF3D0B8F1000F05D0FFF733F8A0EB30
:1036600009004045EAD92A6802F10C0353E8003FFB
:1036700023F4D0730C3242E800310029F3D12A68D8
:1036800002F1140353E8003F23F00103143242E82F
:1036900000310029F3D1202385F83D3085F83E30F4
:1036A000002385F83C30032000E00020BDE8F883CB
:1036B00058B310B5044690F83D300BB3242384F87A
:1036C0003D302268D36823F40053D3602046FFF7CF
:1036D0001FFF2268136923F4904313612268536922
:1036E00023F02A0353612268D36843F40053D36064
:1036F00000202064202384F83D3084F83E3010BD43
:1037000080F83C30FEF7ECFED8E7012070472DE949
:10371000F04182B01E4690F83D30DBB2202B54D1F0
:1037200004460D469046002953D0002A53D090F805
:103730003C30012B51D0012380F83C30002303643E
:10374000212380F83D30FEF7BDFF0746A4F8248012
:10375000A4F82680A368B3F5805F05D04FF0000879
:10376000002384F83C3012E0236913B14FF00008C5
:10377000F6E7A8460025F3E738F8023B2268C3F3D2
:1037800008035360E28C92B2013A92B2E284E38C75
:103790009BB273B100963B46002280212046FFF782
:1037A00045FFE0B9002DE7D015F8012B23685A60DA
:1037B000E8E700963B46002240212046FFF736FF0F
:1037C00078B9202384F83D3000E0022002B0BDE843
:1037D000F0810120FAE70120F8E70220F6E7032054
:1037E000F4E70320F2E7704708B50168CA6822F0E1
:1037F0004002CA60202280F83D20FFF7F4FF00203D
:1038000008BD7047704708B5806B0023C385C3842B
:10381000FFF7F8FF08BD704790F83E30DBB2222B6F
:1038200067D18368B3F5805F4DD0826AB3F5805F5E
:1038300004D0002B54D10369002B51D103685B687D
:103840001370836A01338362C38D9BB2013B9BB2C9
:10385000C385002B4FD100B583B00268D36823F035
:103860002003D3600268D36823F48073D3600268B6
:10387000536923F001035361202380F83E30036B2A
:10388000012B33D100230363026802F10C0353E8D8
:10389000003F23F010030C3242E800310029F3D13D
:1038A00003681A6812F0100F06D0002201921A68FD
:1038B00001925B680193019B818DFFF7ACFF0020B3
:1038C00003B05DF804FB0269002AAED1826A036886
:1038D0005B68C3F308031380836A02338362B3E730
:1038E00003685B6803F07F031370AAE7FFF789FFA3
:1038F000E5E70220704700207047000030B583B034
:10390000044602681368D068516913F00F0505D1A9
:1039100013F0200F02D010F0200F19D12DB111F0AB
:10392000010119D110F4907F16D1216B01297DD0AE
:1039300013F0800F03D010F0800F40F0158113F0CA
:10394000400F03D010F0400F40F0128103B030BDA3
:103950002046FFF761FFF9E713F0010F06D010F4DE
:10396000807F03D0226C42F00102226413F0040F26
:1039700004D019B1226C42F00202226413F0020F4B
:1039800004D019B1226C42F00402226413F0080F33
:1039900007D010F0200F00D119B1226C42F00802BC
:1039A0002264226C002AD1D013F0200F02D010F034
:1039B000200F29D123685B6903F04003226C12F0C9
:1039C000080F00D163B32046FFF744FD23685B690D
:1039D00013F0400F20D0226802F1140353E8003F97
:1039E00023F04003143242E800310029F3D1A36BE5
:1039F00073B1614A1A65A06BFFF700F80028A5D0E3
:103A0000A06B036D9847A1E72046FFF705FFD1E7BC
:103A10002046FFF7F7FE99E72046FFF7F3FE95E70C
:103A20002046FFF7EFFE002323648FE713F0100F0B
:103A30003FF47EAF10F0100F3FF47AAF00230193F4
:103A40001368019353680193019B536913F0400F6E
:103A500050D0A26B13685B689BB2002B3FF476AF2B
:103A6000A18D99427FF672AFE385D369B3F5807F6C
:103A700037D0226802F10C0353E8003F23F480732F
:103A80000C3242E800310029F3D1226802F114031C
:103A900053E8003F23F00103143242E800310029CB
:103AA000F3D1226802F1140353E8003F23F04003EE
:103AB000143242E800310029F3D1202384F83E304B
:103AC00000232363226802F10C0353E8003F23F034
:103AD00010030C3242E800310029F3D1A06BFEF74D
:103AE00043FFA18DE38D9BB2C91A89B22046FFF72F
:103AF00092FE2BE7A18DE38D9BB2C91A89B2E38DAB
:103B00009BB2002B3FF422AF00293FF41FAF226885
:103B100002F10C0353E8003F23F490730C3242E8A7
:103B200000300028F3D1226802F1140353E8003F6B
:103B300023F00103143242E800300028F3D120239F
:103B400084F83E3000232363226802F10C0353E81B
:103B5000003F23F010030C3242E800300028F3D17C
:103B60002046FFF758FEF1E62046FFF7A1FCEDE600
:103B70002046FFF739FEE9E607380008024B13B18B
:103B80000248FCF7DBBC7047000000005505000848
:103B9000F8B500BFF8BC08BC9E467047F8B500BF3A
:083BA000F8BC08BC9E4670470A
:103BA800080000206F6B6B0D000000000000000093
:103BB80000000000010203040607080900000000D5
:103BC8000102030400061016000610160A00000081
:083BD800A0C6FF7F0100000000
:083BE0007D3B000829020008EA
:043BE80001020008CE
:103BEC00080000200000000000000000F40200208B
:103BFC005C030020C4030020000000000000000053
:103C0C0000000000000000000000000000000000A8
:103C1C000000000000000000000000000000000098
:103C2C000000000000000000000000000000000088
:103C3C000000000000000000000000000000000078
:103C4C000000000000000000000000000000000068
:103C5C000000000000000000000000000000000058
:103C6C000000000000000000000000000000000048
:103C7C000000000000000000000000000000000038
:103C8C000000000000000000000000000000000028
:103C9C0001000000000000000E33CDAB34126DE6C5
:103CAC00ECDE05000B00000000000000000000002E
:103CBC0000000000000000000000000000000000F8
:103CCC0000000000000000000000000000000000E8
:103CDC0000000000000000000000000000000000D8
:103CEC0000000000000000000000000000000000C8
:10401C0000000000000000003004002030040020EC
:10402C003804002038040020400400204004002004
:10403C0048040020480400205004002050040020B4
:10404C005804002058040020600400206004002064
:10405C006804002068040020700400207004002014
:10406C0078040020780400208004002080040020C4
:10407C008804002088040020900400209004002074
:10408C009804002098040020A0040020A004002024
:10409C00A8040020A8040020B0040020B0040020D4
:1040AC00B8040020B8040020C0040020C004002084
:1040BC00C8040020C8040020D0040020D004002034
:1040CC00D8040020D8040020E0040020E0040020E4
:1040DC00E8040020E8040020F0040020F004002094
:1040EC00F8040020F8040020000500200005002042
:1040FC0008050020080500201005002010050020F0
:10410C00180500201805002020050020200500209F
:10411C00280500202805002030050020300500204F
:10412C0038050020380500204005002040050020FF
:10413C0048050020480500205005002050050020AF
:10414C00580500205805002060050020600500205F
:10415C00680500206805002070050020700500200F
:10416C0078050020780500208005002080050020BF
:10417C00880500208805002090050020900500206F
:10418C009805002098050020A0050020A00500201F
:10419C00A8050020A8050020B0050020B0050020CF
:1041AC00B8050020B8050020C0050020C00500207F
:1041BC00C8050020C8050020D0050020D00500202F
:1041CC00D8050020D8050020E0050020E0050020DF
:1041DC00E8050020E8050020F0050020F00500208F
:1041EC00F8050020F805002000060020000600203D
:1041FC0008060020080600201006002010060020EB
:10420C00180600201806002020060020200600209A
:10421C00280600202806002030060020300600204A
:10422C0038060020380600204006002040060020FA
:10423C0048060020480600205006002050060020AA
:10424C00580600205806002060060020600600205A
:10425C00680600206806002070060020700600200A
:10426C0078060020780600208006002080060020BA
:10427C00880600208806002090060020900600206A
:10428C009806002098060020A0060020A00600201A
:10429C00A8060020A8060020B0060020B0060020CA
:1042AC00B8060020B8060020C0060020C00600207A
:1042BC00C8060020C8060020D0060020D00600202A
:1042CC00D8060020D8060020E0060020E0060020DA
:1042DC00E8060020E8060020F0060020F00600208A
:1042EC00F8060020F8060020000700200007002038
:1042FC0008070020080700201007002010070020E6
:10430C001807002018070020200700202007002095
:10431C002807002028070020300700203007002045
:10432C0038070020380700204007002040070020F5
:10433C0048070020480700205007002050070020A5
:10434C005807002058070020600700206007002055
:10435C006807002068070020700700207007002005
:10436C0078070020780700208007002080070020B5
:10437C008807002088070020900700209007002065
:10438C009807002098070020A0070020A007002015
:10439C00A8070020A8070020B0070020B0070020C5
:1043AC00B8070020B8070020C0070020C007002075
:1043BC00C8070020C8070020D0070020D007002025
:1043CC00D8070020D8070020E0070020E0070020D5
:1043DC00E8070020E8070020F0070020F007002085
:1043EC00F8070020F8070020000800200008002033
:1043FC0008080020080800201008002010080020E1
:10440C001808002018080020200800202008002090
:10441C002808002028080020FFFFFFFF00000200F2
:0C442C000024F40001000000100000005B
:04000005080025D9F1
:00000001FF
